{
	"contracts/Market.sol": {
		"Market": {
			"abi": [
				{
					"inputs": [
						{
							"internalType": "address",
							"name": "_tokenAddress",
							"type": "address"
						}
					],
					"stateMutability": "nonpayable",
					"type": "constructor"
				},
				{
					"inputs": [
						{
							"internalType": "address",
							"name": "owner",
							"type": "address"
						}
					],
					"name": "OwnableInvalidOwner",
					"type": "error"
				},
				{
					"inputs": [
						{
							"internalType": "address",
							"name": "account",
							"type": "address"
						}
					],
					"name": "OwnableUnauthorizedAccount",
					"type": "error"
				},
				{
					"anonymous": false,
					"inputs": [
						{
							"indexed": true,
							"internalType": "address",
							"name": "owner",
							"type": "address"
						},
						{
							"indexed": false,
							"internalType": "uint256",
							"name": "itemId",
							"type": "uint256"
						}
					],
					"name": "GoodsRegistered",
					"type": "event"
				},
				{
					"anonymous": false,
					"inputs": [
						{
							"indexed": true,
							"internalType": "address",
							"name": "buyer",
							"type": "address"
						},
						{
							"indexed": false,
							"internalType": "uint256",
							"name": "itemId",
							"type": "uint256"
						},
						{
							"indexed": false,
							"internalType": "uint256",
							"name": "quantity",
							"type": "uint256"
						}
					],
					"name": "ItemPurchased",
					"type": "event"
				},
				{
					"anonymous": false,
					"inputs": [
						{
							"indexed": true,
							"internalType": "address",
							"name": "previousOwner",
							"type": "address"
						},
						{
							"indexed": true,
							"internalType": "address",
							"name": "newOwner",
							"type": "address"
						}
					],
					"name": "OwnershipTransferred",
					"type": "event"
				},
				{
					"inputs": [
						{
							"internalType": "uint256",
							"name": "",
							"type": "uint256"
						}
					],
					"name": "items",
					"outputs": [
						{
							"internalType": "string",
							"name": "name",
							"type": "string"
						},
						{
							"internalType": "uint256",
							"name": "price",
							"type": "uint256"
						},
						{
							"internalType": "uint256",
							"name": "quantity",
							"type": "uint256"
						},
						{
							"internalType": "address",
							"name": "owner",
							"type": "address"
						}
					],
					"stateMutability": "view",
					"type": "function"
				},
				{
					"inputs": [],
					"name": "owner",
					"outputs": [
						{
							"internalType": "address",
							"name": "",
							"type": "address"
						}
					],
					"stateMutability": "view",
					"type": "function"
				},
				{
					"inputs": [
						{
							"internalType": "uint256",
							"name": "itemId",
							"type": "uint256"
						},
						{
							"internalType": "uint256",
							"name": "quantity",
							"type": "uint256"
						}
					],
					"name": "purchaseGoods",
					"outputs": [],
					"stateMutability": "nonpayable",
					"type": "function"
				},
				{
					"inputs": [
						{
							"internalType": "string",
							"name": "name",
							"type": "string"
						},
						{
							"internalType": "uint256",
							"name": "price",
							"type": "uint256"
						},
						{
							"internalType": "uint256",
							"name": "quantity",
							"type": "uint256"
						}
					],
					"name": "registerGoods",
					"outputs": [],
					"stateMutability": "nonpayable",
					"type": "function"
				},
				{
					"inputs": [],
					"name": "renounceOwnership",
					"outputs": [],
					"stateMutability": "nonpayable",
					"type": "function"
				},
				{
					"inputs": [],
					"name": "token",
					"outputs": [
						{
							"internalType": "contract IERC20",
							"name": "",
							"type": "address"
						}
					],
					"stateMutability": "view",
					"type": "function"
				},
				{
					"inputs": [
						{
							"internalType": "address",
							"name": "newOwner",
							"type": "address"
						}
					],
					"name": "transferOwnership",
					"outputs": [],
					"stateMutability": "nonpayable",
					"type": "function"
				}
			],
			"devdoc": {
				"errors": {
					"OwnableInvalidOwner(address)": [
						{
							"details": "The owner is not a valid owner account. (eg. `address(0)`)"
						}
					],
					"OwnableUnauthorizedAccount(address)": [
						{
							"details": "The caller account is not authorized to perform an operation."
						}
					]
				},
				"kind": "dev",
				"methods": {
					"owner()": {
						"details": "Returns the address of the current owner."
					},
					"renounceOwnership()": {
						"details": "Leaves the contract without owner. It will not be possible to call `onlyOwner` functions. Can only be called by the current owner. NOTE: Renouncing ownership will leave the contract without an owner, thereby disabling any functionality that is only available to the owner."
					},
					"transferOwnership(address)": {
						"details": "Transfers ownership of the contract to a new account (`newOwner`). Can only be called by the current owner."
					}
				},
				"version": 1
			},
			"evm": {
				"assembly": "    /* \"contracts/Market.sol\":182:1761  contract Market is Ownable {... */\n  mstore(0x40, 0x80)\n    /* \"contracts/Market.sol\":722:823  constructor(address _tokenAddress) Ownable(msg.sender) {... */\n  callvalue\n  dup1\n  iszero\n  tag_1\n  jumpi\n  0x00\n  dup1\n  revert\ntag_1:\n  pop\n  mload(0x40)\n  sub(codesize, bytecodeSize)\n  dup1\n  bytecodeSize\n  dup4\n  codecopy\n  dup2\n  dup2\n  add\n  0x40\n  mstore\n  dup2\n  add\n  swap1\n  tag_2\n  swap2\n  swap1\n  tag_3\n  jump\t// in\ntag_2:\n    /* \"contracts/Market.sol\":765:775  msg.sender */\n  caller\n    /* \"@openzeppelin/contracts@5.0.1/access/Ownable.sol\":1297:1298  0 */\n  0x00\n    /* \"@openzeppelin/contracts@5.0.1/access/Ownable.sol\":1273:1299  initialOwner == address(0) */\n  0xffffffffffffffffffffffffffffffffffffffff\n  and\n    /* \"@openzeppelin/contracts@5.0.1/access/Ownable.sol\":1273:1285  initialOwner */\n  dup2\n    /* \"@openzeppelin/contracts@5.0.1/access/Ownable.sol\":1273:1299  initialOwner == address(0) */\n  0xffffffffffffffffffffffffffffffffffffffff\n  and\n  sub\n    /* \"@openzeppelin/contracts@5.0.1/access/Ownable.sol\":1269:1364  if (initialOwner == address(0)) {... */\n  tag_7\n  jumpi\n    /* \"@openzeppelin/contracts@5.0.1/access/Ownable.sol\":1350:1351  0 */\n  0x00\n    /* \"@openzeppelin/contracts@5.0.1/access/Ownable.sol\":1322:1353  OwnableInvalidOwner(address(0)) */\n  mload(0x40)\n  0x1e4fbdf700000000000000000000000000000000000000000000000000000000\n  dup2\n  mstore\n  0x04\n  add\n  tag_8\n  swap2\n  swap1\n  tag_9\n  jump\t// in\ntag_8:\n  mload(0x40)\n  dup1\n  swap2\n  sub\n  swap1\n  revert\n    /* \"@openzeppelin/contracts@5.0.1/access/Ownable.sol\":1269:1364  if (initialOwner == address(0)) {... */\ntag_7:\n    /* \"@openzeppelin/contracts@5.0.1/access/Ownable.sol\":1373:1405  _transferOwnership(initialOwner) */\n  tag_10\n    /* \"@openzeppelin/contracts@5.0.1/access/Ownable.sol\":1392:1404  initialOwner */\n  dup2\n    /* \"@openzeppelin/contracts@5.0.1/access/Ownable.sol\":1373:1391  _transferOwnership */\n  shl(0x20, tag_11)\n    /* \"@openzeppelin/contracts@5.0.1/access/Ownable.sol\":1373:1405  _transferOwnership(initialOwner) */\n  0x20\n  shr\n  jump\t// in\ntag_10:\n    /* \"@openzeppelin/contracts@5.0.1/access/Ownable.sol\":1225:1412  constructor(address initialOwner) {... */\n  pop\n    /* \"contracts/Market.sol\":802:815  _tokenAddress */\n  dup1\n    /* \"contracts/Market.sol\":787:792  token */\n  0x01\n  0x00\n    /* \"contracts/Market.sol\":787:816  token = IERC20(_tokenAddress) */\n  0x0100\n  exp\n  dup2\n  sload\n  dup2\n  0xffffffffffffffffffffffffffffffffffffffff\n  mul\n  not\n  and\n  swap1\n  dup4\n  0xffffffffffffffffffffffffffffffffffffffff\n  and\n  mul\n  or\n  swap1\n  sstore\n  pop\n    /* \"contracts/Market.sol\":722:823  constructor(address _tokenAddress) Ownable(msg.sender) {... */\n  pop\n    /* \"contracts/Market.sol\":182:1761  contract Market is Ownable {... */\n  jump(tag_13)\n    /* \"@openzeppelin/contracts@5.0.1/access/Ownable.sol\":2912:3099  function _transferOwnership(address newOwner) internal virtual {... */\ntag_11:\n    /* \"@openzeppelin/contracts@5.0.1/access/Ownable.sol\":2985:3001  address oldOwner */\n  0x00\n    /* \"@openzeppelin/contracts@5.0.1/access/Ownable.sol\":3004:3010  _owner */\n  dup1\n  0x00\n  swap1\n  sload\n  swap1\n  0x0100\n  exp\n  swap1\n  div\n  0xffffffffffffffffffffffffffffffffffffffff\n  and\n    /* \"@openzeppelin/contracts@5.0.1/access/Ownable.sol\":2985:3010  address oldOwner = _owner */\n  swap1\n  pop\n    /* \"@openzeppelin/contracts@5.0.1/access/Ownable.sol\":3029:3037  newOwner */\n  dup2\n    /* \"@openzeppelin/contracts@5.0.1/access/Ownable.sol\":3020:3026  _owner */\n  0x00\n  dup1\n    /* \"@openzeppelin/contracts@5.0.1/access/Ownable.sol\":3020:3037  _owner = newOwner */\n  0x0100\n  exp\n  dup2\n  sload\n  dup2\n  0xffffffffffffffffffffffffffffffffffffffff\n  mul\n  not\n  and\n  swap1\n  dup4\n  0xffffffffffffffffffffffffffffffffffffffff\n  and\n  mul\n  or\n  swap1\n  sstore\n  pop\n    /* \"@openzeppelin/contracts@5.0.1/access/Ownable.sol\":3083:3091  newOwner */\n  dup2\n    /* \"@openzeppelin/contracts@5.0.1/access/Ownable.sol\":3052:3092  OwnershipTransferred(oldOwner, newOwner) */\n  0xffffffffffffffffffffffffffffffffffffffff\n  and\n    /* \"@openzeppelin/contracts@5.0.1/access/Ownable.sol\":3073:3081  oldOwner */\n  dup2\n    /* \"@openzeppelin/contracts@5.0.1/access/Ownable.sol\":3052:3092  OwnershipTransferred(oldOwner, newOwner) */\n  0xffffffffffffffffffffffffffffffffffffffff\n  and\n  0x8be0079c531659141344cd1fd0a4f28419497f9722a3daafe3b4186f6b6457e0\n  mload(0x40)\n  mload(0x40)\n  dup1\n  swap2\n  sub\n  swap1\n  log3\n    /* \"@openzeppelin/contracts@5.0.1/access/Ownable.sol\":2975:3099  {... */\n  pop\n    /* \"@openzeppelin/contracts@5.0.1/access/Ownable.sol\":2912:3099  function _transferOwnership(address newOwner) internal virtual {... */\n  pop\n  jump\t// out\n    /* \"#utility.yul\":88:205   */\ntag_16:\n    /* \"#utility.yul\":197:198   */\n  0x00\n    /* \"#utility.yul\":194:195   */\n  dup1\n    /* \"#utility.yul\":187:199   */\n  revert\n    /* \"#utility.yul\":334:460   */\ntag_18:\n    /* \"#utility.yul\":371:378   */\n  0x00\n    /* \"#utility.yul\":411:453   */\n  0xffffffffffffffffffffffffffffffffffffffff\n    /* \"#utility.yul\":404:409   */\n  dup3\n    /* \"#utility.yul\":400:454   */\n  and\n    /* \"#utility.yul\":389:454   */\n  swap1\n  pop\n    /* \"#utility.yul\":334:460   */\n  swap2\n  swap1\n  pop\n  jump\t// out\n    /* \"#utility.yul\":466:562   */\ntag_19:\n    /* \"#utility.yul\":503:510   */\n  0x00\n    /* \"#utility.yul\":532:556   */\n  tag_29\n    /* \"#utility.yul\":550:555   */\n  dup3\n    /* \"#utility.yul\":532:556   */\n  tag_18\n  jump\t// in\ntag_29:\n    /* \"#utility.yul\":521:556   */\n  swap1\n  pop\n    /* \"#utility.yul\":466:562   */\n  swap2\n  swap1\n  pop\n  jump\t// out\n    /* \"#utility.yul\":568:690   */\ntag_20:\n    /* \"#utility.yul\":641:665   */\n  tag_31\n    /* \"#utility.yul\":659:664   */\n  dup2\n    /* \"#utility.yul\":641:665   */\n  tag_19\n  jump\t// in\ntag_31:\n    /* \"#utility.yul\":634:639   */\n  dup2\n    /* \"#utility.yul\":631:666   */\n  eq\n    /* \"#utility.yul\":621:684   */\n  tag_32\n  jumpi\n    /* \"#utility.yul\":680:681   */\n  0x00\n    /* \"#utility.yul\":677:678   */\n  dup1\n    /* \"#utility.yul\":670:682   */\n  revert\n    /* \"#utility.yul\":621:684   */\ntag_32:\n    /* \"#utility.yul\":568:690   */\n  pop\n  jump\t// out\n    /* \"#utility.yul\":696:839   */\ntag_21:\n    /* \"#utility.yul\":753:758   */\n  0x00\n    /* \"#utility.yul\":784:790   */\n  dup2\n    /* \"#utility.yul\":778:791   */\n  mload\n    /* \"#utility.yul\":769:791   */\n  swap1\n  pop\n    /* \"#utility.yul\":800:833   */\n  tag_34\n    /* \"#utility.yul\":827:832   */\n  dup2\n    /* \"#utility.yul\":800:833   */\n  tag_20\n  jump\t// in\ntag_34:\n    /* \"#utility.yul\":696:839   */\n  swap3\n  swap2\n  pop\n  pop\n  jump\t// out\n    /* \"#utility.yul\":845:1196   */\ntag_3:\n    /* \"#utility.yul\":915:921   */\n  0x00\n    /* \"#utility.yul\":964:966   */\n  0x20\n    /* \"#utility.yul\":952:961   */\n  dup3\n    /* \"#utility.yul\":943:950   */\n  dup5\n    /* \"#utility.yul\":939:962   */\n  sub\n    /* \"#utility.yul\":935:967   */\n  slt\n    /* \"#utility.yul\":932:1051   */\n  iszero\n  tag_36\n  jumpi\n    /* \"#utility.yul\":970:1049   */\n  tag_37\n  tag_16\n  jump\t// in\ntag_37:\n    /* \"#utility.yul\":932:1051   */\ntag_36:\n    /* \"#utility.yul\":1090:1091   */\n  0x00\n    /* \"#utility.yul\":1115:1179   */\n  tag_38\n    /* \"#utility.yul\":1171:1178   */\n  dup5\n    /* \"#utility.yul\":1162:1168   */\n  dup3\n    /* \"#utility.yul\":1151:1160   */\n  dup6\n    /* \"#utility.yul\":1147:1169   */\n  add\n    /* \"#utility.yul\":1115:1179   */\n  tag_21\n  jump\t// in\ntag_38:\n    /* \"#utility.yul\":1105:1179   */\n  swap2\n  pop\n    /* \"#utility.yul\":1061:1189   */\n  pop\n    /* \"#utility.yul\":845:1196   */\n  swap3\n  swap2\n  pop\n  pop\n  jump\t// out\n    /* \"#utility.yul\":1202:1320   */\ntag_22:\n    /* \"#utility.yul\":1289:1313   */\n  tag_40\n    /* \"#utility.yul\":1307:1312   */\n  dup2\n    /* \"#utility.yul\":1289:1313   */\n  tag_19\n  jump\t// in\ntag_40:\n    /* \"#utility.yul\":1284:1287   */\n  dup3\n    /* \"#utility.yul\":1277:1314   */\n  mstore\n    /* \"#utility.yul\":1202:1320   */\n  pop\n  pop\n  jump\t// out\n    /* \"#utility.yul\":1326:1548   */\ntag_9:\n    /* \"#utility.yul\":1419:1423   */\n  0x00\n    /* \"#utility.yul\":1457:1459   */\n  0x20\n    /* \"#utility.yul\":1446:1455   */\n  dup3\n    /* \"#utility.yul\":1442:1460   */\n  add\n    /* \"#utility.yul\":1434:1460   */\n  swap1\n  pop\n    /* \"#utility.yul\":1470:1541   */\n  tag_42\n    /* \"#utility.yul\":1538:1539   */\n  0x00\n    /* \"#utility.yul\":1527:1536   */\n  dup4\n    /* \"#utility.yul\":1523:1540   */\n  add\n    /* \"#utility.yul\":1514:1520   */\n  dup5\n    /* \"#utility.yul\":1470:1541   */\n  tag_22\n  jump\t// in\ntag_42:\n    /* \"#utility.yul\":1326:1548   */\n  swap3\n  swap2\n  pop\n  pop\n  jump\t// out\n    /* \"contracts/Market.sol\":182:1761  contract Market is Ownable {... */\ntag_13:\n  dataSize(sub_0)\n  dup1\n  dataOffset(sub_0)\n  0x00\n  codecopy\n  0x00\n  return\nstop\n\nsub_0: assembly {\n        /* \"contracts/Market.sol\":182:1761  contract Market is Ownable {... */\n      mstore(0x40, 0x80)\n      callvalue\n      dup1\n      iszero\n      tag_1\n      jumpi\n      0x00\n      dup1\n      revert\n    tag_1:\n      pop\n      jumpi(tag_2, lt(calldatasize, 0x04))\n      shr(0xe0, calldataload(0x00))\n      dup1\n      0x8da5cb5b\n      gt\n      tag_10\n      jumpi\n      dup1\n      0x8da5cb5b\n      eq\n      tag_6\n      jumpi\n      dup1\n      0xbfb231d2\n      eq\n      tag_7\n      jumpi\n      dup1\n      0xf2fde38b\n      eq\n      tag_8\n      jumpi\n      dup1\n      0xfc0c546a\n      eq\n      tag_9\n      jumpi\n      jump(tag_2)\n    tag_10:\n      dup1\n      0x2aebbb26\n      eq\n      tag_3\n      jumpi\n      dup1\n      0x715018a6\n      eq\n      tag_4\n      jumpi\n      dup1\n      0x80846b2e\n      eq\n      tag_5\n      jumpi\n    tag_2:\n      0x00\n      dup1\n      revert\n        /* \"contracts/Market.sol\":860:1028  function registerGoods(string memory name, uint256 price, uint256 quantity) external onlyOwner(){... */\n    tag_3:\n      tag_11\n      0x04\n      dup1\n      calldatasize\n      sub\n      dup2\n      add\n      swap1\n      tag_12\n      swap2\n      swap1\n      tag_13\n      jump\t// in\n    tag_12:\n      tag_14\n      jump\t// in\n    tag_11:\n      stop\n        /* \"@openzeppelin/contracts@5.0.1/access/Ownable.sol\":2293:2394  function renounceOwnership() public virtual onlyOwner {... */\n    tag_4:\n      tag_15\n      tag_16\n      jump\t// in\n    tag_15:\n      stop\n        /* \"contracts/Market.sol\":1065:1759  function purchaseGoods(uint256 itemId, uint256 quantity) external {... */\n    tag_5:\n      tag_17\n      0x04\n      dup1\n      calldatasize\n      sub\n      dup2\n      add\n      swap1\n      tag_18\n      swap2\n      swap1\n      tag_19\n      jump\t// in\n    tag_18:\n      tag_20\n      jump\t// in\n    tag_17:\n      stop\n        /* \"@openzeppelin/contracts@5.0.1/access/Ownable.sol\":1638:1723  function owner() public view virtual returns (address) {... */\n    tag_6:\n      tag_21\n      tag_22\n      jump\t// in\n    tag_21:\n      mload(0x40)\n      tag_23\n      swap2\n      swap1\n      tag_24\n      jump\t// in\n    tag_23:\n      mload(0x40)\n      dup1\n      swap2\n      sub\n      swap1\n      return\n        /* \"contracts/Market.sol\":631:668  mapping(uint256 => Item) public items */\n    tag_7:\n      tag_25\n      0x04\n      dup1\n      calldatasize\n      sub\n      dup2\n      add\n      swap1\n      tag_26\n      swap2\n      swap1\n      tag_27\n      jump\t// in\n    tag_26:\n      tag_28\n      jump\t// in\n    tag_25:\n      mload(0x40)\n      tag_29\n      swap5\n      swap4\n      swap3\n      swap2\n      swap1\n      tag_30\n      jump\t// in\n    tag_29:\n      mload(0x40)\n      dup1\n      swap2\n      sub\n      swap1\n      return\n        /* \"@openzeppelin/contracts@5.0.1/access/Ownable.sol\":2543:2758  function transferOwnership(address newOwner) public virtual onlyOwner {... */\n    tag_8:\n      tag_31\n      0x04\n      dup1\n      calldatasize\n      sub\n      dup2\n      add\n      swap1\n      tag_32\n      swap2\n      swap1\n      tag_33\n      jump\t// in\n    tag_32:\n      tag_34\n      jump\t// in\n    tag_31:\n      stop\n        /* \"contracts/Market.sol\":243:262  IERC20 public token */\n    tag_9:\n      tag_35\n      tag_36\n      jump\t// in\n    tag_35:\n      mload(0x40)\n      tag_37\n      swap2\n      swap1\n      tag_38\n      jump\t// in\n    tag_37:\n      mload(0x40)\n      dup1\n      swap2\n      sub\n      swap1\n      return\n        /* \"contracts/Market.sol\":860:1028  function registerGoods(string memory name, uint256 price, uint256 quantity) external onlyOwner(){... */\n    tag_14:\n        /* \"@openzeppelin/contracts@5.0.1/access/Ownable.sol\":1531:1544  _checkOwner() */\n      tag_40\n        /* \"@openzeppelin/contracts@5.0.1/access/Ownable.sol\":1531:1542  _checkOwner */\n      tag_41\n        /* \"@openzeppelin/contracts@5.0.1/access/Ownable.sol\":1531:1544  _checkOwner() */\n      jump\t// in\n    tag_40:\n        /* \"contracts/Market.sol\":981:1020  Item(name, price, quantity, msg.sender) */\n      mload(0x40)\n      dup1\n      0x80\n      add\n      0x40\n      mstore\n      dup1\n        /* \"contracts/Market.sol\":986:990  name */\n      dup5\n        /* \"contracts/Market.sol\":981:1020  Item(name, price, quantity, msg.sender) */\n      dup2\n      mstore\n      0x20\n      add\n        /* \"contracts/Market.sol\":992:997  price */\n      dup4\n        /* \"contracts/Market.sol\":981:1020  Item(name, price, quantity, msg.sender) */\n      dup2\n      mstore\n      0x20\n      add\n        /* \"contracts/Market.sol\":999:1007  quantity */\n      dup3\n        /* \"contracts/Market.sol\":981:1020  Item(name, price, quantity, msg.sender) */\n      dup2\n      mstore\n      0x20\n      add\n        /* \"contracts/Market.sol\":1009:1019  msg.sender */\n      caller\n        /* \"contracts/Market.sol\":981:1020  Item(name, price, quantity, msg.sender) */\n      0xffffffffffffffffffffffffffffffffffffffff\n      and\n      dup2\n      mstore\n      pop\n        /* \"contracts/Market.sol\":966:971  items */\n      0x03\n        /* \"contracts/Market.sol\":966:977  items[id++] */\n      0x00\n        /* \"contracts/Market.sol\":972:974  id */\n      0x02\n      0x00\n        /* \"contracts/Market.sol\":972:976  id++ */\n      dup2\n      sload\n      dup1\n      swap3\n      swap2\n      swap1\n      tag_43\n      swap1\n      tag_44\n      jump\t// in\n    tag_43:\n      swap2\n      swap1\n      pop\n      sstore\n        /* \"contracts/Market.sol\":966:977  items[id++] */\n      dup2\n      mstore\n      0x20\n      add\n      swap1\n      dup2\n      mstore\n      0x20\n      add\n      0x00\n      keccak256\n        /* \"contracts/Market.sol\":966:1021  items[id++] = (Item(name, price, quantity, msg.sender)) */\n      0x00\n      dup3\n      add\n      mload\n      dup2\n      0x00\n      add\n      swap1\n      dup2\n      tag_45\n      swap2\n      swap1\n      tag_46\n      jump\t// in\n    tag_45:\n      pop\n      0x20\n      dup3\n      add\n      mload\n      dup2\n      0x01\n      add\n      sstore\n      0x40\n      dup3\n      add\n      mload\n      dup2\n      0x02\n      add\n      sstore\n      0x60\n      dup3\n      add\n      mload\n      dup2\n      0x03\n      add\n      exp(0x0100, 0x00)\n      dup2\n      sload\n      dup2\n      0xffffffffffffffffffffffffffffffffffffffff\n      mul\n      not\n      and\n      swap1\n      dup4\n      0xffffffffffffffffffffffffffffffffffffffff\n      and\n      mul\n      or\n      swap1\n      sstore\n      pop\n      swap1\n      pop\n      pop\n        /* \"contracts/Market.sol\":860:1028  function registerGoods(string memory name, uint256 price, uint256 quantity) external onlyOwner(){... */\n      pop\n      pop\n      pop\n      jump\t// out\n        /* \"@openzeppelin/contracts@5.0.1/access/Ownable.sol\":2293:2394  function renounceOwnership() public virtual onlyOwner {... */\n    tag_16:\n        /* \"@openzeppelin/contracts@5.0.1/access/Ownable.sol\":1531:1544  _checkOwner() */\n      tag_48\n        /* \"@openzeppelin/contracts@5.0.1/access/Ownable.sol\":1531:1542  _checkOwner */\n      tag_41\n        /* \"@openzeppelin/contracts@5.0.1/access/Ownable.sol\":1531:1544  _checkOwner() */\n      jump\t// in\n    tag_48:\n        /* \"@openzeppelin/contracts@5.0.1/access/Ownable.sol\":2357:2387  _transferOwnership(address(0)) */\n      tag_50\n        /* \"@openzeppelin/contracts@5.0.1/access/Ownable.sol\":2384:2385  0 */\n      0x00\n        /* \"@openzeppelin/contracts@5.0.1/access/Ownable.sol\":2357:2375  _transferOwnership */\n      tag_51\n        /* \"@openzeppelin/contracts@5.0.1/access/Ownable.sol\":2357:2387  _transferOwnership(address(0)) */\n      jump\t// in\n    tag_50:\n        /* \"@openzeppelin/contracts@5.0.1/access/Ownable.sol\":2293:2394  function renounceOwnership() public virtual onlyOwner {... */\n      jump\t// out\n        /* \"contracts/Market.sol\":1065:1759  function purchaseGoods(uint256 itemId, uint256 quantity) external {... */\n    tag_20:\n        /* \"contracts/Market.sol\":1175:1183  quantity */\n      dup1\n        /* \"contracts/Market.sol\":1149:1154  items */\n      0x03\n        /* \"contracts/Market.sol\":1149:1162  items[itemId] */\n      0x00\n        /* \"contracts/Market.sol\":1155:1161  itemId */\n      dup5\n        /* \"contracts/Market.sol\":1149:1162  items[itemId] */\n      dup2\n      mstore\n      0x20\n      add\n      swap1\n      dup2\n      mstore\n      0x20\n      add\n      0x00\n      keccak256\n        /* \"contracts/Market.sol\":1149:1171  items[itemId].quantity */\n      0x02\n      add\n      sload\n        /* \"contracts/Market.sol\":1149:1183  items[itemId].quantity >= quantity */\n      lt\n      iszero\n        /* \"contracts/Market.sol\":1141:1215  require(items[itemId].quantity >= quantity, \"Insufficient goods quantity\") */\n      tag_53\n      jumpi\n      mload(0x40)\n      0x08c379a000000000000000000000000000000000000000000000000000000000\n      dup2\n      mstore\n      0x04\n      add\n      tag_54\n      swap1\n      tag_55\n      jump\t// in\n    tag_54:\n      mload(0x40)\n      dup1\n      swap2\n      sub\n      swap1\n      revert\n    tag_53:\n        /* \"contracts/Market.sol\":1226:1244  uint256 totalPrice */\n      0x00\n        /* \"contracts/Market.sol\":1269:1277  quantity */\n      dup2\n        /* \"contracts/Market.sol\":1247:1252  items */\n      0x03\n        /* \"contracts/Market.sol\":1247:1260  items[itemId] */\n      0x00\n        /* \"contracts/Market.sol\":1253:1259  itemId */\n      dup6\n        /* \"contracts/Market.sol\":1247:1260  items[itemId] */\n      dup2\n      mstore\n      0x20\n      add\n      swap1\n      dup2\n      mstore\n      0x20\n      add\n      0x00\n      keccak256\n        /* \"contracts/Market.sol\":1247:1266  items[itemId].price */\n      0x01\n      add\n      sload\n        /* \"contracts/Market.sol\":1247:1277  items[itemId].price * quantity */\n      tag_56\n      swap2\n      swap1\n      tag_57\n      jump\t// in\n    tag_56:\n        /* \"contracts/Market.sol\":1226:1277  uint256 totalPrice = items[itemId].price * quantity */\n      swap1\n      pop\n        /* \"contracts/Market.sol\":1371:1381  totalPrice */\n      dup1\n        /* \"contracts/Market.sol\":1340:1345  token */\n      0x01\n      0x00\n      swap1\n      sload\n      swap1\n      0x0100\n      exp\n      swap1\n      div\n      0xffffffffffffffffffffffffffffffffffffffff\n      and\n        /* \"contracts/Market.sol\":1340:1355  token.balanceOf */\n      0xffffffffffffffffffffffffffffffffffffffff\n      and\n      0x70a08231\n        /* \"contracts/Market.sol\":1356:1366  msg.sender */\n      caller\n        /* \"contracts/Market.sol\":1340:1367  token.balanceOf(msg.sender) */\n      mload(0x40)\n      dup3\n      0xffffffff\n      and\n      0xe0\n      shl\n      dup2\n      mstore\n      0x04\n      add\n      tag_58\n      swap2\n      swap1\n      tag_24\n      jump\t// in\n    tag_58:\n      0x20\n      mload(0x40)\n      dup1\n      dup4\n      sub\n      dup2\n      dup7\n      gas\n      staticcall\n      iszero\n      dup1\n      iszero\n      tag_60\n      jumpi\n      returndatasize\n      0x00\n      dup1\n      returndatacopy\n      revert(0x00, returndatasize)\n    tag_60:\n      pop\n      pop\n      pop\n      pop\n      mload(0x40)\n      returndatasize\n      not(0x1f)\n      0x1f\n      dup3\n      add\n      and\n      dup3\n      add\n      dup1\n      0x40\n      mstore\n      pop\n      dup2\n      add\n      swap1\n      tag_61\n      swap2\n      swap1\n      tag_62\n      jump\t// in\n    tag_61:\n        /* \"contracts/Market.sol\":1340:1381  token.balanceOf(msg.sender) >= totalPrice */\n      lt\n      iszero\n        /* \"contracts/Market.sol\":1332:1404  require(token.balanceOf(msg.sender) >= totalPrice, \"Insufficient funds\") */\n      tag_63\n      jumpi\n      mload(0x40)\n      0x08c379a000000000000000000000000000000000000000000000000000000000\n      dup2\n      mstore\n      0x04\n      add\n      tag_64\n      swap1\n      tag_65\n      jump\t// in\n    tag_64:\n      mload(0x40)\n      dup1\n      swap2\n      sub\n      swap1\n      revert\n    tag_63:\n        /* \"contracts/Market.sol\":1446:1453  owner() */\n      tag_66\n        /* \"contracts/Market.sol\":1446:1451  owner */\n      tag_22\n        /* \"contracts/Market.sol\":1446:1453  owner() */\n      jump\t// in\n    tag_66:\n        /* \"contracts/Market.sol\":1423:1453  items[itemId].owner == owner() */\n      0xffffffffffffffffffffffffffffffffffffffff\n      and\n        /* \"contracts/Market.sol\":1423:1428  items */\n      0x03\n        /* \"contracts/Market.sol\":1423:1436  items[itemId] */\n      0x00\n        /* \"contracts/Market.sol\":1429:1435  itemId */\n      dup6\n        /* \"contracts/Market.sol\":1423:1436  items[itemId] */\n      dup2\n      mstore\n      0x20\n      add\n      swap1\n      dup2\n      mstore\n      0x20\n      add\n      0x00\n      keccak256\n        /* \"contracts/Market.sol\":1423:1442  items[itemId].owner */\n      0x03\n      add\n      0x00\n      swap1\n      sload\n      swap1\n      0x0100\n      exp\n      swap1\n      div\n      0xffffffffffffffffffffffffffffffffffffffff\n      and\n        /* \"contracts/Market.sol\":1423:1453  items[itemId].owner == owner() */\n      0xffffffffffffffffffffffffffffffffffffffff\n      and\n      eq\n        /* \"contracts/Market.sol\":1415:1473  require(items[itemId].owner == owner(), \"Incorrect owner\") */\n      tag_67\n      jumpi\n      mload(0x40)\n      0x08c379a000000000000000000000000000000000000000000000000000000000\n      dup2\n      mstore\n      0x04\n      add\n      tag_68\n      swap1\n      tag_69\n      jump\t// in\n    tag_68:\n      mload(0x40)\n      dup1\n      swap2\n      sub\n      swap1\n      revert\n    tag_67:\n        /* \"contracts/Market.sol\":1534:1539  token */\n      0x01\n      0x00\n      swap1\n      sload\n      swap1\n      0x0100\n      exp\n      swap1\n      div\n      0xffffffffffffffffffffffffffffffffffffffff\n      and\n        /* \"contracts/Market.sol\":1534:1552  token.transferFrom */\n      0xffffffffffffffffffffffffffffffffffffffff\n      and\n      0x23b872dd\n        /* \"contracts/Market.sol\":1553:1563  msg.sender */\n      caller\n        /* \"contracts/Market.sol\":1565:1572  owner() */\n      tag_70\n        /* \"contracts/Market.sol\":1565:1570  owner */\n      tag_22\n        /* \"contracts/Market.sol\":1565:1572  owner() */\n      jump\t// in\n    tag_70:\n        /* \"contracts/Market.sol\":1574:1584  totalPrice */\n      dup5\n        /* \"contracts/Market.sol\":1534:1585  token.transferFrom(msg.sender, owner(), totalPrice) */\n      mload(0x40)\n      dup5\n      0xffffffff\n      and\n      0xe0\n      shl\n      dup2\n      mstore\n      0x04\n      add\n      tag_71\n      swap4\n      swap3\n      swap2\n      swap1\n      tag_72\n      jump\t// in\n    tag_71:\n      0x20\n      mload(0x40)\n      dup1\n      dup4\n      sub\n      dup2\n      0x00\n      dup8\n      gas\n      call\n      iszero\n      dup1\n      iszero\n      tag_74\n      jumpi\n      returndatasize\n      0x00\n      dup1\n      returndatacopy\n      revert(0x00, returndatasize)\n    tag_74:\n      pop\n      pop\n      pop\n      pop\n      mload(0x40)\n      returndatasize\n      not(0x1f)\n      0x1f\n      dup3\n      add\n      and\n      dup3\n      add\n      dup1\n      0x40\n      mstore\n      pop\n      dup2\n      add\n      swap1\n      tag_75\n      swap2\n      swap1\n      tag_76\n      jump\t// in\n    tag_75:\n      pop\n        /* \"contracts/Market.sol\":1657:1665  quantity */\n      dup2\n        /* \"contracts/Market.sol\":1631:1636  items */\n      0x03\n        /* \"contracts/Market.sol\":1631:1644  items[itemId] */\n      0x00\n        /* \"contracts/Market.sol\":1637:1643  itemId */\n      dup6\n        /* \"contracts/Market.sol\":1631:1644  items[itemId] */\n      dup2\n      mstore\n      0x20\n      add\n      swap1\n      dup2\n      mstore\n      0x20\n      add\n      0x00\n      keccak256\n        /* \"contracts/Market.sol\":1631:1653  items[itemId].quantity */\n      0x02\n      add\n      0x00\n        /* \"contracts/Market.sol\":1631:1665  items[itemId].quantity -= quantity */\n      dup3\n      dup3\n      sload\n      tag_77\n      swap2\n      swap1\n      tag_78\n      jump\t// in\n    tag_77:\n      swap3\n      pop\n      pop\n      dup2\n      swap1\n      sstore\n      pop\n        /* \"contracts/Market.sol\":1723:1733  msg.sender */\n      caller\n        /* \"contracts/Market.sol\":1709:1752  ItemPurchased(msg.sender, itemId, quantity) */\n      0xffffffffffffffffffffffffffffffffffffffff\n      and\n      0x1452773cf753d0d7c71ed9990f7c7e2bdde4a2d08d187b3647953877e400488d\n        /* \"contracts/Market.sol\":1735:1741  itemId */\n      dup5\n        /* \"contracts/Market.sol\":1743:1751  quantity */\n      dup5\n        /* \"contracts/Market.sol\":1709:1752  ItemPurchased(msg.sender, itemId, quantity) */\n      mload(0x40)\n      tag_79\n      swap3\n      swap2\n      swap1\n      tag_80\n      jump\t// in\n    tag_79:\n      mload(0x40)\n      dup1\n      swap2\n      sub\n      swap1\n      log2\n        /* \"contracts/Market.sol\":1131:1759  {... */\n      pop\n        /* \"contracts/Market.sol\":1065:1759  function purchaseGoods(uint256 itemId, uint256 quantity) external {... */\n      pop\n      pop\n      jump\t// out\n        /* \"@openzeppelin/contracts@5.0.1/access/Ownable.sol\":1638:1723  function owner() public view virtual returns (address) {... */\n    tag_22:\n        /* \"@openzeppelin/contracts@5.0.1/access/Ownable.sol\":1684:1691  address */\n      0x00\n        /* \"@openzeppelin/contracts@5.0.1/access/Ownable.sol\":1710:1716  _owner */\n      dup1\n      0x00\n      swap1\n      sload\n      swap1\n      0x0100\n      exp\n      swap1\n      div\n      0xffffffffffffffffffffffffffffffffffffffff\n      and\n        /* \"@openzeppelin/contracts@5.0.1/access/Ownable.sol\":1703:1716  return _owner */\n      swap1\n      pop\n        /* \"@openzeppelin/contracts@5.0.1/access/Ownable.sol\":1638:1723  function owner() public view virtual returns (address) {... */\n      swap1\n      jump\t// out\n        /* \"contracts/Market.sol\":631:668  mapping(uint256 => Item) public items */\n    tag_28:\n      mstore(0x20, 0x03)\n      dup1\n      0x00\n      mstore\n      keccak256(0x00, 0x40)\n      0x00\n      swap2\n      pop\n      swap1\n      pop\n      dup1\n      0x00\n      add\n      dup1\n      sload\n      tag_82\n      swap1\n      tag_83\n      jump\t// in\n    tag_82:\n      dup1\n      0x1f\n      add\n      0x20\n      dup1\n      swap2\n      div\n      mul\n      0x20\n      add\n      mload(0x40)\n      swap1\n      dup2\n      add\n      0x40\n      mstore\n      dup1\n      swap3\n      swap2\n      swap1\n      dup2\n      dup2\n      mstore\n      0x20\n      add\n      dup3\n      dup1\n      sload\n      tag_84\n      swap1\n      tag_83\n      jump\t// in\n    tag_84:\n      dup1\n      iszero\n      tag_85\n      jumpi\n      dup1\n      0x1f\n      lt\n      tag_86\n      jumpi\n      0x0100\n      dup1\n      dup4\n      sload\n      div\n      mul\n      dup4\n      mstore\n      swap2\n      0x20\n      add\n      swap2\n      jump(tag_85)\n    tag_86:\n      dup3\n      add\n      swap2\n      swap1\n      0x00\n      mstore\n      keccak256(0x00, 0x20)\n      swap1\n    tag_87:\n      dup2\n      sload\n      dup2\n      mstore\n      swap1\n      0x01\n      add\n      swap1\n      0x20\n      add\n      dup1\n      dup4\n      gt\n      tag_87\n      jumpi\n      dup3\n      swap1\n      sub\n      0x1f\n      and\n      dup3\n      add\n      swap2\n    tag_85:\n      pop\n      pop\n      pop\n      pop\n      pop\n      swap1\n      dup1\n      0x01\n      add\n      sload\n      swap1\n      dup1\n      0x02\n      add\n      sload\n      swap1\n      dup1\n      0x03\n      add\n      0x00\n      swap1\n      sload\n      swap1\n      0x0100\n      exp\n      swap1\n      div\n      0xffffffffffffffffffffffffffffffffffffffff\n      and\n      swap1\n      pop\n      dup5\n      jump\t// out\n        /* \"@openzeppelin/contracts@5.0.1/access/Ownable.sol\":2543:2758  function transferOwnership(address newOwner) public virtual onlyOwner {... */\n    tag_34:\n        /* \"@openzeppelin/contracts@5.0.1/access/Ownable.sol\":1531:1544  _checkOwner() */\n      tag_89\n        /* \"@openzeppelin/contracts@5.0.1/access/Ownable.sol\":1531:1542  _checkOwner */\n      tag_41\n        /* \"@openzeppelin/contracts@5.0.1/access/Ownable.sol\":1531:1544  _checkOwner() */\n      jump\t// in\n    tag_89:\n        /* \"@openzeppelin/contracts@5.0.1/access/Ownable.sol\":2647:2648  0 */\n      0x00\n        /* \"@openzeppelin/contracts@5.0.1/access/Ownable.sol\":2627:2649  newOwner == address(0) */\n      0xffffffffffffffffffffffffffffffffffffffff\n      and\n        /* \"@openzeppelin/contracts@5.0.1/access/Ownable.sol\":2627:2635  newOwner */\n      dup2\n        /* \"@openzeppelin/contracts@5.0.1/access/Ownable.sol\":2627:2649  newOwner == address(0) */\n      0xffffffffffffffffffffffffffffffffffffffff\n      and\n      sub\n        /* \"@openzeppelin/contracts@5.0.1/access/Ownable.sol\":2623:2714  if (newOwner == address(0)) {... */\n      tag_91\n      jumpi\n        /* \"@openzeppelin/contracts@5.0.1/access/Ownable.sol\":2700:2701  0 */\n      0x00\n        /* \"@openzeppelin/contracts@5.0.1/access/Ownable.sol\":2672:2703  OwnableInvalidOwner(address(0)) */\n      mload(0x40)\n      0x1e4fbdf700000000000000000000000000000000000000000000000000000000\n      dup2\n      mstore\n      0x04\n      add\n      tag_92\n      swap2\n      swap1\n      tag_24\n      jump\t// in\n    tag_92:\n      mload(0x40)\n      dup1\n      swap2\n      sub\n      swap1\n      revert\n        /* \"@openzeppelin/contracts@5.0.1/access/Ownable.sol\":2623:2714  if (newOwner == address(0)) {... */\n    tag_91:\n        /* \"@openzeppelin/contracts@5.0.1/access/Ownable.sol\":2723:2751  _transferOwnership(newOwner) */\n      tag_93\n        /* \"@openzeppelin/contracts@5.0.1/access/Ownable.sol\":2742:2750  newOwner */\n      dup2\n        /* \"@openzeppelin/contracts@5.0.1/access/Ownable.sol\":2723:2741  _transferOwnership */\n      tag_51\n        /* \"@openzeppelin/contracts@5.0.1/access/Ownable.sol\":2723:2751  _transferOwnership(newOwner) */\n      jump\t// in\n    tag_93:\n        /* \"@openzeppelin/contracts@5.0.1/access/Ownable.sol\":2543:2758  function transferOwnership(address newOwner) public virtual onlyOwner {... */\n      pop\n      jump\t// out\n        /* \"contracts/Market.sol\":243:262  IERC20 public token */\n    tag_36:\n      0x01\n      0x00\n      swap1\n      sload\n      swap1\n      0x0100\n      exp\n      swap1\n      div\n      0xffffffffffffffffffffffffffffffffffffffff\n      and\n      dup2\n      jump\t// out\n        /* \"@openzeppelin/contracts@5.0.1/access/Ownable.sol\":1796:1958  function _checkOwner() internal view virtual {... */\n    tag_41:\n        /* \"@openzeppelin/contracts@5.0.1/access/Ownable.sol\":1866:1878  _msgSender() */\n      tag_95\n        /* \"@openzeppelin/contracts@5.0.1/access/Ownable.sol\":1866:1876  _msgSender */\n      tag_96\n        /* \"@openzeppelin/contracts@5.0.1/access/Ownable.sol\":1866:1878  _msgSender() */\n      jump\t// in\n    tag_95:\n        /* \"@openzeppelin/contracts@5.0.1/access/Ownable.sol\":1855:1878  owner() != _msgSender() */\n      0xffffffffffffffffffffffffffffffffffffffff\n      and\n        /* \"@openzeppelin/contracts@5.0.1/access/Ownable.sol\":1855:1862  owner() */\n      tag_97\n        /* \"@openzeppelin/contracts@5.0.1/access/Ownable.sol\":1855:1860  owner */\n      tag_22\n        /* \"@openzeppelin/contracts@5.0.1/access/Ownable.sol\":1855:1862  owner() */\n      jump\t// in\n    tag_97:\n        /* \"@openzeppelin/contracts@5.0.1/access/Ownable.sol\":1855:1878  owner() != _msgSender() */\n      0xffffffffffffffffffffffffffffffffffffffff\n      and\n      eq\n        /* \"@openzeppelin/contracts@5.0.1/access/Ownable.sol\":1851:1952  if (owner() != _msgSender()) {... */\n      tag_98\n      jumpi\n        /* \"@openzeppelin/contracts@5.0.1/access/Ownable.sol\":1928:1940  _msgSender() */\n      tag_99\n        /* \"@openzeppelin/contracts@5.0.1/access/Ownable.sol\":1928:1938  _msgSender */\n      tag_96\n        /* \"@openzeppelin/contracts@5.0.1/access/Ownable.sol\":1928:1940  _msgSender() */\n      jump\t// in\n    tag_99:\n        /* \"@openzeppelin/contracts@5.0.1/access/Ownable.sol\":1901:1941  OwnableUnauthorizedAccount(_msgSender()) */\n      mload(0x40)\n      0x118cdaa700000000000000000000000000000000000000000000000000000000\n      dup2\n      mstore\n      0x04\n      add\n      tag_100\n      swap2\n      swap1\n      tag_24\n      jump\t// in\n    tag_100:\n      mload(0x40)\n      dup1\n      swap2\n      sub\n      swap1\n      revert\n        /* \"@openzeppelin/contracts@5.0.1/access/Ownable.sol\":1851:1952  if (owner() != _msgSender()) {... */\n    tag_98:\n        /* \"@openzeppelin/contracts@5.0.1/access/Ownable.sol\":1796:1958  function _checkOwner() internal view virtual {... */\n      jump\t// out\n        /* \"@openzeppelin/contracts@5.0.1/access/Ownable.sol\":2912:3099  function _transferOwnership(address newOwner) internal virtual {... */\n    tag_51:\n        /* \"@openzeppelin/contracts@5.0.1/access/Ownable.sol\":2985:3001  address oldOwner */\n      0x00\n        /* \"@openzeppelin/contracts@5.0.1/access/Ownable.sol\":3004:3010  _owner */\n      dup1\n      0x00\n      swap1\n      sload\n      swap1\n      0x0100\n      exp\n      swap1\n      div\n      0xffffffffffffffffffffffffffffffffffffffff\n      and\n        /* \"@openzeppelin/contracts@5.0.1/access/Ownable.sol\":2985:3010  address oldOwner = _owner */\n      swap1\n      pop\n        /* \"@openzeppelin/contracts@5.0.1/access/Ownable.sol\":3029:3037  newOwner */\n      dup2\n        /* \"@openzeppelin/contracts@5.0.1/access/Ownable.sol\":3020:3026  _owner */\n      0x00\n      dup1\n        /* \"@openzeppelin/contracts@5.0.1/access/Ownable.sol\":3020:3037  _owner = newOwner */\n      0x0100\n      exp\n      dup2\n      sload\n      dup2\n      0xffffffffffffffffffffffffffffffffffffffff\n      mul\n      not\n      and\n      swap1\n      dup4\n      0xffffffffffffffffffffffffffffffffffffffff\n      and\n      mul\n      or\n      swap1\n      sstore\n      pop\n        /* \"@openzeppelin/contracts@5.0.1/access/Ownable.sol\":3083:3091  newOwner */\n      dup2\n        /* \"@openzeppelin/contracts@5.0.1/access/Ownable.sol\":3052:3092  OwnershipTransferred(oldOwner, newOwner) */\n      0xffffffffffffffffffffffffffffffffffffffff\n      and\n        /* \"@openzeppelin/contracts@5.0.1/access/Ownable.sol\":3073:3081  oldOwner */\n      dup2\n        /* \"@openzeppelin/contracts@5.0.1/access/Ownable.sol\":3052:3092  OwnershipTransferred(oldOwner, newOwner) */\n      0xffffffffffffffffffffffffffffffffffffffff\n      and\n      0x8be0079c531659141344cd1fd0a4f28419497f9722a3daafe3b4186f6b6457e0\n      mload(0x40)\n      mload(0x40)\n      dup1\n      swap2\n      sub\n      swap1\n      log3\n        /* \"@openzeppelin/contracts@5.0.1/access/Ownable.sol\":2975:3099  {... */\n      pop\n        /* \"@openzeppelin/contracts@5.0.1/access/Ownable.sol\":2912:3099  function _transferOwnership(address newOwner) internal virtual {... */\n      pop\n      jump\t// out\n        /* \"@openzeppelin/contracts@5.0.1/utils/Context.sol\":656:752  function _msgSender() internal view virtual returns (address) {... */\n    tag_96:\n        /* \"@openzeppelin/contracts@5.0.1/utils/Context.sol\":709:716  address */\n      0x00\n        /* \"@openzeppelin/contracts@5.0.1/utils/Context.sol\":735:745  msg.sender */\n      caller\n        /* \"@openzeppelin/contracts@5.0.1/utils/Context.sol\":728:745  return msg.sender */\n      swap1\n      pop\n        /* \"@openzeppelin/contracts@5.0.1/utils/Context.sol\":656:752  function _msgSender() internal view virtual returns (address) {... */\n      swap1\n      jump\t// out\n        /* \"#utility.yul\":7:82   */\n    tag_103:\n        /* \"#utility.yul\":40:46   */\n      0x00\n        /* \"#utility.yul\":73:75   */\n      0x40\n        /* \"#utility.yul\":67:76   */\n      mload\n        /* \"#utility.yul\":57:76   */\n      swap1\n      pop\n        /* \"#utility.yul\":7:82   */\n      swap1\n      jump\t// out\n        /* \"#utility.yul\":88:205   */\n    tag_104:\n        /* \"#utility.yul\":197:198   */\n      0x00\n        /* \"#utility.yul\":194:195   */\n      dup1\n        /* \"#utility.yul\":187:199   */\n      revert\n        /* \"#utility.yul\":211:328   */\n    tag_105:\n        /* \"#utility.yul\":320:321   */\n      0x00\n        /* \"#utility.yul\":317:318   */\n      dup1\n        /* \"#utility.yul\":310:322   */\n      revert\n        /* \"#utility.yul\":334:451   */\n    tag_106:\n        /* \"#utility.yul\":443:444   */\n      0x00\n        /* \"#utility.yul\":440:441   */\n      dup1\n        /* \"#utility.yul\":433:445   */\n      revert\n        /* \"#utility.yul\":457:574   */\n    tag_107:\n        /* \"#utility.yul\":566:567   */\n      0x00\n        /* \"#utility.yul\":563:564   */\n      dup1\n        /* \"#utility.yul\":556:568   */\n      revert\n        /* \"#utility.yul\":580:682   */\n    tag_108:\n        /* \"#utility.yul\":621:627   */\n      0x00\n        /* \"#utility.yul\":672:674   */\n      0x1f\n        /* \"#utility.yul\":668:675   */\n      not\n        /* \"#utility.yul\":663:665   */\n      0x1f\n        /* \"#utility.yul\":656:661   */\n      dup4\n        /* \"#utility.yul\":652:666   */\n      add\n        /* \"#utility.yul\":648:676   */\n      and\n        /* \"#utility.yul\":638:676   */\n      swap1\n      pop\n        /* \"#utility.yul\":580:682   */\n      swap2\n      swap1\n      pop\n      jump\t// out\n        /* \"#utility.yul\":688:868   */\n    tag_109:\n        /* \"#utility.yul\":736:813   */\n      0x4e487b7100000000000000000000000000000000000000000000000000000000\n        /* \"#utility.yul\":733:734   */\n      0x00\n        /* \"#utility.yul\":726:814   */\n      mstore\n        /* \"#utility.yul\":833:837   */\n      0x41\n        /* \"#utility.yul\":830:831   */\n      0x04\n        /* \"#utility.yul\":823:838   */\n      mstore\n        /* \"#utility.yul\":857:861   */\n      0x24\n        /* \"#utility.yul\":854:855   */\n      0x00\n        /* \"#utility.yul\":847:862   */\n      revert\n        /* \"#utility.yul\":874:1155   */\n    tag_110:\n        /* \"#utility.yul\":957:984   */\n      tag_169\n        /* \"#utility.yul\":979:983   */\n      dup3\n        /* \"#utility.yul\":957:984   */\n      tag_108\n      jump\t// in\n    tag_169:\n        /* \"#utility.yul\":949:955   */\n      dup2\n        /* \"#utility.yul\":945:985   */\n      add\n        /* \"#utility.yul\":1087:1093   */\n      dup2\n        /* \"#utility.yul\":1075:1085   */\n      dup2\n        /* \"#utility.yul\":1072:1094   */\n      lt\n        /* \"#utility.yul\":1051:1069   */\n      0xffffffffffffffff\n        /* \"#utility.yul\":1039:1049   */\n      dup3\n        /* \"#utility.yul\":1036:1070   */\n      gt\n        /* \"#utility.yul\":1033:1095   */\n      or\n        /* \"#utility.yul\":1030:1118   */\n      iszero\n      tag_170\n      jumpi\n        /* \"#utility.yul\":1098:1116   */\n      tag_171\n      tag_109\n      jump\t// in\n    tag_171:\n        /* \"#utility.yul\":1030:1118   */\n    tag_170:\n        /* \"#utility.yul\":1138:1148   */\n      dup1\n        /* \"#utility.yul\":1134:1136   */\n      0x40\n        /* \"#utility.yul\":1127:1149   */\n      mstore\n        /* \"#utility.yul\":917:1155   */\n      pop\n        /* \"#utility.yul\":874:1155   */\n      pop\n      pop\n      jump\t// out\n        /* \"#utility.yul\":1161:1290   */\n    tag_111:\n        /* \"#utility.yul\":1195:1201   */\n      0x00\n        /* \"#utility.yul\":1222:1242   */\n      tag_173\n      tag_103\n      jump\t// in\n    tag_173:\n        /* \"#utility.yul\":1212:1242   */\n      swap1\n      pop\n        /* \"#utility.yul\":1251:1284   */\n      tag_174\n        /* \"#utility.yul\":1279:1283   */\n      dup3\n        /* \"#utility.yul\":1271:1277   */\n      dup3\n        /* \"#utility.yul\":1251:1284   */\n      tag_110\n      jump\t// in\n    tag_174:\n        /* \"#utility.yul\":1161:1290   */\n      swap2\n      swap1\n      pop\n      jump\t// out\n        /* \"#utility.yul\":1296:1604   */\n    tag_112:\n        /* \"#utility.yul\":1358:1362   */\n      0x00\n        /* \"#utility.yul\":1448:1466   */\n      0xffffffffffffffff\n        /* \"#utility.yul\":1440:1446   */\n      dup3\n        /* \"#utility.yul\":1437:1467   */\n      gt\n        /* \"#utility.yul\":1434:1490   */\n      iszero\n      tag_176\n      jumpi\n        /* \"#utility.yul\":1470:1488   */\n      tag_177\n      tag_109\n      jump\t// in\n    tag_177:\n        /* \"#utility.yul\":1434:1490   */\n    tag_176:\n        /* \"#utility.yul\":1508:1537   */\n      tag_178\n        /* \"#utility.yul\":1530:1536   */\n      dup3\n        /* \"#utility.yul\":1508:1537   */\n      tag_108\n      jump\t// in\n    tag_178:\n        /* \"#utility.yul\":1500:1537   */\n      swap1\n      pop\n        /* \"#utility.yul\":1592:1596   */\n      0x20\n        /* \"#utility.yul\":1586:1590   */\n      dup2\n        /* \"#utility.yul\":1582:1597   */\n      add\n        /* \"#utility.yul\":1574:1597   */\n      swap1\n      pop\n        /* \"#utility.yul\":1296:1604   */\n      swap2\n      swap1\n      pop\n      jump\t// out\n        /* \"#utility.yul\":1610:1756   */\n    tag_113:\n        /* \"#utility.yul\":1707:1713   */\n      dup3\n        /* \"#utility.yul\":1702:1705   */\n      dup2\n        /* \"#utility.yul\":1697:1700   */\n      dup4\n        /* \"#utility.yul\":1684:1714   */\n      calldatacopy\n        /* \"#utility.yul\":1748:1749   */\n      0x00\n        /* \"#utility.yul\":1739:1745   */\n      dup4\n        /* \"#utility.yul\":1734:1737   */\n      dup4\n        /* \"#utility.yul\":1730:1746   */\n      add\n        /* \"#utility.yul\":1723:1750   */\n      mstore\n        /* \"#utility.yul\":1610:1756   */\n      pop\n      pop\n      pop\n      jump\t// out\n        /* \"#utility.yul\":1762:2187   */\n    tag_114:\n        /* \"#utility.yul\":1840:1845   */\n      0x00\n        /* \"#utility.yul\":1865:1931   */\n      tag_181\n        /* \"#utility.yul\":1881:1930   */\n      tag_182\n        /* \"#utility.yul\":1923:1929   */\n      dup5\n        /* \"#utility.yul\":1881:1930   */\n      tag_112\n      jump\t// in\n    tag_182:\n        /* \"#utility.yul\":1865:1931   */\n      tag_111\n      jump\t// in\n    tag_181:\n        /* \"#utility.yul\":1856:1931   */\n      swap1\n      pop\n        /* \"#utility.yul\":1954:1960   */\n      dup3\n        /* \"#utility.yul\":1947:1952   */\n      dup2\n        /* \"#utility.yul\":1940:1961   */\n      mstore\n        /* \"#utility.yul\":1992:1996   */\n      0x20\n        /* \"#utility.yul\":1985:1990   */\n      dup2\n        /* \"#utility.yul\":1981:1997   */\n      add\n        /* \"#utility.yul\":2030:2033   */\n      dup5\n        /* \"#utility.yul\":2021:2027   */\n      dup5\n        /* \"#utility.yul\":2016:2019   */\n      dup5\n        /* \"#utility.yul\":2012:2028   */\n      add\n        /* \"#utility.yul\":2009:2034   */\n      gt\n        /* \"#utility.yul\":2006:2118   */\n      iszero\n      tag_183\n      jumpi\n        /* \"#utility.yul\":2037:2116   */\n      tag_184\n      tag_107\n      jump\t// in\n    tag_184:\n        /* \"#utility.yul\":2006:2118   */\n    tag_183:\n        /* \"#utility.yul\":2127:2181   */\n      tag_185\n        /* \"#utility.yul\":2174:2180   */\n      dup5\n        /* \"#utility.yul\":2169:2172   */\n      dup3\n        /* \"#utility.yul\":2164:2167   */\n      dup6\n        /* \"#utility.yul\":2127:2181   */\n      tag_113\n      jump\t// in\n    tag_185:\n        /* \"#utility.yul\":1846:2187   */\n      pop\n        /* \"#utility.yul\":1762:2187   */\n      swap4\n      swap3\n      pop\n      pop\n      pop\n      jump\t// out\n        /* \"#utility.yul\":2207:2547   */\n    tag_115:\n        /* \"#utility.yul\":2263:2268   */\n      0x00\n        /* \"#utility.yul\":2312:2315   */\n      dup3\n        /* \"#utility.yul\":2305:2309   */\n      0x1f\n        /* \"#utility.yul\":2297:2303   */\n      dup4\n        /* \"#utility.yul\":2293:2310   */\n      add\n        /* \"#utility.yul\":2289:2316   */\n      slt\n        /* \"#utility.yul\":2279:2401   */\n      tag_187\n      jumpi\n        /* \"#utility.yul\":2320:2399   */\n      tag_188\n      tag_106\n      jump\t// in\n    tag_188:\n        /* \"#utility.yul\":2279:2401   */\n    tag_187:\n        /* \"#utility.yul\":2437:2443   */\n      dup2\n        /* \"#utility.yul\":2424:2444   */\n      calldataload\n        /* \"#utility.yul\":2462:2541   */\n      tag_189\n        /* \"#utility.yul\":2537:2540   */\n      dup5\n        /* \"#utility.yul\":2529:2535   */\n      dup3\n        /* \"#utility.yul\":2522:2526   */\n      0x20\n        /* \"#utility.yul\":2514:2520   */\n      dup7\n        /* \"#utility.yul\":2510:2527   */\n      add\n        /* \"#utility.yul\":2462:2541   */\n      tag_114\n      jump\t// in\n    tag_189:\n        /* \"#utility.yul\":2453:2541   */\n      swap2\n      pop\n        /* \"#utility.yul\":2269:2547   */\n      pop\n        /* \"#utility.yul\":2207:2547   */\n      swap3\n      swap2\n      pop\n      pop\n      jump\t// out\n        /* \"#utility.yul\":2553:2630   */\n    tag_116:\n        /* \"#utility.yul\":2590:2597   */\n      0x00\n        /* \"#utility.yul\":2619:2624   */\n      dup2\n        /* \"#utility.yul\":2608:2624   */\n      swap1\n      pop\n        /* \"#utility.yul\":2553:2630   */\n      swap2\n      swap1\n      pop\n      jump\t// out\n        /* \"#utility.yul\":2636:2758   */\n    tag_117:\n        /* \"#utility.yul\":2709:2733   */\n      tag_192\n        /* \"#utility.yul\":2727:2732   */\n      dup2\n        /* \"#utility.yul\":2709:2733   */\n      tag_116\n      jump\t// in\n    tag_192:\n        /* \"#utility.yul\":2702:2707   */\n      dup2\n        /* \"#utility.yul\":2699:2734   */\n      eq\n        /* \"#utility.yul\":2689:2752   */\n      tag_193\n      jumpi\n        /* \"#utility.yul\":2748:2749   */\n      0x00\n        /* \"#utility.yul\":2745:2746   */\n      dup1\n        /* \"#utility.yul\":2738:2750   */\n      revert\n        /* \"#utility.yul\":2689:2752   */\n    tag_193:\n        /* \"#utility.yul\":2636:2758   */\n      pop\n      jump\t// out\n        /* \"#utility.yul\":2764:2903   */\n    tag_118:\n        /* \"#utility.yul\":2810:2815   */\n      0x00\n        /* \"#utility.yul\":2848:2854   */\n      dup2\n        /* \"#utility.yul\":2835:2855   */\n      calldataload\n        /* \"#utility.yul\":2826:2855   */\n      swap1\n      pop\n        /* \"#utility.yul\":2864:2897   */\n      tag_195\n        /* \"#utility.yul\":2891:2896   */\n      dup2\n        /* \"#utility.yul\":2864:2897   */\n      tag_117\n      jump\t// in\n    tag_195:\n        /* \"#utility.yul\":2764:2903   */\n      swap3\n      swap2\n      pop\n      pop\n      jump\t// out\n        /* \"#utility.yul\":2909:3708   */\n    tag_13:\n        /* \"#utility.yul\":2996:3002   */\n      0x00\n        /* \"#utility.yul\":3004:3010   */\n      dup1\n        /* \"#utility.yul\":3012:3018   */\n      0x00\n        /* \"#utility.yul\":3061:3063   */\n      0x60\n        /* \"#utility.yul\":3049:3058   */\n      dup5\n        /* \"#utility.yul\":3040:3047   */\n      dup7\n        /* \"#utility.yul\":3036:3059   */\n      sub\n        /* \"#utility.yul\":3032:3064   */\n      slt\n        /* \"#utility.yul\":3029:3148   */\n      iszero\n      tag_197\n      jumpi\n        /* \"#utility.yul\":3067:3146   */\n      tag_198\n      tag_104\n      jump\t// in\n    tag_198:\n        /* \"#utility.yul\":3029:3148   */\n    tag_197:\n        /* \"#utility.yul\":3215:3216   */\n      0x00\n        /* \"#utility.yul\":3204:3213   */\n      dup5\n        /* \"#utility.yul\":3200:3217   */\n      add\n        /* \"#utility.yul\":3187:3218   */\n      calldataload\n        /* \"#utility.yul\":3245:3263   */\n      0xffffffffffffffff\n        /* \"#utility.yul\":3237:3243   */\n      dup2\n        /* \"#utility.yul\":3234:3264   */\n      gt\n        /* \"#utility.yul\":3231:3348   */\n      iszero\n      tag_199\n      jumpi\n        /* \"#utility.yul\":3267:3346   */\n      tag_200\n      tag_105\n      jump\t// in\n    tag_200:\n        /* \"#utility.yul\":3231:3348   */\n    tag_199:\n        /* \"#utility.yul\":3372:3435   */\n      tag_201\n        /* \"#utility.yul\":3427:3434   */\n      dup7\n        /* \"#utility.yul\":3418:3424   */\n      dup3\n        /* \"#utility.yul\":3407:3416   */\n      dup8\n        /* \"#utility.yul\":3403:3425   */\n      add\n        /* \"#utility.yul\":3372:3435   */\n      tag_115\n      jump\t// in\n    tag_201:\n        /* \"#utility.yul\":3362:3435   */\n      swap4\n      pop\n        /* \"#utility.yul\":3158:3445   */\n      pop\n        /* \"#utility.yul\":3484:3486   */\n      0x20\n        /* \"#utility.yul\":3510:3563   */\n      tag_202\n        /* \"#utility.yul\":3555:3562   */\n      dup7\n        /* \"#utility.yul\":3546:3552   */\n      dup3\n        /* \"#utility.yul\":3535:3544   */\n      dup8\n        /* \"#utility.yul\":3531:3553   */\n      add\n        /* \"#utility.yul\":3510:3563   */\n      tag_118\n      jump\t// in\n    tag_202:\n        /* \"#utility.yul\":3500:3563   */\n      swap3\n      pop\n        /* \"#utility.yul\":3455:3573   */\n      pop\n        /* \"#utility.yul\":3612:3614   */\n      0x40\n        /* \"#utility.yul\":3638:3691   */\n      tag_203\n        /* \"#utility.yul\":3683:3690   */\n      dup7\n        /* \"#utility.yul\":3674:3680   */\n      dup3\n        /* \"#utility.yul\":3663:3672   */\n      dup8\n        /* \"#utility.yul\":3659:3681   */\n      add\n        /* \"#utility.yul\":3638:3691   */\n      tag_118\n      jump\t// in\n    tag_203:\n        /* \"#utility.yul\":3628:3691   */\n      swap2\n      pop\n        /* \"#utility.yul\":3583:3701   */\n      pop\n        /* \"#utility.yul\":2909:3708   */\n      swap3\n      pop\n      swap3\n      pop\n      swap3\n      jump\t// out\n        /* \"#utility.yul\":3714:4188   */\n    tag_19:\n        /* \"#utility.yul\":3782:3788   */\n      0x00\n        /* \"#utility.yul\":3790:3796   */\n      dup1\n        /* \"#utility.yul\":3839:3841   */\n      0x40\n        /* \"#utility.yul\":3827:3836   */\n      dup4\n        /* \"#utility.yul\":3818:3825   */\n      dup6\n        /* \"#utility.yul\":3814:3837   */\n      sub\n        /* \"#utility.yul\":3810:3842   */\n      slt\n        /* \"#utility.yul\":3807:3926   */\n      iszero\n      tag_205\n      jumpi\n        /* \"#utility.yul\":3845:3924   */\n      tag_206\n      tag_104\n      jump\t// in\n    tag_206:\n        /* \"#utility.yul\":3807:3926   */\n    tag_205:\n        /* \"#utility.yul\":3965:3966   */\n      0x00\n        /* \"#utility.yul\":3990:4043   */\n      tag_207\n        /* \"#utility.yul\":4035:4042   */\n      dup6\n        /* \"#utility.yul\":4026:4032   */\n      dup3\n        /* \"#utility.yul\":4015:4024   */\n      dup7\n        /* \"#utility.yul\":4011:4033   */\n      add\n        /* \"#utility.yul\":3990:4043   */\n      tag_118\n      jump\t// in\n    tag_207:\n        /* \"#utility.yul\":3980:4043   */\n      swap3\n      pop\n        /* \"#utility.yul\":3936:4053   */\n      pop\n        /* \"#utility.yul\":4092:4094   */\n      0x20\n        /* \"#utility.yul\":4118:4171   */\n      tag_208\n        /* \"#utility.yul\":4163:4170   */\n      dup6\n        /* \"#utility.yul\":4154:4160   */\n      dup3\n        /* \"#utility.yul\":4143:4152   */\n      dup7\n        /* \"#utility.yul\":4139:4161   */\n      add\n        /* \"#utility.yul\":4118:4171   */\n      tag_118\n      jump\t// in\n    tag_208:\n        /* \"#utility.yul\":4108:4171   */\n      swap2\n      pop\n        /* \"#utility.yul\":4063:4181   */\n      pop\n        /* \"#utility.yul\":3714:4188   */\n      swap3\n      pop\n      swap3\n      swap1\n      pop\n      jump\t// out\n        /* \"#utility.yul\":4194:4320   */\n    tag_119:\n        /* \"#utility.yul\":4231:4238   */\n      0x00\n        /* \"#utility.yul\":4271:4313   */\n      0xffffffffffffffffffffffffffffffffffffffff\n        /* \"#utility.yul\":4264:4269   */\n      dup3\n        /* \"#utility.yul\":4260:4314   */\n      and\n        /* \"#utility.yul\":4249:4314   */\n      swap1\n      pop\n        /* \"#utility.yul\":4194:4320   */\n      swap2\n      swap1\n      pop\n      jump\t// out\n        /* \"#utility.yul\":4326:4422   */\n    tag_120:\n        /* \"#utility.yul\":4363:4370   */\n      0x00\n        /* \"#utility.yul\":4392:4416   */\n      tag_211\n        /* \"#utility.yul\":4410:4415   */\n      dup3\n        /* \"#utility.yul\":4392:4416   */\n      tag_119\n      jump\t// in\n    tag_211:\n        /* \"#utility.yul\":4381:4416   */\n      swap1\n      pop\n        /* \"#utility.yul\":4326:4422   */\n      swap2\n      swap1\n      pop\n      jump\t// out\n        /* \"#utility.yul\":4428:4546   */\n    tag_121:\n        /* \"#utility.yul\":4515:4539   */\n      tag_213\n        /* \"#utility.yul\":4533:4538   */\n      dup2\n        /* \"#utility.yul\":4515:4539   */\n      tag_120\n      jump\t// in\n    tag_213:\n        /* \"#utility.yul\":4510:4513   */\n      dup3\n        /* \"#utility.yul\":4503:4540   */\n      mstore\n        /* \"#utility.yul\":4428:4546   */\n      pop\n      pop\n      jump\t// out\n        /* \"#utility.yul\":4552:4774   */\n    tag_24:\n        /* \"#utility.yul\":4645:4649   */\n      0x00\n        /* \"#utility.yul\":4683:4685   */\n      0x20\n        /* \"#utility.yul\":4672:4681   */\n      dup3\n        /* \"#utility.yul\":4668:4686   */\n      add\n        /* \"#utility.yul\":4660:4686   */\n      swap1\n      pop\n        /* \"#utility.yul\":4696:4767   */\n      tag_215\n        /* \"#utility.yul\":4764:4765   */\n      0x00\n        /* \"#utility.yul\":4753:4762   */\n      dup4\n        /* \"#utility.yul\":4749:4766   */\n      add\n        /* \"#utility.yul\":4740:4746   */\n      dup5\n        /* \"#utility.yul\":4696:4767   */\n      tag_121\n      jump\t// in\n    tag_215:\n        /* \"#utility.yul\":4552:4774   */\n      swap3\n      swap2\n      pop\n      pop\n      jump\t// out\n        /* \"#utility.yul\":4780:5109   */\n    tag_27:\n        /* \"#utility.yul\":4839:4845   */\n      0x00\n        /* \"#utility.yul\":4888:4890   */\n      0x20\n        /* \"#utility.yul\":4876:4885   */\n      dup3\n        /* \"#utility.yul\":4867:4874   */\n      dup5\n        /* \"#utility.yul\":4863:4886   */\n      sub\n        /* \"#utility.yul\":4859:4891   */\n      slt\n        /* \"#utility.yul\":4856:4975   */\n      iszero\n      tag_217\n      jumpi\n        /* \"#utility.yul\":4894:4973   */\n      tag_218\n      tag_104\n      jump\t// in\n    tag_218:\n        /* \"#utility.yul\":4856:4975   */\n    tag_217:\n        /* \"#utility.yul\":5014:5015   */\n      0x00\n        /* \"#utility.yul\":5039:5092   */\n      tag_219\n        /* \"#utility.yul\":5084:5091   */\n      dup5\n        /* \"#utility.yul\":5075:5081   */\n      dup3\n        /* \"#utility.yul\":5064:5073   */\n      dup6\n        /* \"#utility.yul\":5060:5082   */\n      add\n        /* \"#utility.yul\":5039:5092   */\n      tag_118\n      jump\t// in\n    tag_219:\n        /* \"#utility.yul\":5029:5092   */\n      swap2\n      pop\n        /* \"#utility.yul\":4985:5102   */\n      pop\n        /* \"#utility.yul\":4780:5109   */\n      swap3\n      swap2\n      pop\n      pop\n      jump\t// out\n        /* \"#utility.yul\":5115:5214   */\n    tag_122:\n        /* \"#utility.yul\":5167:5173   */\n      0x00\n        /* \"#utility.yul\":5201:5206   */\n      dup2\n        /* \"#utility.yul\":5195:5207   */\n      mload\n        /* \"#utility.yul\":5185:5207   */\n      swap1\n      pop\n        /* \"#utility.yul\":5115:5214   */\n      swap2\n      swap1\n      pop\n      jump\t// out\n        /* \"#utility.yul\":5220:5389   */\n    tag_123:\n        /* \"#utility.yul\":5304:5315   */\n      0x00\n        /* \"#utility.yul\":5338:5344   */\n      dup3\n        /* \"#utility.yul\":5333:5336   */\n      dup3\n        /* \"#utility.yul\":5326:5345   */\n      mstore\n        /* \"#utility.yul\":5378:5382   */\n      0x20\n        /* \"#utility.yul\":5373:5376   */\n      dup3\n        /* \"#utility.yul\":5369:5383   */\n      add\n        /* \"#utility.yul\":5354:5383   */\n      swap1\n      pop\n        /* \"#utility.yul\":5220:5389   */\n      swap3\n      swap2\n      pop\n      pop\n      jump\t// out\n        /* \"#utility.yul\":5395:5641   */\n    tag_124:\n        /* \"#utility.yul\":5476:5477   */\n      0x00\n        /* \"#utility.yul\":5486:5599   */\n    tag_223:\n        /* \"#utility.yul\":5500:5506   */\n      dup4\n        /* \"#utility.yul\":5497:5498   */\n      dup2\n        /* \"#utility.yul\":5494:5507   */\n      lt\n        /* \"#utility.yul\":5486:5599   */\n      iszero\n      tag_225\n      jumpi\n        /* \"#utility.yul\":5585:5586   */\n      dup1\n        /* \"#utility.yul\":5580:5583   */\n      dup3\n        /* \"#utility.yul\":5576:5587   */\n      add\n        /* \"#utility.yul\":5570:5588   */\n      mload\n        /* \"#utility.yul\":5566:5567   */\n      dup2\n        /* \"#utility.yul\":5561:5564   */\n      dup5\n        /* \"#utility.yul\":5557:5568   */\n      add\n        /* \"#utility.yul\":5550:5589   */\n      mstore\n        /* \"#utility.yul\":5522:5524   */\n      0x20\n        /* \"#utility.yul\":5519:5520   */\n      dup2\n        /* \"#utility.yul\":5515:5525   */\n      add\n        /* \"#utility.yul\":5510:5525   */\n      swap1\n      pop\n        /* \"#utility.yul\":5486:5599   */\n      jump(tag_223)\n    tag_225:\n        /* \"#utility.yul\":5633:5634   */\n      0x00\n        /* \"#utility.yul\":5624:5630   */\n      dup5\n        /* \"#utility.yul\":5619:5622   */\n      dup5\n        /* \"#utility.yul\":5615:5631   */\n      add\n        /* \"#utility.yul\":5608:5635   */\n      mstore\n        /* \"#utility.yul\":5457:5641   */\n      pop\n        /* \"#utility.yul\":5395:5641   */\n      pop\n      pop\n      pop\n      jump\t// out\n        /* \"#utility.yul\":5647:6024   */\n    tag_125:\n        /* \"#utility.yul\":5735:5738   */\n      0x00\n        /* \"#utility.yul\":5763:5802   */\n      tag_227\n        /* \"#utility.yul\":5796:5801   */\n      dup3\n        /* \"#utility.yul\":5763:5802   */\n      tag_122\n      jump\t// in\n    tag_227:\n        /* \"#utility.yul\":5818:5889   */\n      tag_228\n        /* \"#utility.yul\":5882:5888   */\n      dup2\n        /* \"#utility.yul\":5877:5880   */\n      dup6\n        /* \"#utility.yul\":5818:5889   */\n      tag_123\n      jump\t// in\n    tag_228:\n        /* \"#utility.yul\":5811:5889   */\n      swap4\n      pop\n        /* \"#utility.yul\":5898:5963   */\n      tag_229\n        /* \"#utility.yul\":5956:5962   */\n      dup2\n        /* \"#utility.yul\":5951:5954   */\n      dup6\n        /* \"#utility.yul\":5944:5948   */\n      0x20\n        /* \"#utility.yul\":5937:5942   */\n      dup7\n        /* \"#utility.yul\":5933:5949   */\n      add\n        /* \"#utility.yul\":5898:5963   */\n      tag_124\n      jump\t// in\n    tag_229:\n        /* \"#utility.yul\":5988:6017   */\n      tag_230\n        /* \"#utility.yul\":6010:6016   */\n      dup2\n        /* \"#utility.yul\":5988:6017   */\n      tag_108\n      jump\t// in\n    tag_230:\n        /* \"#utility.yul\":5983:5986   */\n      dup5\n        /* \"#utility.yul\":5979:6018   */\n      add\n        /* \"#utility.yul\":5972:6018   */\n      swap2\n      pop\n        /* \"#utility.yul\":5739:6024   */\n      pop\n        /* \"#utility.yul\":5647:6024   */\n      swap3\n      swap2\n      pop\n      pop\n      jump\t// out\n        /* \"#utility.yul\":6030:6148   */\n    tag_126:\n        /* \"#utility.yul\":6117:6141   */\n      tag_232\n        /* \"#utility.yul\":6135:6140   */\n      dup2\n        /* \"#utility.yul\":6117:6141   */\n      tag_116\n      jump\t// in\n    tag_232:\n        /* \"#utility.yul\":6112:6115   */\n      dup3\n        /* \"#utility.yul\":6105:6142   */\n      mstore\n        /* \"#utility.yul\":6030:6148   */\n      pop\n      pop\n      jump\t// out\n        /* \"#utility.yul\":6154:6798   */\n    tag_30:\n        /* \"#utility.yul\":6351:6355   */\n      0x00\n        /* \"#utility.yul\":6389:6392   */\n      0x80\n        /* \"#utility.yul\":6378:6387   */\n      dup3\n        /* \"#utility.yul\":6374:6393   */\n      add\n        /* \"#utility.yul\":6366:6393   */\n      swap1\n      pop\n        /* \"#utility.yul\":6439:6448   */\n      dup2\n        /* \"#utility.yul\":6433:6437   */\n      dup2\n        /* \"#utility.yul\":6429:6449   */\n      sub\n        /* \"#utility.yul\":6425:6426   */\n      0x00\n        /* \"#utility.yul\":6414:6423   */\n      dup4\n        /* \"#utility.yul\":6410:6427   */\n      add\n        /* \"#utility.yul\":6403:6450   */\n      mstore\n        /* \"#utility.yul\":6467:6545   */\n      tag_234\n        /* \"#utility.yul\":6540:6544   */\n      dup2\n        /* \"#utility.yul\":6531:6537   */\n      dup8\n        /* \"#utility.yul\":6467:6545   */\n      tag_125\n      jump\t// in\n    tag_234:\n        /* \"#utility.yul\":6459:6545   */\n      swap1\n      pop\n        /* \"#utility.yul\":6555:6627   */\n      tag_235\n        /* \"#utility.yul\":6623:6625   */\n      0x20\n        /* \"#utility.yul\":6612:6621   */\n      dup4\n        /* \"#utility.yul\":6608:6626   */\n      add\n        /* \"#utility.yul\":6599:6605   */\n      dup7\n        /* \"#utility.yul\":6555:6627   */\n      tag_126\n      jump\t// in\n    tag_235:\n        /* \"#utility.yul\":6637:6709   */\n      tag_236\n        /* \"#utility.yul\":6705:6707   */\n      0x40\n        /* \"#utility.yul\":6694:6703   */\n      dup4\n        /* \"#utility.yul\":6690:6708   */\n      add\n        /* \"#utility.yul\":6681:6687   */\n      dup6\n        /* \"#utility.yul\":6637:6709   */\n      tag_126\n      jump\t// in\n    tag_236:\n        /* \"#utility.yul\":6719:6791   */\n      tag_237\n        /* \"#utility.yul\":6787:6789   */\n      0x60\n        /* \"#utility.yul\":6776:6785   */\n      dup4\n        /* \"#utility.yul\":6772:6790   */\n      add\n        /* \"#utility.yul\":6763:6769   */\n      dup5\n        /* \"#utility.yul\":6719:6791   */\n      tag_121\n      jump\t// in\n    tag_237:\n        /* \"#utility.yul\":6154:6798   */\n      swap6\n      swap5\n      pop\n      pop\n      pop\n      pop\n      pop\n      jump\t// out\n        /* \"#utility.yul\":6804:6926   */\n    tag_127:\n        /* \"#utility.yul\":6877:6901   */\n      tag_239\n        /* \"#utility.yul\":6895:6900   */\n      dup2\n        /* \"#utility.yul\":6877:6901   */\n      tag_120\n      jump\t// in\n    tag_239:\n        /* \"#utility.yul\":6870:6875   */\n      dup2\n        /* \"#utility.yul\":6867:6902   */\n      eq\n        /* \"#utility.yul\":6857:6920   */\n      tag_240\n      jumpi\n        /* \"#utility.yul\":6916:6917   */\n      0x00\n        /* \"#utility.yul\":6913:6914   */\n      dup1\n        /* \"#utility.yul\":6906:6918   */\n      revert\n        /* \"#utility.yul\":6857:6920   */\n    tag_240:\n        /* \"#utility.yul\":6804:6926   */\n      pop\n      jump\t// out\n        /* \"#utility.yul\":6932:7071   */\n    tag_128:\n        /* \"#utility.yul\":6978:6983   */\n      0x00\n        /* \"#utility.yul\":7016:7022   */\n      dup2\n        /* \"#utility.yul\":7003:7023   */\n      calldataload\n        /* \"#utility.yul\":6994:7023   */\n      swap1\n      pop\n        /* \"#utility.yul\":7032:7065   */\n      tag_242\n        /* \"#utility.yul\":7059:7064   */\n      dup2\n        /* \"#utility.yul\":7032:7065   */\n      tag_127\n      jump\t// in\n    tag_242:\n        /* \"#utility.yul\":6932:7071   */\n      swap3\n      swap2\n      pop\n      pop\n      jump\t// out\n        /* \"#utility.yul\":7077:7406   */\n    tag_33:\n        /* \"#utility.yul\":7136:7142   */\n      0x00\n        /* \"#utility.yul\":7185:7187   */\n      0x20\n        /* \"#utility.yul\":7173:7182   */\n      dup3\n        /* \"#utility.yul\":7164:7171   */\n      dup5\n        /* \"#utility.yul\":7160:7183   */\n      sub\n        /* \"#utility.yul\":7156:7188   */\n      slt\n        /* \"#utility.yul\":7153:7272   */\n      iszero\n      tag_244\n      jumpi\n        /* \"#utility.yul\":7191:7270   */\n      tag_245\n      tag_104\n      jump\t// in\n    tag_245:\n        /* \"#utility.yul\":7153:7272   */\n    tag_244:\n        /* \"#utility.yul\":7311:7312   */\n      0x00\n        /* \"#utility.yul\":7336:7389   */\n      tag_246\n        /* \"#utility.yul\":7381:7388   */\n      dup5\n        /* \"#utility.yul\":7372:7378   */\n      dup3\n        /* \"#utility.yul\":7361:7370   */\n      dup6\n        /* \"#utility.yul\":7357:7379   */\n      add\n        /* \"#utility.yul\":7336:7389   */\n      tag_128\n      jump\t// in\n    tag_246:\n        /* \"#utility.yul\":7326:7389   */\n      swap2\n      pop\n        /* \"#utility.yul\":7282:7399   */\n      pop\n        /* \"#utility.yul\":7077:7406   */\n      swap3\n      swap2\n      pop\n      pop\n      jump\t// out\n        /* \"#utility.yul\":7412:7472   */\n    tag_129:\n        /* \"#utility.yul\":7440:7443   */\n      0x00\n        /* \"#utility.yul\":7461:7466   */\n      dup2\n        /* \"#utility.yul\":7454:7466   */\n      swap1\n      pop\n        /* \"#utility.yul\":7412:7472   */\n      swap2\n      swap1\n      pop\n      jump\t// out\n        /* \"#utility.yul\":7478:7620   */\n    tag_130:\n        /* \"#utility.yul\":7528:7537   */\n      0x00\n        /* \"#utility.yul\":7561:7614   */\n      tag_249\n        /* \"#utility.yul\":7579:7613   */\n      tag_250\n        /* \"#utility.yul\":7588:7612   */\n      tag_251\n        /* \"#utility.yul\":7606:7611   */\n      dup5\n        /* \"#utility.yul\":7588:7612   */\n      tag_119\n      jump\t// in\n    tag_251:\n        /* \"#utility.yul\":7579:7613   */\n      tag_129\n      jump\t// in\n    tag_250:\n        /* \"#utility.yul\":7561:7614   */\n      tag_119\n      jump\t// in\n    tag_249:\n        /* \"#utility.yul\":7548:7614   */\n      swap1\n      pop\n        /* \"#utility.yul\":7478:7620   */\n      swap2\n      swap1\n      pop\n      jump\t// out\n        /* \"#utility.yul\":7626:7752   */\n    tag_131:\n        /* \"#utility.yul\":7676:7685   */\n      0x00\n        /* \"#utility.yul\":7709:7746   */\n      tag_253\n        /* \"#utility.yul\":7740:7745   */\n      dup3\n        /* \"#utility.yul\":7709:7746   */\n      tag_130\n      jump\t// in\n    tag_253:\n        /* \"#utility.yul\":7696:7746   */\n      swap1\n      pop\n        /* \"#utility.yul\":7626:7752   */\n      swap2\n      swap1\n      pop\n      jump\t// out\n        /* \"#utility.yul\":7758:7898   */\n    tag_132:\n        /* \"#utility.yul\":7822:7831   */\n      0x00\n        /* \"#utility.yul\":7855:7892   */\n      tag_255\n        /* \"#utility.yul\":7886:7891   */\n      dup3\n        /* \"#utility.yul\":7855:7892   */\n      tag_131\n      jump\t// in\n    tag_255:\n        /* \"#utility.yul\":7842:7892   */\n      swap1\n      pop\n        /* \"#utility.yul\":7758:7898   */\n      swap2\n      swap1\n      pop\n      jump\t// out\n        /* \"#utility.yul\":7904:8063   */\n    tag_133:\n        /* \"#utility.yul\":8005:8056   */\n      tag_257\n        /* \"#utility.yul\":8050:8055   */\n      dup2\n        /* \"#utility.yul\":8005:8056   */\n      tag_132\n      jump\t// in\n    tag_257:\n        /* \"#utility.yul\":8000:8003   */\n      dup3\n        /* \"#utility.yul\":7993:8057   */\n      mstore\n        /* \"#utility.yul\":7904:8063   */\n      pop\n      pop\n      jump\t// out\n        /* \"#utility.yul\":8069:8319   */\n    tag_38:\n        /* \"#utility.yul\":8176:8180   */\n      0x00\n        /* \"#utility.yul\":8214:8216   */\n      0x20\n        /* \"#utility.yul\":8203:8212   */\n      dup3\n        /* \"#utility.yul\":8199:8217   */\n      add\n        /* \"#utility.yul\":8191:8217   */\n      swap1\n      pop\n        /* \"#utility.yul\":8227:8312   */\n      tag_259\n        /* \"#utility.yul\":8309:8310   */\n      0x00\n        /* \"#utility.yul\":8298:8307   */\n      dup4\n        /* \"#utility.yul\":8294:8311   */\n      add\n        /* \"#utility.yul\":8285:8291   */\n      dup5\n        /* \"#utility.yul\":8227:8312   */\n      tag_133\n      jump\t// in\n    tag_259:\n        /* \"#utility.yul\":8069:8319   */\n      swap3\n      swap2\n      pop\n      pop\n      jump\t// out\n        /* \"#utility.yul\":8325:8505   */\n    tag_134:\n        /* \"#utility.yul\":8373:8450   */\n      0x4e487b7100000000000000000000000000000000000000000000000000000000\n        /* \"#utility.yul\":8370:8371   */\n      0x00\n        /* \"#utility.yul\":8363:8451   */\n      mstore\n        /* \"#utility.yul\":8470:8474   */\n      0x11\n        /* \"#utility.yul\":8467:8468   */\n      0x04\n        /* \"#utility.yul\":8460:8475   */\n      mstore\n        /* \"#utility.yul\":8494:8498   */\n      0x24\n        /* \"#utility.yul\":8491:8492   */\n      0x00\n        /* \"#utility.yul\":8484:8499   */\n      revert\n        /* \"#utility.yul\":8511:8744   */\n    tag_44:\n        /* \"#utility.yul\":8550:8553   */\n      0x00\n        /* \"#utility.yul\":8573:8597   */\n      tag_262\n        /* \"#utility.yul\":8591:8596   */\n      dup3\n        /* \"#utility.yul\":8573:8597   */\n      tag_116\n      jump\t// in\n    tag_262:\n        /* \"#utility.yul\":8564:8597   */\n      swap2\n      pop\n        /* \"#utility.yul\":8619:8685   */\n      0xffffffffffffffffffffffffffffffffffffffffffffffffffffffffffffffff\n        /* \"#utility.yul\":8612:8617   */\n      dup3\n        /* \"#utility.yul\":8609:8686   */\n      sub\n        /* \"#utility.yul\":8606:8709   */\n      tag_263\n      jumpi\n        /* \"#utility.yul\":8689:8707   */\n      tag_264\n      tag_134\n      jump\t// in\n    tag_264:\n        /* \"#utility.yul\":8606:8709   */\n    tag_263:\n        /* \"#utility.yul\":8736:8737   */\n      0x01\n        /* \"#utility.yul\":8729:8734   */\n      dup3\n        /* \"#utility.yul\":8725:8738   */\n      add\n        /* \"#utility.yul\":8718:8738   */\n      swap1\n      pop\n        /* \"#utility.yul\":8511:8744   */\n      swap2\n      swap1\n      pop\n      jump\t// out\n        /* \"#utility.yul\":8750:8930   */\n    tag_135:\n        /* \"#utility.yul\":8798:8875   */\n      0x4e487b7100000000000000000000000000000000000000000000000000000000\n        /* \"#utility.yul\":8795:8796   */\n      0x00\n        /* \"#utility.yul\":8788:8876   */\n      mstore\n        /* \"#utility.yul\":8895:8899   */\n      0x22\n        /* \"#utility.yul\":8892:8893   */\n      0x04\n        /* \"#utility.yul\":8885:8900   */\n      mstore\n        /* \"#utility.yul\":8919:8923   */\n      0x24\n        /* \"#utility.yul\":8916:8917   */\n      0x00\n        /* \"#utility.yul\":8909:8924   */\n      revert\n        /* \"#utility.yul\":8936:9256   */\n    tag_83:\n        /* \"#utility.yul\":8980:8986   */\n      0x00\n        /* \"#utility.yul\":9017:9018   */\n      0x02\n        /* \"#utility.yul\":9011:9015   */\n      dup3\n        /* \"#utility.yul\":9007:9019   */\n      div\n        /* \"#utility.yul\":8997:9019   */\n      swap1\n      pop\n        /* \"#utility.yul\":9064:9065   */\n      0x01\n        /* \"#utility.yul\":9058:9062   */\n      dup3\n        /* \"#utility.yul\":9054:9066   */\n      and\n        /* \"#utility.yul\":9085:9103   */\n      dup1\n        /* \"#utility.yul\":9075:9156   */\n      tag_267\n      jumpi\n        /* \"#utility.yul\":9141:9145   */\n      0x7f\n        /* \"#utility.yul\":9133:9139   */\n      dup3\n        /* \"#utility.yul\":9129:9146   */\n      and\n        /* \"#utility.yul\":9119:9146   */\n      swap2\n      pop\n        /* \"#utility.yul\":9075:9156   */\n    tag_267:\n        /* \"#utility.yul\":9203:9205   */\n      0x20\n        /* \"#utility.yul\":9195:9201   */\n      dup3\n        /* \"#utility.yul\":9192:9206   */\n      lt\n        /* \"#utility.yul\":9172:9190   */\n      dup2\n        /* \"#utility.yul\":9169:9207   */\n      sub\n        /* \"#utility.yul\":9166:9250   */\n      tag_268\n      jumpi\n        /* \"#utility.yul\":9222:9240   */\n      tag_269\n      tag_135\n      jump\t// in\n    tag_269:\n        /* \"#utility.yul\":9166:9250   */\n    tag_268:\n        /* \"#utility.yul\":8987:9256   */\n      pop\n        /* \"#utility.yul\":8936:9256   */\n      swap2\n      swap1\n      pop\n      jump\t// out\n        /* \"#utility.yul\":9262:9403   */\n    tag_136:\n        /* \"#utility.yul\":9311:9315   */\n      0x00\n        /* \"#utility.yul\":9334:9337   */\n      dup2\n        /* \"#utility.yul\":9326:9337   */\n      swap1\n      pop\n        /* \"#utility.yul\":9357:9360   */\n      dup2\n        /* \"#utility.yul\":9354:9355   */\n      0x00\n        /* \"#utility.yul\":9347:9361   */\n      mstore\n        /* \"#utility.yul\":9391:9395   */\n      0x20\n        /* \"#utility.yul\":9388:9389   */\n      0x00\n        /* \"#utility.yul\":9378:9396   */\n      keccak256\n        /* \"#utility.yul\":9370:9396   */\n      swap1\n      pop\n        /* \"#utility.yul\":9262:9403   */\n      swap2\n      swap1\n      pop\n      jump\t// out\n        /* \"#utility.yul\":9409:9502   */\n    tag_137:\n        /* \"#utility.yul\":9446:9452   */\n      0x00\n        /* \"#utility.yul\":9493:9495   */\n      0x20\n        /* \"#utility.yul\":9488:9490   */\n      0x1f\n        /* \"#utility.yul\":9481:9486   */\n      dup4\n        /* \"#utility.yul\":9477:9491   */\n      add\n        /* \"#utility.yul\":9473:9496   */\n      div\n        /* \"#utility.yul\":9463:9496   */\n      swap1\n      pop\n        /* \"#utility.yul\":9409:9502   */\n      swap2\n      swap1\n      pop\n      jump\t// out\n        /* \"#utility.yul\":9508:9615   */\n    tag_138:\n        /* \"#utility.yul\":9552:9560   */\n      0x00\n        /* \"#utility.yul\":9602:9607   */\n      dup3\n        /* \"#utility.yul\":9596:9600   */\n      dup3\n        /* \"#utility.yul\":9592:9608   */\n      shl\n        /* \"#utility.yul\":9571:9608   */\n      swap1\n      pop\n        /* \"#utility.yul\":9508:9615   */\n      swap3\n      swap2\n      pop\n      pop\n      jump\t// out\n        /* \"#utility.yul\":9621:10014   */\n    tag_139:\n        /* \"#utility.yul\":9690:9696   */\n      0x00\n        /* \"#utility.yul\":9740:9741   */\n      0x08\n        /* \"#utility.yul\":9728:9738   */\n      dup4\n        /* \"#utility.yul\":9724:9742   */\n      mul\n        /* \"#utility.yul\":9763:9860   */\n      tag_274\n        /* \"#utility.yul\":9793:9859   */\n      0xffffffffffffffffffffffffffffffffffffffffffffffffffffffffffffffff\n        /* \"#utility.yul\":9782:9791   */\n      dup3\n        /* \"#utility.yul\":9763:9860   */\n      tag_138\n      jump\t// in\n    tag_274:\n        /* \"#utility.yul\":9881:9920   */\n      tag_275\n        /* \"#utility.yul\":9911:9919   */\n      dup7\n        /* \"#utility.yul\":9900:9909   */\n      dup4\n        /* \"#utility.yul\":9881:9920   */\n      tag_138\n      jump\t// in\n    tag_275:\n        /* \"#utility.yul\":9869:9920   */\n      swap6\n      pop\n        /* \"#utility.yul\":9953:9957   */\n      dup1\n        /* \"#utility.yul\":9949:9958   */\n      not\n        /* \"#utility.yul\":9942:9947   */\n      dup5\n        /* \"#utility.yul\":9938:9959   */\n      and\n        /* \"#utility.yul\":9929:9959   */\n      swap4\n      pop\n        /* \"#utility.yul\":10002:10006   */\n      dup1\n        /* \"#utility.yul\":9992:10000   */\n      dup7\n        /* \"#utility.yul\":9988:10007   */\n      and\n        /* \"#utility.yul\":9981:9986   */\n      dup5\n        /* \"#utility.yul\":9978:10008   */\n      or\n        /* \"#utility.yul\":9968:10008   */\n      swap3\n      pop\n        /* \"#utility.yul\":9697:10014   */\n      pop\n      pop\n        /* \"#utility.yul\":9621:10014   */\n      swap4\n      swap3\n      pop\n      pop\n      pop\n      jump\t// out\n        /* \"#utility.yul\":10020:10162   */\n    tag_140:\n        /* \"#utility.yul\":10070:10079   */\n      0x00\n        /* \"#utility.yul\":10103:10156   */\n      tag_277\n        /* \"#utility.yul\":10121:10155   */\n      tag_278\n        /* \"#utility.yul\":10130:10154   */\n      tag_279\n        /* \"#utility.yul\":10148:10153   */\n      dup5\n        /* \"#utility.yul\":10130:10154   */\n      tag_116\n      jump\t// in\n    tag_279:\n        /* \"#utility.yul\":10121:10155   */\n      tag_129\n      jump\t// in\n    tag_278:\n        /* \"#utility.yul\":10103:10156   */\n      tag_116\n      jump\t// in\n    tag_277:\n        /* \"#utility.yul\":10090:10156   */\n      swap1\n      pop\n        /* \"#utility.yul\":10020:10162   */\n      swap2\n      swap1\n      pop\n      jump\t// out\n        /* \"#utility.yul\":10168:10243   */\n    tag_141:\n        /* \"#utility.yul\":10211:10214   */\n      0x00\n        /* \"#utility.yul\":10232:10237   */\n      dup2\n        /* \"#utility.yul\":10225:10237   */\n      swap1\n      pop\n        /* \"#utility.yul\":10168:10243   */\n      swap2\n      swap1\n      pop\n      jump\t// out\n        /* \"#utility.yul\":10249:10518   */\n    tag_142:\n        /* \"#utility.yul\":10359:10398   */\n      tag_282\n        /* \"#utility.yul\":10390:10397   */\n      dup4\n        /* \"#utility.yul\":10359:10398   */\n      tag_140\n      jump\t// in\n    tag_282:\n        /* \"#utility.yul\":10420:10511   */\n      tag_283\n        /* \"#utility.yul\":10469:10510   */\n      tag_284\n        /* \"#utility.yul\":10493:10509   */\n      dup3\n        /* \"#utility.yul\":10469:10510   */\n      tag_141\n      jump\t// in\n    tag_284:\n        /* \"#utility.yul\":10461:10467   */\n      dup5\n        /* \"#utility.yul\":10454:10458   */\n      dup5\n        /* \"#utility.yul\":10448:10459   */\n      sload\n        /* \"#utility.yul\":10420:10511   */\n      tag_139\n      jump\t// in\n    tag_283:\n        /* \"#utility.yul\":10414:10418   */\n      dup3\n        /* \"#utility.yul\":10407:10512   */\n      sstore\n        /* \"#utility.yul\":10325:10518   */\n      pop\n        /* \"#utility.yul\":10249:10518   */\n      pop\n      pop\n      pop\n      jump\t// out\n        /* \"#utility.yul\":10524:10597   */\n    tag_143:\n        /* \"#utility.yul\":10569:10572   */\n      0x00\n        /* \"#utility.yul\":10524:10597   */\n      swap1\n      jump\t// out\n        /* \"#utility.yul\":10603:10792   */\n    tag_144:\n        /* \"#utility.yul\":10680:10712   */\n      tag_287\n      tag_143\n      jump\t// in\n    tag_287:\n        /* \"#utility.yul\":10721:10786   */\n      tag_288\n        /* \"#utility.yul\":10779:10785   */\n      dup2\n        /* \"#utility.yul\":10771:10777   */\n      dup5\n        /* \"#utility.yul\":10765:10769   */\n      dup5\n        /* \"#utility.yul\":10721:10786   */\n      tag_142\n      jump\t// in\n    tag_288:\n        /* \"#utility.yul\":10656:10792   */\n      pop\n        /* \"#utility.yul\":10603:10792   */\n      pop\n      pop\n      jump\t// out\n        /* \"#utility.yul\":10798:10984   */\n    tag_145:\n        /* \"#utility.yul\":10858:10978   */\n    tag_290:\n        /* \"#utility.yul\":10875:10878   */\n      dup2\n        /* \"#utility.yul\":10868:10873   */\n      dup2\n        /* \"#utility.yul\":10865:10879   */\n      lt\n        /* \"#utility.yul\":10858:10978   */\n      iszero\n      tag_292\n      jumpi\n        /* \"#utility.yul\":10929:10968   */\n      tag_293\n        /* \"#utility.yul\":10966:10967   */\n      0x00\n        /* \"#utility.yul\":10959:10964   */\n      dup3\n        /* \"#utility.yul\":10929:10968   */\n      tag_144\n      jump\t// in\n    tag_293:\n        /* \"#utility.yul\":10902:10903   */\n      0x01\n        /* \"#utility.yul\":10895:10900   */\n      dup2\n        /* \"#utility.yul\":10891:10904   */\n      add\n        /* \"#utility.yul\":10882:10904   */\n      swap1\n      pop\n        /* \"#utility.yul\":10858:10978   */\n      jump(tag_290)\n    tag_292:\n        /* \"#utility.yul\":10798:10984   */\n      pop\n      pop\n      jump\t// out\n        /* \"#utility.yul\":10990:11533   */\n    tag_146:\n        /* \"#utility.yul\":11091:11093   */\n      0x1f\n        /* \"#utility.yul\":11086:11089   */\n      dup3\n        /* \"#utility.yul\":11083:11094   */\n      gt\n        /* \"#utility.yul\":11080:11526   */\n      iszero\n      tag_295\n      jumpi\n        /* \"#utility.yul\":11125:11163   */\n      tag_296\n        /* \"#utility.yul\":11157:11162   */\n      dup2\n        /* \"#utility.yul\":11125:11163   */\n      tag_136\n      jump\t// in\n    tag_296:\n        /* \"#utility.yul\":11209:11238   */\n      tag_297\n        /* \"#utility.yul\":11227:11237   */\n      dup5\n        /* \"#utility.yul\":11209:11238   */\n      tag_137\n      jump\t// in\n    tag_297:\n        /* \"#utility.yul\":11199:11207   */\n      dup2\n        /* \"#utility.yul\":11195:11239   */\n      add\n        /* \"#utility.yul\":11392:11394   */\n      0x20\n        /* \"#utility.yul\":11380:11390   */\n      dup6\n        /* \"#utility.yul\":11377:11395   */\n      lt\n        /* \"#utility.yul\":11374:11423   */\n      iszero\n      tag_298\n      jumpi\n        /* \"#utility.yul\":11413:11421   */\n      dup2\n        /* \"#utility.yul\":11398:11421   */\n      swap1\n      pop\n        /* \"#utility.yul\":11374:11423   */\n    tag_298:\n        /* \"#utility.yul\":11436:11516   */\n      tag_299\n        /* \"#utility.yul\":11492:11514   */\n      tag_300\n        /* \"#utility.yul\":11510:11513   */\n      dup6\n        /* \"#utility.yul\":11492:11514   */\n      tag_137\n      jump\t// in\n    tag_300:\n        /* \"#utility.yul\":11482:11490   */\n      dup4\n        /* \"#utility.yul\":11478:11515   */\n      add\n        /* \"#utility.yul\":11465:11476   */\n      dup3\n        /* \"#utility.yul\":11436:11516   */\n      tag_145\n      jump\t// in\n    tag_299:\n        /* \"#utility.yul\":11095:11526   */\n      pop\n      pop\n        /* \"#utility.yul\":11080:11526   */\n    tag_295:\n        /* \"#utility.yul\":10990:11533   */\n      pop\n      pop\n      pop\n      jump\t// out\n        /* \"#utility.yul\":11539:11656   */\n    tag_147:\n        /* \"#utility.yul\":11593:11601   */\n      0x00\n        /* \"#utility.yul\":11643:11648   */\n      dup3\n        /* \"#utility.yul\":11637:11641   */\n      dup3\n        /* \"#utility.yul\":11633:11649   */\n      shr\n        /* \"#utility.yul\":11612:11649   */\n      swap1\n      pop\n        /* \"#utility.yul\":11539:11656   */\n      swap3\n      swap2\n      pop\n      pop\n      jump\t// out\n        /* \"#utility.yul\":11662:11831   */\n    tag_148:\n        /* \"#utility.yul\":11706:11712   */\n      0x00\n        /* \"#utility.yul\":11739:11790   */\n      tag_303\n        /* \"#utility.yul\":11787:11788   */\n      0x00\n        /* \"#utility.yul\":11783:11789   */\n      not\n        /* \"#utility.yul\":11775:11780   */\n      dup5\n        /* \"#utility.yul\":11772:11773   */\n      0x08\n        /* \"#utility.yul\":11768:11781   */\n      mul\n        /* \"#utility.yul\":11739:11790   */\n      tag_147\n      jump\t// in\n    tag_303:\n        /* \"#utility.yul\":11735:11791   */\n      not\n        /* \"#utility.yul\":11820:11824   */\n      dup1\n        /* \"#utility.yul\":11814:11818   */\n      dup4\n        /* \"#utility.yul\":11810:11825   */\n      and\n        /* \"#utility.yul\":11800:11825   */\n      swap2\n      pop\n        /* \"#utility.yul\":11713:11831   */\n      pop\n        /* \"#utility.yul\":11662:11831   */\n      swap3\n      swap2\n      pop\n      pop\n      jump\t// out\n        /* \"#utility.yul\":11836:12131   */\n    tag_149:\n        /* \"#utility.yul\":11912:11916   */\n      0x00\n        /* \"#utility.yul\":12058:12087   */\n      tag_305\n        /* \"#utility.yul\":12083:12086   */\n      dup4\n        /* \"#utility.yul\":12077:12081   */\n      dup4\n        /* \"#utility.yul\":12058:12087   */\n      tag_148\n      jump\t// in\n    tag_305:\n        /* \"#utility.yul\":12050:12087   */\n      swap2\n      pop\n        /* \"#utility.yul\":12120:12123   */\n      dup3\n        /* \"#utility.yul\":12117:12118   */\n      0x02\n        /* \"#utility.yul\":12113:12124   */\n      mul\n        /* \"#utility.yul\":12107:12111   */\n      dup3\n        /* \"#utility.yul\":12104:12125   */\n      or\n        /* \"#utility.yul\":12096:12125   */\n      swap1\n      pop\n        /* \"#utility.yul\":11836:12131   */\n      swap3\n      swap2\n      pop\n      pop\n      jump\t// out\n        /* \"#utility.yul\":12136:13531   */\n    tag_46:\n        /* \"#utility.yul\":12253:12290   */\n      tag_307\n        /* \"#utility.yul\":12286:12289   */\n      dup3\n        /* \"#utility.yul\":12253:12290   */\n      tag_122\n      jump\t// in\n    tag_307:\n        /* \"#utility.yul\":12355:12373   */\n      0xffffffffffffffff\n        /* \"#utility.yul\":12347:12353   */\n      dup2\n        /* \"#utility.yul\":12344:12374   */\n      gt\n        /* \"#utility.yul\":12341:12397   */\n      iszero\n      tag_308\n      jumpi\n        /* \"#utility.yul\":12377:12395   */\n      tag_309\n      tag_109\n      jump\t// in\n    tag_309:\n        /* \"#utility.yul\":12341:12397   */\n    tag_308:\n        /* \"#utility.yul\":12421:12459   */\n      tag_310\n        /* \"#utility.yul\":12453:12457   */\n      dup3\n        /* \"#utility.yul\":12447:12458   */\n      sload\n        /* \"#utility.yul\":12421:12459   */\n      tag_83\n      jump\t// in\n    tag_310:\n        /* \"#utility.yul\":12506:12573   */\n      tag_311\n        /* \"#utility.yul\":12566:12572   */\n      dup3\n        /* \"#utility.yul\":12558:12564   */\n      dup3\n        /* \"#utility.yul\":12552:12556   */\n      dup6\n        /* \"#utility.yul\":12506:12573   */\n      tag_146\n      jump\t// in\n    tag_311:\n        /* \"#utility.yul\":12600:12601   */\n      0x00\n        /* \"#utility.yul\":12624:12628   */\n      0x20\n        /* \"#utility.yul\":12611:12628   */\n      swap1\n      pop\n        /* \"#utility.yul\":12656:12658   */\n      0x1f\n        /* \"#utility.yul\":12648:12654   */\n      dup4\n        /* \"#utility.yul\":12645:12659   */\n      gt\n        /* \"#utility.yul\":12673:12674   */\n      0x01\n        /* \"#utility.yul\":12668:13286   */\n      dup2\n      eq\n      tag_313\n      jumpi\n        /* \"#utility.yul\":13330:13331   */\n      0x00\n        /* \"#utility.yul\":13347:13353   */\n      dup5\n        /* \"#utility.yul\":13344:13421   */\n      iszero\n      tag_314\n      jumpi\n        /* \"#utility.yul\":13396:13405   */\n      dup3\n        /* \"#utility.yul\":13391:13394   */\n      dup8\n        /* \"#utility.yul\":13387:13406   */\n      add\n        /* \"#utility.yul\":13381:13407   */\n      mload\n        /* \"#utility.yul\":13372:13407   */\n      swap1\n      pop\n        /* \"#utility.yul\":13344:13421   */\n    tag_314:\n        /* \"#utility.yul\":13447:13514   */\n      tag_315\n        /* \"#utility.yul\":13507:13513   */\n      dup6\n        /* \"#utility.yul\":13500:13505   */\n      dup3\n        /* \"#utility.yul\":13447:13514   */\n      tag_149\n      jump\t// in\n    tag_315:\n        /* \"#utility.yul\":13441:13445   */\n      dup7\n        /* \"#utility.yul\":13434:13515   */\n      sstore\n        /* \"#utility.yul\":13303:13525   */\n      pop\n        /* \"#utility.yul\":12638:13525   */\n      jump(tag_312)\n        /* \"#utility.yul\":12668:13286   */\n    tag_313:\n        /* \"#utility.yul\":12720:12724   */\n      0x1f\n        /* \"#utility.yul\":12716:12725   */\n      not\n        /* \"#utility.yul\":12708:12714   */\n      dup5\n        /* \"#utility.yul\":12704:12726   */\n      and\n        /* \"#utility.yul\":12754:12791   */\n      tag_316\n        /* \"#utility.yul\":12786:12790   */\n      dup7\n        /* \"#utility.yul\":12754:12791   */\n      tag_136\n      jump\t// in\n    tag_316:\n        /* \"#utility.yul\":12813:12814   */\n      0x00\n        /* \"#utility.yul\":12827:13035   */\n    tag_317:\n        /* \"#utility.yul\":12841:12848   */\n      dup3\n        /* \"#utility.yul\":12838:12839   */\n      dup2\n        /* \"#utility.yul\":12835:12849   */\n      lt\n        /* \"#utility.yul\":12827:13035   */\n      iszero\n      tag_319\n      jumpi\n        /* \"#utility.yul\":12920:12929   */\n      dup5\n        /* \"#utility.yul\":12915:12918   */\n      dup10\n        /* \"#utility.yul\":12911:12930   */\n      add\n        /* \"#utility.yul\":12905:12931   */\n      mload\n        /* \"#utility.yul\":12897:12903   */\n      dup3\n        /* \"#utility.yul\":12890:12932   */\n      sstore\n        /* \"#utility.yul\":12971:12972   */\n      0x01\n        /* \"#utility.yul\":12963:12969   */\n      dup3\n        /* \"#utility.yul\":12959:12973   */\n      add\n        /* \"#utility.yul\":12949:12973   */\n      swap2\n      pop\n        /* \"#utility.yul\":13018:13020   */\n      0x20\n        /* \"#utility.yul\":13007:13016   */\n      dup6\n        /* \"#utility.yul\":13003:13021   */\n      add\n        /* \"#utility.yul\":12990:13021   */\n      swap5\n      pop\n        /* \"#utility.yul\":12864:12868   */\n      0x20\n        /* \"#utility.yul\":12861:12862   */\n      dup2\n        /* \"#utility.yul\":12857:12869   */\n      add\n        /* \"#utility.yul\":12852:12869   */\n      swap1\n      pop\n        /* \"#utility.yul\":12827:13035   */\n      jump(tag_317)\n    tag_319:\n        /* \"#utility.yul\":13063:13069   */\n      dup7\n        /* \"#utility.yul\":13054:13061   */\n      dup4\n        /* \"#utility.yul\":13051:13070   */\n      lt\n        /* \"#utility.yul\":13048:13227   */\n      iszero\n      tag_320\n      jumpi\n        /* \"#utility.yul\":13121:13130   */\n      dup5\n        /* \"#utility.yul\":13116:13119   */\n      dup10\n        /* \"#utility.yul\":13112:13131   */\n      add\n        /* \"#utility.yul\":13106:13132   */\n      mload\n        /* \"#utility.yul\":13164:13212   */\n      tag_321\n        /* \"#utility.yul\":13206:13210   */\n      0x1f\n        /* \"#utility.yul\":13198:13204   */\n      dup10\n        /* \"#utility.yul\":13194:13211   */\n      and\n        /* \"#utility.yul\":13183:13192   */\n      dup3\n        /* \"#utility.yul\":13164:13212   */\n      tag_148\n      jump\t// in\n    tag_321:\n        /* \"#utility.yul\":13156:13162   */\n      dup4\n        /* \"#utility.yul\":13149:13213   */\n      sstore\n        /* \"#utility.yul\":13071:13227   */\n      pop\n        /* \"#utility.yul\":13048:13227   */\n    tag_320:\n        /* \"#utility.yul\":13273:13274   */\n      0x01\n        /* \"#utility.yul\":13269:13270   */\n      0x02\n        /* \"#utility.yul\":13261:13267   */\n      dup9\n        /* \"#utility.yul\":13257:13271   */\n      mul\n        /* \"#utility.yul\":13253:13275   */\n      add\n        /* \"#utility.yul\":13247:13251   */\n      dup9\n        /* \"#utility.yul\":13240:13276   */\n      sstore\n        /* \"#utility.yul\":12675:13286   */\n      pop\n      pop\n      pop\n        /* \"#utility.yul\":12638:13525   */\n    tag_312:\n      pop\n        /* \"#utility.yul\":12228:13531   */\n      pop\n      pop\n      pop\n        /* \"#utility.yul\":12136:13531   */\n      pop\n      pop\n      jump\t// out\n        /* \"#utility.yul\":13537:13714   */\n    tag_150:\n        /* \"#utility.yul\":13677:13706   */\n      0x496e73756666696369656e7420676f6f6473207175616e746974790000000000\n        /* \"#utility.yul\":13673:13674   */\n      0x00\n        /* \"#utility.yul\":13665:13671   */\n      dup3\n        /* \"#utility.yul\":13661:13675   */\n      add\n        /* \"#utility.yul\":13654:13707   */\n      mstore\n        /* \"#utility.yul\":13537:13714   */\n      pop\n      jump\t// out\n        /* \"#utility.yul\":13720:14086   */\n    tag_151:\n        /* \"#utility.yul\":13862:13865   */\n      0x00\n        /* \"#utility.yul\":13883:13950   */\n      tag_324\n        /* \"#utility.yul\":13947:13949   */\n      0x1b\n        /* \"#utility.yul\":13942:13945   */\n      dup4\n        /* \"#utility.yul\":13883:13950   */\n      tag_123\n      jump\t// in\n    tag_324:\n        /* \"#utility.yul\":13876:13950   */\n      swap2\n      pop\n        /* \"#utility.yul\":13959:14052   */\n      tag_325\n        /* \"#utility.yul\":14048:14051   */\n      dup3\n        /* \"#utility.yul\":13959:14052   */\n      tag_150\n      jump\t// in\n    tag_325:\n        /* \"#utility.yul\":14077:14079   */\n      0x20\n        /* \"#utility.yul\":14072:14075   */\n      dup3\n        /* \"#utility.yul\":14068:14080   */\n      add\n        /* \"#utility.yul\":14061:14080   */\n      swap1\n      pop\n        /* \"#utility.yul\":13720:14086   */\n      swap2\n      swap1\n      pop\n      jump\t// out\n        /* \"#utility.yul\":14092:14511   */\n    tag_55:\n        /* \"#utility.yul\":14258:14262   */\n      0x00\n        /* \"#utility.yul\":14296:14298   */\n      0x20\n        /* \"#utility.yul\":14285:14294   */\n      dup3\n        /* \"#utility.yul\":14281:14299   */\n      add\n        /* \"#utility.yul\":14273:14299   */\n      swap1\n      pop\n        /* \"#utility.yul\":14345:14354   */\n      dup2\n        /* \"#utility.yul\":14339:14343   */\n      dup2\n        /* \"#utility.yul\":14335:14355   */\n      sub\n        /* \"#utility.yul\":14331:14332   */\n      0x00\n        /* \"#utility.yul\":14320:14329   */\n      dup4\n        /* \"#utility.yul\":14316:14333   */\n      add\n        /* \"#utility.yul\":14309:14356   */\n      mstore\n        /* \"#utility.yul\":14373:14504   */\n      tag_327\n        /* \"#utility.yul\":14499:14503   */\n      dup2\n        /* \"#utility.yul\":14373:14504   */\n      tag_151\n      jump\t// in\n    tag_327:\n        /* \"#utility.yul\":14365:14504   */\n      swap1\n      pop\n        /* \"#utility.yul\":14092:14511   */\n      swap2\n      swap1\n      pop\n      jump\t// out\n        /* \"#utility.yul\":14517:14927   */\n    tag_57:\n        /* \"#utility.yul\":14557:14564   */\n      0x00\n        /* \"#utility.yul\":14580:14600   */\n      tag_329\n        /* \"#utility.yul\":14598:14599   */\n      dup3\n        /* \"#utility.yul\":14580:14600   */\n      tag_116\n      jump\t// in\n    tag_329:\n        /* \"#utility.yul\":14575:14600   */\n      swap2\n      pop\n        /* \"#utility.yul\":14614:14634   */\n      tag_330\n        /* \"#utility.yul\":14632:14633   */\n      dup4\n        /* \"#utility.yul\":14614:14634   */\n      tag_116\n      jump\t// in\n    tag_330:\n        /* \"#utility.yul\":14609:14634   */\n      swap3\n      pop\n        /* \"#utility.yul\":14669:14670   */\n      dup3\n        /* \"#utility.yul\":14666:14667   */\n      dup3\n        /* \"#utility.yul\":14662:14671   */\n      mul\n        /* \"#utility.yul\":14691:14721   */\n      tag_331\n        /* \"#utility.yul\":14709:14720   */\n      dup2\n        /* \"#utility.yul\":14691:14721   */\n      tag_116\n      jump\t// in\n    tag_331:\n        /* \"#utility.yul\":14680:14721   */\n      swap2\n      pop\n        /* \"#utility.yul\":14870:14871   */\n      dup3\n        /* \"#utility.yul\":14861:14868   */\n      dup3\n        /* \"#utility.yul\":14857:14872   */\n      div\n        /* \"#utility.yul\":14854:14855   */\n      dup5\n        /* \"#utility.yul\":14851:14873   */\n      eq\n        /* \"#utility.yul\":14831:14832   */\n      dup4\n        /* \"#utility.yul\":14824:14833   */\n      iszero\n        /* \"#utility.yul\":14804:14887   */\n      or\n        /* \"#utility.yul\":14781:14920   */\n      tag_332\n      jumpi\n        /* \"#utility.yul\":14900:14918   */\n      tag_333\n      tag_134\n      jump\t// in\n    tag_333:\n        /* \"#utility.yul\":14781:14920   */\n    tag_332:\n        /* \"#utility.yul\":14565:14927   */\n      pop\n        /* \"#utility.yul\":14517:14927   */\n      swap3\n      swap2\n      pop\n      pop\n      jump\t// out\n        /* \"#utility.yul\":14933:15076   */\n    tag_152:\n        /* \"#utility.yul\":14990:14995   */\n      0x00\n        /* \"#utility.yul\":15021:15027   */\n      dup2\n        /* \"#utility.yul\":15015:15028   */\n      mload\n        /* \"#utility.yul\":15006:15028   */\n      swap1\n      pop\n        /* \"#utility.yul\":15037:15070   */\n      tag_335\n        /* \"#utility.yul\":15064:15069   */\n      dup2\n        /* \"#utility.yul\":15037:15070   */\n      tag_117\n      jump\t// in\n    tag_335:\n        /* \"#utility.yul\":14933:15076   */\n      swap3\n      swap2\n      pop\n      pop\n      jump\t// out\n        /* \"#utility.yul\":15082:15433   */\n    tag_62:\n        /* \"#utility.yul\":15152:15158   */\n      0x00\n        /* \"#utility.yul\":15201:15203   */\n      0x20\n        /* \"#utility.yul\":15189:15198   */\n      dup3\n        /* \"#utility.yul\":15180:15187   */\n      dup5\n        /* \"#utility.yul\":15176:15199   */\n      sub\n        /* \"#utility.yul\":15172:15204   */\n      slt\n        /* \"#utility.yul\":15169:15288   */\n      iszero\n      tag_337\n      jumpi\n        /* \"#utility.yul\":15207:15286   */\n      tag_338\n      tag_104\n      jump\t// in\n    tag_338:\n        /* \"#utility.yul\":15169:15288   */\n    tag_337:\n        /* \"#utility.yul\":15327:15328   */\n      0x00\n        /* \"#utility.yul\":15352:15416   */\n      tag_339\n        /* \"#utility.yul\":15408:15415   */\n      dup5\n        /* \"#utility.yul\":15399:15405   */\n      dup3\n        /* \"#utility.yul\":15388:15397   */\n      dup6\n        /* \"#utility.yul\":15384:15406   */\n      add\n        /* \"#utility.yul\":15352:15416   */\n      tag_152\n      jump\t// in\n    tag_339:\n        /* \"#utility.yul\":15342:15416   */\n      swap2\n      pop\n        /* \"#utility.yul\":15298:15426   */\n      pop\n        /* \"#utility.yul\":15082:15433   */\n      swap3\n      swap2\n      pop\n      pop\n      jump\t// out\n        /* \"#utility.yul\":15439:15607   */\n    tag_153:\n        /* \"#utility.yul\":15579:15599   */\n      0x496e73756666696369656e742066756e64730000000000000000000000000000\n        /* \"#utility.yul\":15575:15576   */\n      0x00\n        /* \"#utility.yul\":15567:15573   */\n      dup3\n        /* \"#utility.yul\":15563:15577   */\n      add\n        /* \"#utility.yul\":15556:15600   */\n      mstore\n        /* \"#utility.yul\":15439:15607   */\n      pop\n      jump\t// out\n        /* \"#utility.yul\":15613:15979   */\n    tag_154:\n        /* \"#utility.yul\":15755:15758   */\n      0x00\n        /* \"#utility.yul\":15776:15843   */\n      tag_342\n        /* \"#utility.yul\":15840:15842   */\n      0x12\n        /* \"#utility.yul\":15835:15838   */\n      dup4\n        /* \"#utility.yul\":15776:15843   */\n      tag_123\n      jump\t// in\n    tag_342:\n        /* \"#utility.yul\":15769:15843   */\n      swap2\n      pop\n        /* \"#utility.yul\":15852:15945   */\n      tag_343\n        /* \"#utility.yul\":15941:15944   */\n      dup3\n        /* \"#utility.yul\":15852:15945   */\n      tag_153\n      jump\t// in\n    tag_343:\n        /* \"#utility.yul\":15970:15972   */\n      0x20\n        /* \"#utility.yul\":15965:15968   */\n      dup3\n        /* \"#utility.yul\":15961:15973   */\n      add\n        /* \"#utility.yul\":15954:15973   */\n      swap1\n      pop\n        /* \"#utility.yul\":15613:15979   */\n      swap2\n      swap1\n      pop\n      jump\t// out\n        /* \"#utility.yul\":15985:16404   */\n    tag_65:\n        /* \"#utility.yul\":16151:16155   */\n      0x00\n        /* \"#utility.yul\":16189:16191   */\n      0x20\n        /* \"#utility.yul\":16178:16187   */\n      dup3\n        /* \"#utility.yul\":16174:16192   */\n      add\n        /* \"#utility.yul\":16166:16192   */\n      swap1\n      pop\n        /* \"#utility.yul\":16238:16247   */\n      dup2\n        /* \"#utility.yul\":16232:16236   */\n      dup2\n        /* \"#utility.yul\":16228:16248   */\n      sub\n        /* \"#utility.yul\":16224:16225   */\n      0x00\n        /* \"#utility.yul\":16213:16222   */\n      dup4\n        /* \"#utility.yul\":16209:16226   */\n      add\n        /* \"#utility.yul\":16202:16249   */\n      mstore\n        /* \"#utility.yul\":16266:16397   */\n      tag_345\n        /* \"#utility.yul\":16392:16396   */\n      dup2\n        /* \"#utility.yul\":16266:16397   */\n      tag_154\n      jump\t// in\n    tag_345:\n        /* \"#utility.yul\":16258:16397   */\n      swap1\n      pop\n        /* \"#utility.yul\":15985:16404   */\n      swap2\n      swap1\n      pop\n      jump\t// out\n        /* \"#utility.yul\":16410:16575   */\n    tag_155:\n        /* \"#utility.yul\":16550:16567   */\n      0x496e636f7272656374206f776e65720000000000000000000000000000000000\n        /* \"#utility.yul\":16546:16547   */\n      0x00\n        /* \"#utility.yul\":16538:16544   */\n      dup3\n        /* \"#utility.yul\":16534:16548   */\n      add\n        /* \"#utility.yul\":16527:16568   */\n      mstore\n        /* \"#utility.yul\":16410:16575   */\n      pop\n      jump\t// out\n        /* \"#utility.yul\":16581:16947   */\n    tag_156:\n        /* \"#utility.yul\":16723:16726   */\n      0x00\n        /* \"#utility.yul\":16744:16811   */\n      tag_348\n        /* \"#utility.yul\":16808:16810   */\n      0x0f\n        /* \"#utility.yul\":16803:16806   */\n      dup4\n        /* \"#utility.yul\":16744:16811   */\n      tag_123\n      jump\t// in\n    tag_348:\n        /* \"#utility.yul\":16737:16811   */\n      swap2\n      pop\n        /* \"#utility.yul\":16820:16913   */\n      tag_349\n        /* \"#utility.yul\":16909:16912   */\n      dup3\n        /* \"#utility.yul\":16820:16913   */\n      tag_155\n      jump\t// in\n    tag_349:\n        /* \"#utility.yul\":16938:16940   */\n      0x20\n        /* \"#utility.yul\":16933:16936   */\n      dup3\n        /* \"#utility.yul\":16929:16941   */\n      add\n        /* \"#utility.yul\":16922:16941   */\n      swap1\n      pop\n        /* \"#utility.yul\":16581:16947   */\n      swap2\n      swap1\n      pop\n      jump\t// out\n        /* \"#utility.yul\":16953:17372   */\n    tag_69:\n        /* \"#utility.yul\":17119:17123   */\n      0x00\n        /* \"#utility.yul\":17157:17159   */\n      0x20\n        /* \"#utility.yul\":17146:17155   */\n      dup3\n        /* \"#utility.yul\":17142:17160   */\n      add\n        /* \"#utility.yul\":17134:17160   */\n      swap1\n      pop\n        /* \"#utility.yul\":17206:17215   */\n      dup2\n        /* \"#utility.yul\":17200:17204   */\n      dup2\n        /* \"#utility.yul\":17196:17216   */\n      sub\n        /* \"#utility.yul\":17192:17193   */\n      0x00\n        /* \"#utility.yul\":17181:17190   */\n      dup4\n        /* \"#utility.yul\":17177:17194   */\n      add\n        /* \"#utility.yul\":17170:17217   */\n      mstore\n        /* \"#utility.yul\":17234:17365   */\n      tag_351\n        /* \"#utility.yul\":17360:17364   */\n      dup2\n        /* \"#utility.yul\":17234:17365   */\n      tag_156\n      jump\t// in\n    tag_351:\n        /* \"#utility.yul\":17226:17365   */\n      swap1\n      pop\n        /* \"#utility.yul\":16953:17372   */\n      swap2\n      swap1\n      pop\n      jump\t// out\n        /* \"#utility.yul\":17378:17820   */\n    tag_72:\n        /* \"#utility.yul\":17527:17531   */\n      0x00\n        /* \"#utility.yul\":17565:17567   */\n      0x60\n        /* \"#utility.yul\":17554:17563   */\n      dup3\n        /* \"#utility.yul\":17550:17568   */\n      add\n        /* \"#utility.yul\":17542:17568   */\n      swap1\n      pop\n        /* \"#utility.yul\":17578:17649   */\n      tag_353\n        /* \"#utility.yul\":17646:17647   */\n      0x00\n        /* \"#utility.yul\":17635:17644   */\n      dup4\n        /* \"#utility.yul\":17631:17648   */\n      add\n        /* \"#utility.yul\":17622:17628   */\n      dup7\n        /* \"#utility.yul\":17578:17649   */\n      tag_121\n      jump\t// in\n    tag_353:\n        /* \"#utility.yul\":17659:17731   */\n      tag_354\n        /* \"#utility.yul\":17727:17729   */\n      0x20\n        /* \"#utility.yul\":17716:17725   */\n      dup4\n        /* \"#utility.yul\":17712:17730   */\n      add\n        /* \"#utility.yul\":17703:17709   */\n      dup6\n        /* \"#utility.yul\":17659:17731   */\n      tag_121\n      jump\t// in\n    tag_354:\n        /* \"#utility.yul\":17741:17813   */\n      tag_355\n        /* \"#utility.yul\":17809:17811   */\n      0x40\n        /* \"#utility.yul\":17798:17807   */\n      dup4\n        /* \"#utility.yul\":17794:17812   */\n      add\n        /* \"#utility.yul\":17785:17791   */\n      dup5\n        /* \"#utility.yul\":17741:17813   */\n      tag_126\n      jump\t// in\n    tag_355:\n        /* \"#utility.yul\":17378:17820   */\n      swap5\n      swap4\n      pop\n      pop\n      pop\n      pop\n      jump\t// out\n        /* \"#utility.yul\":17826:17916   */\n    tag_157:\n        /* \"#utility.yul\":17860:17867   */\n      0x00\n        /* \"#utility.yul\":17903:17908   */\n      dup2\n        /* \"#utility.yul\":17896:17909   */\n      iszero\n        /* \"#utility.yul\":17889:17910   */\n      iszero\n        /* \"#utility.yul\":17878:17910   */\n      swap1\n      pop\n        /* \"#utility.yul\":17826:17916   */\n      swap2\n      swap1\n      pop\n      jump\t// out\n        /* \"#utility.yul\":17922:18038   */\n    tag_158:\n        /* \"#utility.yul\":17992:18013   */\n      tag_358\n        /* \"#utility.yul\":18007:18012   */\n      dup2\n        /* \"#utility.yul\":17992:18013   */\n      tag_157\n      jump\t// in\n    tag_358:\n        /* \"#utility.yul\":17985:17990   */\n      dup2\n        /* \"#utility.yul\":17982:18014   */\n      eq\n        /* \"#utility.yul\":17972:18032   */\n      tag_359\n      jumpi\n        /* \"#utility.yul\":18028:18029   */\n      0x00\n        /* \"#utility.yul\":18025:18026   */\n      dup1\n        /* \"#utility.yul\":18018:18030   */\n      revert\n        /* \"#utility.yul\":17972:18032   */\n    tag_359:\n        /* \"#utility.yul\":17922:18038   */\n      pop\n      jump\t// out\n        /* \"#utility.yul\":18044:18181   */\n    tag_159:\n        /* \"#utility.yul\":18098:18103   */\n      0x00\n        /* \"#utility.yul\":18129:18135   */\n      dup2\n        /* \"#utility.yul\":18123:18136   */\n      mload\n        /* \"#utility.yul\":18114:18136   */\n      swap1\n      pop\n        /* \"#utility.yul\":18145:18175   */\n      tag_361\n        /* \"#utility.yul\":18169:18174   */\n      dup2\n        /* \"#utility.yul\":18145:18175   */\n      tag_158\n      jump\t// in\n    tag_361:\n        /* \"#utility.yul\":18044:18181   */\n      swap3\n      swap2\n      pop\n      pop\n      jump\t// out\n        /* \"#utility.yul\":18187:18532   */\n    tag_76:\n        /* \"#utility.yul\":18254:18260   */\n      0x00\n        /* \"#utility.yul\":18303:18305   */\n      0x20\n        /* \"#utility.yul\":18291:18300   */\n      dup3\n        /* \"#utility.yul\":18282:18289   */\n      dup5\n        /* \"#utility.yul\":18278:18301   */\n      sub\n        /* \"#utility.yul\":18274:18306   */\n      slt\n        /* \"#utility.yul\":18271:18390   */\n      iszero\n      tag_363\n      jumpi\n        /* \"#utility.yul\":18309:18388   */\n      tag_364\n      tag_104\n      jump\t// in\n    tag_364:\n        /* \"#utility.yul\":18271:18390   */\n    tag_363:\n        /* \"#utility.yul\":18429:18430   */\n      0x00\n        /* \"#utility.yul\":18454:18515   */\n      tag_365\n        /* \"#utility.yul\":18507:18514   */\n      dup5\n        /* \"#utility.yul\":18498:18504   */\n      dup3\n        /* \"#utility.yul\":18487:18496   */\n      dup6\n        /* \"#utility.yul\":18483:18505   */\n      add\n        /* \"#utility.yul\":18454:18515   */\n      tag_159\n      jump\t// in\n    tag_365:\n        /* \"#utility.yul\":18444:18515   */\n      swap2\n      pop\n        /* \"#utility.yul\":18400:18525   */\n      pop\n        /* \"#utility.yul\":18187:18532   */\n      swap3\n      swap2\n      pop\n      pop\n      jump\t// out\n        /* \"#utility.yul\":18538:18732   */\n    tag_78:\n        /* \"#utility.yul\":18578:18582   */\n      0x00\n        /* \"#utility.yul\":18598:18618   */\n      tag_367\n        /* \"#utility.yul\":18616:18617   */\n      dup3\n        /* \"#utility.yul\":18598:18618   */\n      tag_116\n      jump\t// in\n    tag_367:\n        /* \"#utility.yul\":18593:18618   */\n      swap2\n      pop\n        /* \"#utility.yul\":18632:18652   */\n      tag_368\n        /* \"#utility.yul\":18650:18651   */\n      dup4\n        /* \"#utility.yul\":18632:18652   */\n      tag_116\n      jump\t// in\n    tag_368:\n        /* \"#utility.yul\":18627:18652   */\n      swap3\n      pop\n        /* \"#utility.yul\":18676:18677   */\n      dup3\n        /* \"#utility.yul\":18673:18674   */\n      dup3\n        /* \"#utility.yul\":18669:18678   */\n      sub\n        /* \"#utility.yul\":18661:18678   */\n      swap1\n      pop\n        /* \"#utility.yul\":18700:18701   */\n      dup2\n        /* \"#utility.yul\":18694:18698   */\n      dup2\n        /* \"#utility.yul\":18691:18702   */\n      gt\n        /* \"#utility.yul\":18688:18725   */\n      iszero\n      tag_369\n      jumpi\n        /* \"#utility.yul\":18705:18723   */\n      tag_370\n      tag_134\n      jump\t// in\n    tag_370:\n        /* \"#utility.yul\":18688:18725   */\n    tag_369:\n        /* \"#utility.yul\":18538:18732   */\n      swap3\n      swap2\n      pop\n      pop\n      jump\t// out\n        /* \"#utility.yul\":18738:19070   */\n    tag_80:\n        /* \"#utility.yul\":18859:18863   */\n      0x00\n        /* \"#utility.yul\":18897:18899   */\n      0x40\n        /* \"#utility.yul\":18886:18895   */\n      dup3\n        /* \"#utility.yul\":18882:18900   */\n      add\n        /* \"#utility.yul\":18874:18900   */\n      swap1\n      pop\n        /* \"#utility.yul\":18910:18981   */\n      tag_372\n        /* \"#utility.yul\":18978:18979   */\n      0x00\n        /* \"#utility.yul\":18967:18976   */\n      dup4\n        /* \"#utility.yul\":18963:18980   */\n      add\n        /* \"#utility.yul\":18954:18960   */\n      dup6\n        /* \"#utility.yul\":18910:18981   */\n      tag_126\n      jump\t// in\n    tag_372:\n        /* \"#utility.yul\":18991:19063   */\n      tag_373\n        /* \"#utility.yul\":19059:19061   */\n      0x20\n        /* \"#utility.yul\":19048:19057   */\n      dup4\n        /* \"#utility.yul\":19044:19062   */\n      add\n        /* \"#utility.yul\":19035:19041   */\n      dup5\n        /* \"#utility.yul\":18991:19063   */\n      tag_126\n      jump\t// in\n    tag_373:\n        /* \"#utility.yul\":18738:19070   */\n      swap4\n      swap3\n      pop\n      pop\n      pop\n      jump\t// out\n\n    auxdata: 0xa2646970667358221220067a4ae82ae7c414389be9caded8271a656209bbafc3b0ae9b814a875fad8cdd64736f6c63430008180033\n}\n",
				"bytecode": {
					"linkReferences": {},
					"object": "608060405234801562000010575f80fd5b506040516200153938038062001539833981810160405281019062000036919062000229565b335f73ffffffffffffffffffffffffffffffffffffffff168173ffffffffffffffffffffffffffffffffffffffff1603620000aa575f6040517f1e4fbdf7000000000000000000000000000000000000000000000000000000008152600401620000a191906200026a565b60405180910390fd5b620000bb816200010360201b60201c565b508060015f6101000a81548173ffffffffffffffffffffffffffffffffffffffff021916908373ffffffffffffffffffffffffffffffffffffffff1602179055505062000285565b5f805f9054906101000a900473ffffffffffffffffffffffffffffffffffffffff169050815f806101000a81548173ffffffffffffffffffffffffffffffffffffffff021916908373ffffffffffffffffffffffffffffffffffffffff1602179055508173ffffffffffffffffffffffffffffffffffffffff168173ffffffffffffffffffffffffffffffffffffffff167f8be0079c531659141344cd1fd0a4f28419497f9722a3daafe3b4186f6b6457e060405160405180910390a35050565b5f80fd5b5f73ffffffffffffffffffffffffffffffffffffffff82169050919050565b5f620001f382620001c8565b9050919050565b6200020581620001e7565b811462000210575f80fd5b50565b5f815190506200022381620001fa565b92915050565b5f60208284031215620002415762000240620001c4565b5b5f620002508482850162000213565b91505092915050565b6200026481620001e7565b82525050565b5f6020820190506200027f5f83018462000259565b92915050565b6112a680620002935f395ff3fe608060405234801561000f575f80fd5b506004361061007b575f3560e01c80638da5cb5b116100595780638da5cb5b146100c1578063bfb231d2146100df578063f2fde38b14610112578063fc0c546a1461012e5761007b565b80632aebbb261461007f578063715018a61461009b57806380846b2e146100a5575b5f80fd5b610099600480360381019061009491906109cc565b61014c565b005b6100a3610227565b005b6100bf60048036038101906100ba9190610a38565b61023a565b005b6100c961055c565b6040516100d69190610ab5565b60405180910390f35b6100f960048036038101906100f49190610ace565b610583565b6040516101099493929190610b82565b60405180910390f35b61012c60048036038101906101279190610bf6565b610654565b005b6101366106d8565b6040516101439190610c7c565b60405180910390f35b6101546106fd565b60405180608001604052808481526020018381526020018281526020013373ffffffffffffffffffffffffffffffffffffffff1681525060035f60025f8154809291906101a090610cc2565b9190505581526020019081526020015f205f820151815f0190816101c49190610efa565b5060208201518160010155604082015181600201556060820151816003015f6101000a81548173ffffffffffffffffffffffffffffffffffffffff021916908373ffffffffffffffffffffffffffffffffffffffff160217905550905050505050565b61022f6106fd565b6102385f610784565b565b8060035f8481526020019081526020015f20600201541015610291576040517f08c379a000000000000000000000000000000000000000000000000000000000815260040161028890611013565b60405180910390fd5b5f8160035f8581526020019081526020015f20600101546102b29190611031565b90508060015f9054906101000a900473ffffffffffffffffffffffffffffffffffffffff1673ffffffffffffffffffffffffffffffffffffffff166370a08231336040518263ffffffff1660e01b815260040161030f9190610ab5565b602060405180830381865afa15801561032a573d5f803e3d5ffd5b505050506040513d601f19601f8201168201806040525081019061034e9190611086565b101561038f576040517f08c379a0000000000000000000000000000000000000000000000000000000008152600401610386906110fb565b60405180910390fd5b61039761055c565b73ffffffffffffffffffffffffffffffffffffffff1660035f8581526020019081526020015f206003015f9054906101000a900473ffffffffffffffffffffffffffffffffffffffff1673ffffffffffffffffffffffffffffffffffffffff1614610437576040517f08c379a000000000000000000000000000000000000000000000000000000000815260040161042e90611163565b60405180910390fd5b60015f9054906101000a900473ffffffffffffffffffffffffffffffffffffffff1673ffffffffffffffffffffffffffffffffffffffff166323b872dd3361047d61055c565b846040518463ffffffff1660e01b815260040161049c93929190611181565b6020604051808303815f875af11580156104b8573d5f803e3d5ffd5b505050506040513d601f19601f820116820180604052508101906104dc91906111eb565b508160035f8581526020019081526020015f206002015f8282546105009190611216565b925050819055503373ffffffffffffffffffffffffffffffffffffffff167f1452773cf753d0d7c71ed9990f7c7e2bdde4a2d08d187b3647953877e400488d848460405161054f929190611249565b60405180910390a2505050565b5f805f9054906101000a900473ffffffffffffffffffffffffffffffffffffffff16905090565b6003602052805f5260405f205f91509050805f0180546105a290610d36565b80601f01602080910402602001604051908101604052809291908181526020018280546105ce90610d36565b80156106195780601f106105f057610100808354040283529160200191610619565b820191905f5260205f20905b8154815290600101906020018083116105fc57829003601f168201915b505050505090806001015490806002015490806003015f9054906101000a900473ffffffffffffffffffffffffffffffffffffffff16905084565b61065c6106fd565b5f73ffffffffffffffffffffffffffffffffffffffff168173ffffffffffffffffffffffffffffffffffffffff16036106cc575f6040517f1e4fbdf70000000000000000000000000000000000000000000000000000000081526004016106c39190610ab5565b60405180910390fd5b6106d581610784565b50565b60015f9054906101000a900473ffffffffffffffffffffffffffffffffffffffff1681565b610705610845565b73ffffffffffffffffffffffffffffffffffffffff1661072361055c565b73ffffffffffffffffffffffffffffffffffffffff161461078257610746610845565b6040517f118cdaa70000000000000000000000000000000000000000000000000000000081526004016107799190610ab5565b60405180910390fd5b565b5f805f9054906101000a900473ffffffffffffffffffffffffffffffffffffffff169050815f806101000a81548173ffffffffffffffffffffffffffffffffffffffff021916908373ffffffffffffffffffffffffffffffffffffffff1602179055508173ffffffffffffffffffffffffffffffffffffffff168173ffffffffffffffffffffffffffffffffffffffff167f8be0079c531659141344cd1fd0a4f28419497f9722a3daafe3b4186f6b6457e060405160405180910390a35050565b5f33905090565b5f604051905090565b5f80fd5b5f80fd5b5f80fd5b5f80fd5b5f601f19601f8301169050919050565b7f4e487b71000000000000000000000000000000000000000000000000000000005f52604160045260245ffd5b6108ab82610865565b810181811067ffffffffffffffff821117156108ca576108c9610875565b5b80604052505050565b5f6108dc61084c565b90506108e882826108a2565b919050565b5f67ffffffffffffffff82111561090757610906610875565b5b61091082610865565b9050602081019050919050565b828183375f83830152505050565b5f61093d610938846108ed565b6108d3565b90508281526020810184848401111561095957610958610861565b5b61096484828561091d565b509392505050565b5f82601f8301126109805761097f61085d565b5b813561099084826020860161092b565b91505092915050565b5f819050919050565b6109ab81610999565b81146109b5575f80fd5b50565b5f813590506109c6816109a2565b92915050565b5f805f606084860312156109e3576109e2610855565b5b5f84013567ffffffffffffffff811115610a00576109ff610859565b5b610a0c8682870161096c565b9350506020610a1d868287016109b8565b9250506040610a2e868287016109b8565b9150509250925092565b5f8060408385031215610a4e57610a4d610855565b5b5f610a5b858286016109b8565b9250506020610a6c858286016109b8565b9150509250929050565b5f73ffffffffffffffffffffffffffffffffffffffff82169050919050565b5f610a9f82610a76565b9050919050565b610aaf81610a95565b82525050565b5f602082019050610ac85f830184610aa6565b92915050565b5f60208284031215610ae357610ae2610855565b5b5f610af0848285016109b8565b91505092915050565b5f81519050919050565b5f82825260208201905092915050565b5f5b83811015610b30578082015181840152602081019050610b15565b5f8484015250505050565b5f610b4582610af9565b610b4f8185610b03565b9350610b5f818560208601610b13565b610b6881610865565b840191505092915050565b610b7c81610999565b82525050565b5f6080820190508181035f830152610b9a8187610b3b565b9050610ba96020830186610b73565b610bb66040830185610b73565b610bc36060830184610aa6565b95945050505050565b610bd581610a95565b8114610bdf575f80fd5b50565b5f81359050610bf081610bcc565b92915050565b5f60208284031215610c0b57610c0a610855565b5b5f610c1884828501610be2565b91505092915050565b5f819050919050565b5f610c44610c3f610c3a84610a76565b610c21565b610a76565b9050919050565b5f610c5582610c2a565b9050919050565b5f610c6682610c4b565b9050919050565b610c7681610c5c565b82525050565b5f602082019050610c8f5f830184610c6d565b92915050565b7f4e487b71000000000000000000000000000000000000000000000000000000005f52601160045260245ffd5b5f610ccc82610999565b91507fffffffffffffffffffffffffffffffffffffffffffffffffffffffffffffffff8203610cfe57610cfd610c95565b5b600182019050919050565b7f4e487b71000000000000000000000000000000000000000000000000000000005f52602260045260245ffd5b5f6002820490506001821680610d4d57607f821691505b602082108103610d6057610d5f610d09565b5b50919050565b5f819050815f5260205f209050919050565b5f6020601f8301049050919050565b5f82821b905092915050565b5f60088302610dc27fffffffffffffffffffffffffffffffffffffffffffffffffffffffffffffffff82610d87565b610dcc8683610d87565b95508019841693508086168417925050509392505050565b5f610dfe610df9610df484610999565b610c21565b610999565b9050919050565b5f819050919050565b610e1783610de4565b610e2b610e2382610e05565b848454610d93565b825550505050565b5f90565b610e3f610e33565b610e4a818484610e0e565b505050565b5b81811015610e6d57610e625f82610e37565b600181019050610e50565b5050565b601f821115610eb257610e8381610d66565b610e8c84610d78565b81016020851015610e9b578190505b610eaf610ea785610d78565b830182610e4f565b50505b505050565b5f82821c905092915050565b5f610ed25f1984600802610eb7565b1980831691505092915050565b5f610eea8383610ec3565b9150826002028217905092915050565b610f0382610af9565b67ffffffffffffffff811115610f1c57610f1b610875565b5b610f268254610d36565b610f31828285610e71565b5f60209050601f831160018114610f62575f8415610f50578287015190505b610f5a8582610edf565b865550610fc1565b601f198416610f7086610d66565b5f5b82811015610f9757848901518255600182019150602085019450602081019050610f72565b86831015610fb45784890151610fb0601f891682610ec3565b8355505b6001600288020188555050505b505050505050565b7f496e73756666696369656e7420676f6f6473207175616e7469747900000000005f82015250565b5f610ffd601b83610b03565b915061100882610fc9565b602082019050919050565b5f6020820190508181035f83015261102a81610ff1565b9050919050565b5f61103b82610999565b915061104683610999565b925082820261105481610999565b9150828204841483151761106b5761106a610c95565b5b5092915050565b5f81519050611080816109a2565b92915050565b5f6020828403121561109b5761109a610855565b5b5f6110a884828501611072565b91505092915050565b7f496e73756666696369656e742066756e647300000000000000000000000000005f82015250565b5f6110e5601283610b03565b91506110f0826110b1565b602082019050919050565b5f6020820190508181035f830152611112816110d9565b9050919050565b7f496e636f7272656374206f776e657200000000000000000000000000000000005f82015250565b5f61114d600f83610b03565b915061115882611119565b602082019050919050565b5f6020820190508181035f83015261117a81611141565b9050919050565b5f6060820190506111945f830186610aa6565b6111a16020830185610aa6565b6111ae6040830184610b73565b949350505050565b5f8115159050919050565b6111ca816111b6565b81146111d4575f80fd5b50565b5f815190506111e5816111c1565b92915050565b5f60208284031215611200576111ff610855565b5b5f61120d848285016111d7565b91505092915050565b5f61122082610999565b915061122b83610999565b925082820390508181111561124357611242610c95565b5b92915050565b5f60408201905061125c5f830185610b73565b6112696020830184610b73565b939250505056fea2646970667358221220067a4ae82ae7c414389be9caded8271a656209bbafc3b0ae9b814a875fad8cdd64736f6c63430008180033",
					"opcodes": "PUSH1 0x80 PUSH1 0x40 MSTORE CALLVALUE DUP1 ISZERO PUSH3 0x10 JUMPI PUSH0 DUP1 REVERT JUMPDEST POP PUSH1 0x40 MLOAD PUSH3 0x1539 CODESIZE SUB DUP1 PUSH3 0x1539 DUP4 CODECOPY DUP2 DUP2 ADD PUSH1 0x40 MSTORE DUP2 ADD SWAP1 PUSH3 0x36 SWAP2 SWAP1 PUSH3 0x229 JUMP JUMPDEST CALLER PUSH0 PUSH20 0xFFFFFFFFFFFFFFFFFFFFFFFFFFFFFFFFFFFFFFFF AND DUP2 PUSH20 0xFFFFFFFFFFFFFFFFFFFFFFFFFFFFFFFFFFFFFFFF AND SUB PUSH3 0xAA JUMPI PUSH0 PUSH1 0x40 MLOAD PUSH32 0x1E4FBDF700000000000000000000000000000000000000000000000000000000 DUP2 MSTORE PUSH1 0x4 ADD PUSH3 0xA1 SWAP2 SWAP1 PUSH3 0x26A JUMP JUMPDEST PUSH1 0x40 MLOAD DUP1 SWAP2 SUB SWAP1 REVERT JUMPDEST PUSH3 0xBB DUP2 PUSH3 0x103 PUSH1 0x20 SHL PUSH1 0x20 SHR JUMP JUMPDEST POP DUP1 PUSH1 0x1 PUSH0 PUSH2 0x100 EXP DUP2 SLOAD DUP2 PUSH20 0xFFFFFFFFFFFFFFFFFFFFFFFFFFFFFFFFFFFFFFFF MUL NOT AND SWAP1 DUP4 PUSH20 0xFFFFFFFFFFFFFFFFFFFFFFFFFFFFFFFFFFFFFFFF AND MUL OR SWAP1 SSTORE POP POP PUSH3 0x285 JUMP JUMPDEST PUSH0 DUP1 PUSH0 SWAP1 SLOAD SWAP1 PUSH2 0x100 EXP SWAP1 DIV PUSH20 0xFFFFFFFFFFFFFFFFFFFFFFFFFFFFFFFFFFFFFFFF AND SWAP1 POP DUP2 PUSH0 DUP1 PUSH2 0x100 EXP DUP2 SLOAD DUP2 PUSH20 0xFFFFFFFFFFFFFFFFFFFFFFFFFFFFFFFFFFFFFFFF MUL NOT AND SWAP1 DUP4 PUSH20 0xFFFFFFFFFFFFFFFFFFFFFFFFFFFFFFFFFFFFFFFF AND MUL OR SWAP1 SSTORE POP DUP2 PUSH20 0xFFFFFFFFFFFFFFFFFFFFFFFFFFFFFFFFFFFFFFFF AND DUP2 PUSH20 0xFFFFFFFFFFFFFFFFFFFFFFFFFFFFFFFFFFFFFFFF AND PUSH32 0x8BE0079C531659141344CD1FD0A4F28419497F9722A3DAAFE3B4186F6B6457E0 PUSH1 0x40 MLOAD PUSH1 0x40 MLOAD DUP1 SWAP2 SUB SWAP1 LOG3 POP POP JUMP JUMPDEST PUSH0 DUP1 REVERT JUMPDEST PUSH0 PUSH20 0xFFFFFFFFFFFFFFFFFFFFFFFFFFFFFFFFFFFFFFFF DUP3 AND SWAP1 POP SWAP2 SWAP1 POP JUMP JUMPDEST PUSH0 PUSH3 0x1F3 DUP3 PUSH3 0x1C8 JUMP JUMPDEST SWAP1 POP SWAP2 SWAP1 POP JUMP JUMPDEST PUSH3 0x205 DUP2 PUSH3 0x1E7 JUMP JUMPDEST DUP2 EQ PUSH3 0x210 JUMPI PUSH0 DUP1 REVERT JUMPDEST POP JUMP JUMPDEST PUSH0 DUP2 MLOAD SWAP1 POP PUSH3 0x223 DUP2 PUSH3 0x1FA JUMP JUMPDEST SWAP3 SWAP2 POP POP JUMP JUMPDEST PUSH0 PUSH1 0x20 DUP3 DUP5 SUB SLT ISZERO PUSH3 0x241 JUMPI PUSH3 0x240 PUSH3 0x1C4 JUMP JUMPDEST JUMPDEST PUSH0 PUSH3 0x250 DUP5 DUP3 DUP6 ADD PUSH3 0x213 JUMP JUMPDEST SWAP2 POP POP SWAP3 SWAP2 POP POP JUMP JUMPDEST PUSH3 0x264 DUP2 PUSH3 0x1E7 JUMP JUMPDEST DUP3 MSTORE POP POP JUMP JUMPDEST PUSH0 PUSH1 0x20 DUP3 ADD SWAP1 POP PUSH3 0x27F PUSH0 DUP4 ADD DUP5 PUSH3 0x259 JUMP JUMPDEST SWAP3 SWAP2 POP POP JUMP JUMPDEST PUSH2 0x12A6 DUP1 PUSH3 0x293 PUSH0 CODECOPY PUSH0 RETURN INVALID PUSH1 0x80 PUSH1 0x40 MSTORE CALLVALUE DUP1 ISZERO PUSH2 0xF JUMPI PUSH0 DUP1 REVERT JUMPDEST POP PUSH1 0x4 CALLDATASIZE LT PUSH2 0x7B JUMPI PUSH0 CALLDATALOAD PUSH1 0xE0 SHR DUP1 PUSH4 0x8DA5CB5B GT PUSH2 0x59 JUMPI DUP1 PUSH4 0x8DA5CB5B EQ PUSH2 0xC1 JUMPI DUP1 PUSH4 0xBFB231D2 EQ PUSH2 0xDF JUMPI DUP1 PUSH4 0xF2FDE38B EQ PUSH2 0x112 JUMPI DUP1 PUSH4 0xFC0C546A EQ PUSH2 0x12E JUMPI PUSH2 0x7B JUMP JUMPDEST DUP1 PUSH4 0x2AEBBB26 EQ PUSH2 0x7F JUMPI DUP1 PUSH4 0x715018A6 EQ PUSH2 0x9B JUMPI DUP1 PUSH4 0x80846B2E EQ PUSH2 0xA5 JUMPI JUMPDEST PUSH0 DUP1 REVERT JUMPDEST PUSH2 0x99 PUSH1 0x4 DUP1 CALLDATASIZE SUB DUP2 ADD SWAP1 PUSH2 0x94 SWAP2 SWAP1 PUSH2 0x9CC JUMP JUMPDEST PUSH2 0x14C JUMP JUMPDEST STOP JUMPDEST PUSH2 0xA3 PUSH2 0x227 JUMP JUMPDEST STOP JUMPDEST PUSH2 0xBF PUSH1 0x4 DUP1 CALLDATASIZE SUB DUP2 ADD SWAP1 PUSH2 0xBA SWAP2 SWAP1 PUSH2 0xA38 JUMP JUMPDEST PUSH2 0x23A JUMP JUMPDEST STOP JUMPDEST PUSH2 0xC9 PUSH2 0x55C JUMP JUMPDEST PUSH1 0x40 MLOAD PUSH2 0xD6 SWAP2 SWAP1 PUSH2 0xAB5 JUMP JUMPDEST PUSH1 0x40 MLOAD DUP1 SWAP2 SUB SWAP1 RETURN JUMPDEST PUSH2 0xF9 PUSH1 0x4 DUP1 CALLDATASIZE SUB DUP2 ADD SWAP1 PUSH2 0xF4 SWAP2 SWAP1 PUSH2 0xACE JUMP JUMPDEST PUSH2 0x583 JUMP JUMPDEST PUSH1 0x40 MLOAD PUSH2 0x109 SWAP5 SWAP4 SWAP3 SWAP2 SWAP1 PUSH2 0xB82 JUMP JUMPDEST PUSH1 0x40 MLOAD DUP1 SWAP2 SUB SWAP1 RETURN JUMPDEST PUSH2 0x12C PUSH1 0x4 DUP1 CALLDATASIZE SUB DUP2 ADD SWAP1 PUSH2 0x127 SWAP2 SWAP1 PUSH2 0xBF6 JUMP JUMPDEST PUSH2 0x654 JUMP JUMPDEST STOP JUMPDEST PUSH2 0x136 PUSH2 0x6D8 JUMP JUMPDEST PUSH1 0x40 MLOAD PUSH2 0x143 SWAP2 SWAP1 PUSH2 0xC7C JUMP JUMPDEST PUSH1 0x40 MLOAD DUP1 SWAP2 SUB SWAP1 RETURN JUMPDEST PUSH2 0x154 PUSH2 0x6FD JUMP JUMPDEST PUSH1 0x40 MLOAD DUP1 PUSH1 0x80 ADD PUSH1 0x40 MSTORE DUP1 DUP5 DUP2 MSTORE PUSH1 0x20 ADD DUP4 DUP2 MSTORE PUSH1 0x20 ADD DUP3 DUP2 MSTORE PUSH1 0x20 ADD CALLER PUSH20 0xFFFFFFFFFFFFFFFFFFFFFFFFFFFFFFFFFFFFFFFF AND DUP2 MSTORE POP PUSH1 0x3 PUSH0 PUSH1 0x2 PUSH0 DUP2 SLOAD DUP1 SWAP3 SWAP2 SWAP1 PUSH2 0x1A0 SWAP1 PUSH2 0xCC2 JUMP JUMPDEST SWAP2 SWAP1 POP SSTORE DUP2 MSTORE PUSH1 0x20 ADD SWAP1 DUP2 MSTORE PUSH1 0x20 ADD PUSH0 KECCAK256 PUSH0 DUP3 ADD MLOAD DUP2 PUSH0 ADD SWAP1 DUP2 PUSH2 0x1C4 SWAP2 SWAP1 PUSH2 0xEFA JUMP JUMPDEST POP PUSH1 0x20 DUP3 ADD MLOAD DUP2 PUSH1 0x1 ADD SSTORE PUSH1 0x40 DUP3 ADD MLOAD DUP2 PUSH1 0x2 ADD SSTORE PUSH1 0x60 DUP3 ADD MLOAD DUP2 PUSH1 0x3 ADD PUSH0 PUSH2 0x100 EXP DUP2 SLOAD DUP2 PUSH20 0xFFFFFFFFFFFFFFFFFFFFFFFFFFFFFFFFFFFFFFFF MUL NOT AND SWAP1 DUP4 PUSH20 0xFFFFFFFFFFFFFFFFFFFFFFFFFFFFFFFFFFFFFFFF AND MUL OR SWAP1 SSTORE POP SWAP1 POP POP POP POP POP JUMP JUMPDEST PUSH2 0x22F PUSH2 0x6FD JUMP JUMPDEST PUSH2 0x238 PUSH0 PUSH2 0x784 JUMP JUMPDEST JUMP JUMPDEST DUP1 PUSH1 0x3 PUSH0 DUP5 DUP2 MSTORE PUSH1 0x20 ADD SWAP1 DUP2 MSTORE PUSH1 0x20 ADD PUSH0 KECCAK256 PUSH1 0x2 ADD SLOAD LT ISZERO PUSH2 0x291 JUMPI PUSH1 0x40 MLOAD PUSH32 0x8C379A000000000000000000000000000000000000000000000000000000000 DUP2 MSTORE PUSH1 0x4 ADD PUSH2 0x288 SWAP1 PUSH2 0x1013 JUMP JUMPDEST PUSH1 0x40 MLOAD DUP1 SWAP2 SUB SWAP1 REVERT JUMPDEST PUSH0 DUP2 PUSH1 0x3 PUSH0 DUP6 DUP2 MSTORE PUSH1 0x20 ADD SWAP1 DUP2 MSTORE PUSH1 0x20 ADD PUSH0 KECCAK256 PUSH1 0x1 ADD SLOAD PUSH2 0x2B2 SWAP2 SWAP1 PUSH2 0x1031 JUMP JUMPDEST SWAP1 POP DUP1 PUSH1 0x1 PUSH0 SWAP1 SLOAD SWAP1 PUSH2 0x100 EXP SWAP1 DIV PUSH20 0xFFFFFFFFFFFFFFFFFFFFFFFFFFFFFFFFFFFFFFFF AND PUSH20 0xFFFFFFFFFFFFFFFFFFFFFFFFFFFFFFFFFFFFFFFF AND PUSH4 0x70A08231 CALLER PUSH1 0x40 MLOAD DUP3 PUSH4 0xFFFFFFFF AND PUSH1 0xE0 SHL DUP2 MSTORE PUSH1 0x4 ADD PUSH2 0x30F SWAP2 SWAP1 PUSH2 0xAB5 JUMP JUMPDEST PUSH1 0x20 PUSH1 0x40 MLOAD DUP1 DUP4 SUB DUP2 DUP7 GAS STATICCALL ISZERO DUP1 ISZERO PUSH2 0x32A JUMPI RETURNDATASIZE PUSH0 DUP1 RETURNDATACOPY RETURNDATASIZE PUSH0 REVERT JUMPDEST POP POP POP POP PUSH1 0x40 MLOAD RETURNDATASIZE PUSH1 0x1F NOT PUSH1 0x1F DUP3 ADD AND DUP3 ADD DUP1 PUSH1 0x40 MSTORE POP DUP2 ADD SWAP1 PUSH2 0x34E SWAP2 SWAP1 PUSH2 0x1086 JUMP JUMPDEST LT ISZERO PUSH2 0x38F JUMPI PUSH1 0x40 MLOAD PUSH32 0x8C379A000000000000000000000000000000000000000000000000000000000 DUP2 MSTORE PUSH1 0x4 ADD PUSH2 0x386 SWAP1 PUSH2 0x10FB JUMP JUMPDEST PUSH1 0x40 MLOAD DUP1 SWAP2 SUB SWAP1 REVERT JUMPDEST PUSH2 0x397 PUSH2 0x55C JUMP JUMPDEST PUSH20 0xFFFFFFFFFFFFFFFFFFFFFFFFFFFFFFFFFFFFFFFF AND PUSH1 0x3 PUSH0 DUP6 DUP2 MSTORE PUSH1 0x20 ADD SWAP1 DUP2 MSTORE PUSH1 0x20 ADD PUSH0 KECCAK256 PUSH1 0x3 ADD PUSH0 SWAP1 SLOAD SWAP1 PUSH2 0x100 EXP SWAP1 DIV PUSH20 0xFFFFFFFFFFFFFFFFFFFFFFFFFFFFFFFFFFFFFFFF AND PUSH20 0xFFFFFFFFFFFFFFFFFFFFFFFFFFFFFFFFFFFFFFFF AND EQ PUSH2 0x437 JUMPI PUSH1 0x40 MLOAD PUSH32 0x8C379A000000000000000000000000000000000000000000000000000000000 DUP2 MSTORE PUSH1 0x4 ADD PUSH2 0x42E SWAP1 PUSH2 0x1163 JUMP JUMPDEST PUSH1 0x40 MLOAD DUP1 SWAP2 SUB SWAP1 REVERT JUMPDEST PUSH1 0x1 PUSH0 SWAP1 SLOAD SWAP1 PUSH2 0x100 EXP SWAP1 DIV PUSH20 0xFFFFFFFFFFFFFFFFFFFFFFFFFFFFFFFFFFFFFFFF AND PUSH20 0xFFFFFFFFFFFFFFFFFFFFFFFFFFFFFFFFFFFFFFFF AND PUSH4 0x23B872DD CALLER PUSH2 0x47D PUSH2 0x55C JUMP JUMPDEST DUP5 PUSH1 0x40 MLOAD DUP5 PUSH4 0xFFFFFFFF AND PUSH1 0xE0 SHL DUP2 MSTORE PUSH1 0x4 ADD PUSH2 0x49C SWAP4 SWAP3 SWAP2 SWAP1 PUSH2 0x1181 JUMP JUMPDEST PUSH1 0x20 PUSH1 0x40 MLOAD DUP1 DUP4 SUB DUP2 PUSH0 DUP8 GAS CALL ISZERO DUP1 ISZERO PUSH2 0x4B8 JUMPI RETURNDATASIZE PUSH0 DUP1 RETURNDATACOPY RETURNDATASIZE PUSH0 REVERT JUMPDEST POP POP POP POP PUSH1 0x40 MLOAD RETURNDATASIZE PUSH1 0x1F NOT PUSH1 0x1F DUP3 ADD AND DUP3 ADD DUP1 PUSH1 0x40 MSTORE POP DUP2 ADD SWAP1 PUSH2 0x4DC SWAP2 SWAP1 PUSH2 0x11EB JUMP JUMPDEST POP DUP2 PUSH1 0x3 PUSH0 DUP6 DUP2 MSTORE PUSH1 0x20 ADD SWAP1 DUP2 MSTORE PUSH1 0x20 ADD PUSH0 KECCAK256 PUSH1 0x2 ADD PUSH0 DUP3 DUP3 SLOAD PUSH2 0x500 SWAP2 SWAP1 PUSH2 0x1216 JUMP JUMPDEST SWAP3 POP POP DUP2 SWAP1 SSTORE POP CALLER PUSH20 0xFFFFFFFFFFFFFFFFFFFFFFFFFFFFFFFFFFFFFFFF AND PUSH32 0x1452773CF753D0D7C71ED9990F7C7E2BDDE4A2D08D187B3647953877E400488D DUP5 DUP5 PUSH1 0x40 MLOAD PUSH2 0x54F SWAP3 SWAP2 SWAP1 PUSH2 0x1249 JUMP JUMPDEST PUSH1 0x40 MLOAD DUP1 SWAP2 SUB SWAP1 LOG2 POP POP POP JUMP JUMPDEST PUSH0 DUP1 PUSH0 SWAP1 SLOAD SWAP1 PUSH2 0x100 EXP SWAP1 DIV PUSH20 0xFFFFFFFFFFFFFFFFFFFFFFFFFFFFFFFFFFFFFFFF AND SWAP1 POP SWAP1 JUMP JUMPDEST PUSH1 0x3 PUSH1 0x20 MSTORE DUP1 PUSH0 MSTORE PUSH1 0x40 PUSH0 KECCAK256 PUSH0 SWAP2 POP SWAP1 POP DUP1 PUSH0 ADD DUP1 SLOAD PUSH2 0x5A2 SWAP1 PUSH2 0xD36 JUMP JUMPDEST DUP1 PUSH1 0x1F ADD PUSH1 0x20 DUP1 SWAP2 DIV MUL PUSH1 0x20 ADD PUSH1 0x40 MLOAD SWAP1 DUP2 ADD PUSH1 0x40 MSTORE DUP1 SWAP3 SWAP2 SWAP1 DUP2 DUP2 MSTORE PUSH1 0x20 ADD DUP3 DUP1 SLOAD PUSH2 0x5CE SWAP1 PUSH2 0xD36 JUMP JUMPDEST DUP1 ISZERO PUSH2 0x619 JUMPI DUP1 PUSH1 0x1F LT PUSH2 0x5F0 JUMPI PUSH2 0x100 DUP1 DUP4 SLOAD DIV MUL DUP4 MSTORE SWAP2 PUSH1 0x20 ADD SWAP2 PUSH2 0x619 JUMP JUMPDEST DUP3 ADD SWAP2 SWAP1 PUSH0 MSTORE PUSH1 0x20 PUSH0 KECCAK256 SWAP1 JUMPDEST DUP2 SLOAD DUP2 MSTORE SWAP1 PUSH1 0x1 ADD SWAP1 PUSH1 0x20 ADD DUP1 DUP4 GT PUSH2 0x5FC JUMPI DUP3 SWAP1 SUB PUSH1 0x1F AND DUP3 ADD SWAP2 JUMPDEST POP POP POP POP POP SWAP1 DUP1 PUSH1 0x1 ADD SLOAD SWAP1 DUP1 PUSH1 0x2 ADD SLOAD SWAP1 DUP1 PUSH1 0x3 ADD PUSH0 SWAP1 SLOAD SWAP1 PUSH2 0x100 EXP SWAP1 DIV PUSH20 0xFFFFFFFFFFFFFFFFFFFFFFFFFFFFFFFFFFFFFFFF AND SWAP1 POP DUP5 JUMP JUMPDEST PUSH2 0x65C PUSH2 0x6FD JUMP JUMPDEST PUSH0 PUSH20 0xFFFFFFFFFFFFFFFFFFFFFFFFFFFFFFFFFFFFFFFF AND DUP2 PUSH20 0xFFFFFFFFFFFFFFFFFFFFFFFFFFFFFFFFFFFFFFFF AND SUB PUSH2 0x6CC JUMPI PUSH0 PUSH1 0x40 MLOAD PUSH32 0x1E4FBDF700000000000000000000000000000000000000000000000000000000 DUP2 MSTORE PUSH1 0x4 ADD PUSH2 0x6C3 SWAP2 SWAP1 PUSH2 0xAB5 JUMP JUMPDEST PUSH1 0x40 MLOAD DUP1 SWAP2 SUB SWAP1 REVERT JUMPDEST PUSH2 0x6D5 DUP2 PUSH2 0x784 JUMP JUMPDEST POP JUMP JUMPDEST PUSH1 0x1 PUSH0 SWAP1 SLOAD SWAP1 PUSH2 0x100 EXP SWAP1 DIV PUSH20 0xFFFFFFFFFFFFFFFFFFFFFFFFFFFFFFFFFFFFFFFF AND DUP2 JUMP JUMPDEST PUSH2 0x705 PUSH2 0x845 JUMP JUMPDEST PUSH20 0xFFFFFFFFFFFFFFFFFFFFFFFFFFFFFFFFFFFFFFFF AND PUSH2 0x723 PUSH2 0x55C JUMP JUMPDEST PUSH20 0xFFFFFFFFFFFFFFFFFFFFFFFFFFFFFFFFFFFFFFFF AND EQ PUSH2 0x782 JUMPI PUSH2 0x746 PUSH2 0x845 JUMP JUMPDEST PUSH1 0x40 MLOAD PUSH32 0x118CDAA700000000000000000000000000000000000000000000000000000000 DUP2 MSTORE PUSH1 0x4 ADD PUSH2 0x779 SWAP2 SWAP1 PUSH2 0xAB5 JUMP JUMPDEST PUSH1 0x40 MLOAD DUP1 SWAP2 SUB SWAP1 REVERT JUMPDEST JUMP JUMPDEST PUSH0 DUP1 PUSH0 SWAP1 SLOAD SWAP1 PUSH2 0x100 EXP SWAP1 DIV PUSH20 0xFFFFFFFFFFFFFFFFFFFFFFFFFFFFFFFFFFFFFFFF AND SWAP1 POP DUP2 PUSH0 DUP1 PUSH2 0x100 EXP DUP2 SLOAD DUP2 PUSH20 0xFFFFFFFFFFFFFFFFFFFFFFFFFFFFFFFFFFFFFFFF MUL NOT AND SWAP1 DUP4 PUSH20 0xFFFFFFFFFFFFFFFFFFFFFFFFFFFFFFFFFFFFFFFF AND MUL OR SWAP1 SSTORE POP DUP2 PUSH20 0xFFFFFFFFFFFFFFFFFFFFFFFFFFFFFFFFFFFFFFFF AND DUP2 PUSH20 0xFFFFFFFFFFFFFFFFFFFFFFFFFFFFFFFFFFFFFFFF AND PUSH32 0x8BE0079C531659141344CD1FD0A4F28419497F9722A3DAAFE3B4186F6B6457E0 PUSH1 0x40 MLOAD PUSH1 0x40 MLOAD DUP1 SWAP2 SUB SWAP1 LOG3 POP POP JUMP JUMPDEST PUSH0 CALLER SWAP1 POP SWAP1 JUMP JUMPDEST PUSH0 PUSH1 0x40 MLOAD SWAP1 POP SWAP1 JUMP JUMPDEST PUSH0 DUP1 REVERT JUMPDEST PUSH0 DUP1 REVERT JUMPDEST PUSH0 DUP1 REVERT JUMPDEST PUSH0 DUP1 REVERT JUMPDEST PUSH0 PUSH1 0x1F NOT PUSH1 0x1F DUP4 ADD AND SWAP1 POP SWAP2 SWAP1 POP JUMP JUMPDEST PUSH32 0x4E487B7100000000000000000000000000000000000000000000000000000000 PUSH0 MSTORE PUSH1 0x41 PUSH1 0x4 MSTORE PUSH1 0x24 PUSH0 REVERT JUMPDEST PUSH2 0x8AB DUP3 PUSH2 0x865 JUMP JUMPDEST DUP2 ADD DUP2 DUP2 LT PUSH8 0xFFFFFFFFFFFFFFFF DUP3 GT OR ISZERO PUSH2 0x8CA JUMPI PUSH2 0x8C9 PUSH2 0x875 JUMP JUMPDEST JUMPDEST DUP1 PUSH1 0x40 MSTORE POP POP POP JUMP JUMPDEST PUSH0 PUSH2 0x8DC PUSH2 0x84C JUMP JUMPDEST SWAP1 POP PUSH2 0x8E8 DUP3 DUP3 PUSH2 0x8A2 JUMP JUMPDEST SWAP2 SWAP1 POP JUMP JUMPDEST PUSH0 PUSH8 0xFFFFFFFFFFFFFFFF DUP3 GT ISZERO PUSH2 0x907 JUMPI PUSH2 0x906 PUSH2 0x875 JUMP JUMPDEST JUMPDEST PUSH2 0x910 DUP3 PUSH2 0x865 JUMP JUMPDEST SWAP1 POP PUSH1 0x20 DUP2 ADD SWAP1 POP SWAP2 SWAP1 POP JUMP JUMPDEST DUP3 DUP2 DUP4 CALLDATACOPY PUSH0 DUP4 DUP4 ADD MSTORE POP POP POP JUMP JUMPDEST PUSH0 PUSH2 0x93D PUSH2 0x938 DUP5 PUSH2 0x8ED JUMP JUMPDEST PUSH2 0x8D3 JUMP JUMPDEST SWAP1 POP DUP3 DUP2 MSTORE PUSH1 0x20 DUP2 ADD DUP5 DUP5 DUP5 ADD GT ISZERO PUSH2 0x959 JUMPI PUSH2 0x958 PUSH2 0x861 JUMP JUMPDEST JUMPDEST PUSH2 0x964 DUP5 DUP3 DUP6 PUSH2 0x91D JUMP JUMPDEST POP SWAP4 SWAP3 POP POP POP JUMP JUMPDEST PUSH0 DUP3 PUSH1 0x1F DUP4 ADD SLT PUSH2 0x980 JUMPI PUSH2 0x97F PUSH2 0x85D JUMP JUMPDEST JUMPDEST DUP2 CALLDATALOAD PUSH2 0x990 DUP5 DUP3 PUSH1 0x20 DUP7 ADD PUSH2 0x92B JUMP JUMPDEST SWAP2 POP POP SWAP3 SWAP2 POP POP JUMP JUMPDEST PUSH0 DUP2 SWAP1 POP SWAP2 SWAP1 POP JUMP JUMPDEST PUSH2 0x9AB DUP2 PUSH2 0x999 JUMP JUMPDEST DUP2 EQ PUSH2 0x9B5 JUMPI PUSH0 DUP1 REVERT JUMPDEST POP JUMP JUMPDEST PUSH0 DUP2 CALLDATALOAD SWAP1 POP PUSH2 0x9C6 DUP2 PUSH2 0x9A2 JUMP JUMPDEST SWAP3 SWAP2 POP POP JUMP JUMPDEST PUSH0 DUP1 PUSH0 PUSH1 0x60 DUP5 DUP7 SUB SLT ISZERO PUSH2 0x9E3 JUMPI PUSH2 0x9E2 PUSH2 0x855 JUMP JUMPDEST JUMPDEST PUSH0 DUP5 ADD CALLDATALOAD PUSH8 0xFFFFFFFFFFFFFFFF DUP2 GT ISZERO PUSH2 0xA00 JUMPI PUSH2 0x9FF PUSH2 0x859 JUMP JUMPDEST JUMPDEST PUSH2 0xA0C DUP7 DUP3 DUP8 ADD PUSH2 0x96C JUMP JUMPDEST SWAP4 POP POP PUSH1 0x20 PUSH2 0xA1D DUP7 DUP3 DUP8 ADD PUSH2 0x9B8 JUMP JUMPDEST SWAP3 POP POP PUSH1 0x40 PUSH2 0xA2E DUP7 DUP3 DUP8 ADD PUSH2 0x9B8 JUMP JUMPDEST SWAP2 POP POP SWAP3 POP SWAP3 POP SWAP3 JUMP JUMPDEST PUSH0 DUP1 PUSH1 0x40 DUP4 DUP6 SUB SLT ISZERO PUSH2 0xA4E JUMPI PUSH2 0xA4D PUSH2 0x855 JUMP JUMPDEST JUMPDEST PUSH0 PUSH2 0xA5B DUP6 DUP3 DUP7 ADD PUSH2 0x9B8 JUMP JUMPDEST SWAP3 POP POP PUSH1 0x20 PUSH2 0xA6C DUP6 DUP3 DUP7 ADD PUSH2 0x9B8 JUMP JUMPDEST SWAP2 POP POP SWAP3 POP SWAP3 SWAP1 POP JUMP JUMPDEST PUSH0 PUSH20 0xFFFFFFFFFFFFFFFFFFFFFFFFFFFFFFFFFFFFFFFF DUP3 AND SWAP1 POP SWAP2 SWAP1 POP JUMP JUMPDEST PUSH0 PUSH2 0xA9F DUP3 PUSH2 0xA76 JUMP JUMPDEST SWAP1 POP SWAP2 SWAP1 POP JUMP JUMPDEST PUSH2 0xAAF DUP2 PUSH2 0xA95 JUMP JUMPDEST DUP3 MSTORE POP POP JUMP JUMPDEST PUSH0 PUSH1 0x20 DUP3 ADD SWAP1 POP PUSH2 0xAC8 PUSH0 DUP4 ADD DUP5 PUSH2 0xAA6 JUMP JUMPDEST SWAP3 SWAP2 POP POP JUMP JUMPDEST PUSH0 PUSH1 0x20 DUP3 DUP5 SUB SLT ISZERO PUSH2 0xAE3 JUMPI PUSH2 0xAE2 PUSH2 0x855 JUMP JUMPDEST JUMPDEST PUSH0 PUSH2 0xAF0 DUP5 DUP3 DUP6 ADD PUSH2 0x9B8 JUMP JUMPDEST SWAP2 POP POP SWAP3 SWAP2 POP POP JUMP JUMPDEST PUSH0 DUP2 MLOAD SWAP1 POP SWAP2 SWAP1 POP JUMP JUMPDEST PUSH0 DUP3 DUP3 MSTORE PUSH1 0x20 DUP3 ADD SWAP1 POP SWAP3 SWAP2 POP POP JUMP JUMPDEST PUSH0 JUMPDEST DUP4 DUP2 LT ISZERO PUSH2 0xB30 JUMPI DUP1 DUP3 ADD MLOAD DUP2 DUP5 ADD MSTORE PUSH1 0x20 DUP2 ADD SWAP1 POP PUSH2 0xB15 JUMP JUMPDEST PUSH0 DUP5 DUP5 ADD MSTORE POP POP POP POP JUMP JUMPDEST PUSH0 PUSH2 0xB45 DUP3 PUSH2 0xAF9 JUMP JUMPDEST PUSH2 0xB4F DUP2 DUP6 PUSH2 0xB03 JUMP JUMPDEST SWAP4 POP PUSH2 0xB5F DUP2 DUP6 PUSH1 0x20 DUP7 ADD PUSH2 0xB13 JUMP JUMPDEST PUSH2 0xB68 DUP2 PUSH2 0x865 JUMP JUMPDEST DUP5 ADD SWAP2 POP POP SWAP3 SWAP2 POP POP JUMP JUMPDEST PUSH2 0xB7C DUP2 PUSH2 0x999 JUMP JUMPDEST DUP3 MSTORE POP POP JUMP JUMPDEST PUSH0 PUSH1 0x80 DUP3 ADD SWAP1 POP DUP2 DUP2 SUB PUSH0 DUP4 ADD MSTORE PUSH2 0xB9A DUP2 DUP8 PUSH2 0xB3B JUMP JUMPDEST SWAP1 POP PUSH2 0xBA9 PUSH1 0x20 DUP4 ADD DUP7 PUSH2 0xB73 JUMP JUMPDEST PUSH2 0xBB6 PUSH1 0x40 DUP4 ADD DUP6 PUSH2 0xB73 JUMP JUMPDEST PUSH2 0xBC3 PUSH1 0x60 DUP4 ADD DUP5 PUSH2 0xAA6 JUMP JUMPDEST SWAP6 SWAP5 POP POP POP POP POP JUMP JUMPDEST PUSH2 0xBD5 DUP2 PUSH2 0xA95 JUMP JUMPDEST DUP2 EQ PUSH2 0xBDF JUMPI PUSH0 DUP1 REVERT JUMPDEST POP JUMP JUMPDEST PUSH0 DUP2 CALLDATALOAD SWAP1 POP PUSH2 0xBF0 DUP2 PUSH2 0xBCC JUMP JUMPDEST SWAP3 SWAP2 POP POP JUMP JUMPDEST PUSH0 PUSH1 0x20 DUP3 DUP5 SUB SLT ISZERO PUSH2 0xC0B JUMPI PUSH2 0xC0A PUSH2 0x855 JUMP JUMPDEST JUMPDEST PUSH0 PUSH2 0xC18 DUP5 DUP3 DUP6 ADD PUSH2 0xBE2 JUMP JUMPDEST SWAP2 POP POP SWAP3 SWAP2 POP POP JUMP JUMPDEST PUSH0 DUP2 SWAP1 POP SWAP2 SWAP1 POP JUMP JUMPDEST PUSH0 PUSH2 0xC44 PUSH2 0xC3F PUSH2 0xC3A DUP5 PUSH2 0xA76 JUMP JUMPDEST PUSH2 0xC21 JUMP JUMPDEST PUSH2 0xA76 JUMP JUMPDEST SWAP1 POP SWAP2 SWAP1 POP JUMP JUMPDEST PUSH0 PUSH2 0xC55 DUP3 PUSH2 0xC2A JUMP JUMPDEST SWAP1 POP SWAP2 SWAP1 POP JUMP JUMPDEST PUSH0 PUSH2 0xC66 DUP3 PUSH2 0xC4B JUMP JUMPDEST SWAP1 POP SWAP2 SWAP1 POP JUMP JUMPDEST PUSH2 0xC76 DUP2 PUSH2 0xC5C JUMP JUMPDEST DUP3 MSTORE POP POP JUMP JUMPDEST PUSH0 PUSH1 0x20 DUP3 ADD SWAP1 POP PUSH2 0xC8F PUSH0 DUP4 ADD DUP5 PUSH2 0xC6D JUMP JUMPDEST SWAP3 SWAP2 POP POP JUMP JUMPDEST PUSH32 0x4E487B7100000000000000000000000000000000000000000000000000000000 PUSH0 MSTORE PUSH1 0x11 PUSH1 0x4 MSTORE PUSH1 0x24 PUSH0 REVERT JUMPDEST PUSH0 PUSH2 0xCCC DUP3 PUSH2 0x999 JUMP JUMPDEST SWAP2 POP PUSH32 0xFFFFFFFFFFFFFFFFFFFFFFFFFFFFFFFFFFFFFFFFFFFFFFFFFFFFFFFFFFFFFFFF DUP3 SUB PUSH2 0xCFE JUMPI PUSH2 0xCFD PUSH2 0xC95 JUMP JUMPDEST JUMPDEST PUSH1 0x1 DUP3 ADD SWAP1 POP SWAP2 SWAP1 POP JUMP JUMPDEST PUSH32 0x4E487B7100000000000000000000000000000000000000000000000000000000 PUSH0 MSTORE PUSH1 0x22 PUSH1 0x4 MSTORE PUSH1 0x24 PUSH0 REVERT JUMPDEST PUSH0 PUSH1 0x2 DUP3 DIV SWAP1 POP PUSH1 0x1 DUP3 AND DUP1 PUSH2 0xD4D JUMPI PUSH1 0x7F DUP3 AND SWAP2 POP JUMPDEST PUSH1 0x20 DUP3 LT DUP2 SUB PUSH2 0xD60 JUMPI PUSH2 0xD5F PUSH2 0xD09 JUMP JUMPDEST JUMPDEST POP SWAP2 SWAP1 POP JUMP JUMPDEST PUSH0 DUP2 SWAP1 POP DUP2 PUSH0 MSTORE PUSH1 0x20 PUSH0 KECCAK256 SWAP1 POP SWAP2 SWAP1 POP JUMP JUMPDEST PUSH0 PUSH1 0x20 PUSH1 0x1F DUP4 ADD DIV SWAP1 POP SWAP2 SWAP1 POP JUMP JUMPDEST PUSH0 DUP3 DUP3 SHL SWAP1 POP SWAP3 SWAP2 POP POP JUMP JUMPDEST PUSH0 PUSH1 0x8 DUP4 MUL PUSH2 0xDC2 PUSH32 0xFFFFFFFFFFFFFFFFFFFFFFFFFFFFFFFFFFFFFFFFFFFFFFFFFFFFFFFFFFFFFFFF DUP3 PUSH2 0xD87 JUMP JUMPDEST PUSH2 0xDCC DUP7 DUP4 PUSH2 0xD87 JUMP JUMPDEST SWAP6 POP DUP1 NOT DUP5 AND SWAP4 POP DUP1 DUP7 AND DUP5 OR SWAP3 POP POP POP SWAP4 SWAP3 POP POP POP JUMP JUMPDEST PUSH0 PUSH2 0xDFE PUSH2 0xDF9 PUSH2 0xDF4 DUP5 PUSH2 0x999 JUMP JUMPDEST PUSH2 0xC21 JUMP JUMPDEST PUSH2 0x999 JUMP JUMPDEST SWAP1 POP SWAP2 SWAP1 POP JUMP JUMPDEST PUSH0 DUP2 SWAP1 POP SWAP2 SWAP1 POP JUMP JUMPDEST PUSH2 0xE17 DUP4 PUSH2 0xDE4 JUMP JUMPDEST PUSH2 0xE2B PUSH2 0xE23 DUP3 PUSH2 0xE05 JUMP JUMPDEST DUP5 DUP5 SLOAD PUSH2 0xD93 JUMP JUMPDEST DUP3 SSTORE POP POP POP POP JUMP JUMPDEST PUSH0 SWAP1 JUMP JUMPDEST PUSH2 0xE3F PUSH2 0xE33 JUMP JUMPDEST PUSH2 0xE4A DUP2 DUP5 DUP5 PUSH2 0xE0E JUMP JUMPDEST POP POP POP JUMP JUMPDEST JUMPDEST DUP2 DUP2 LT ISZERO PUSH2 0xE6D JUMPI PUSH2 0xE62 PUSH0 DUP3 PUSH2 0xE37 JUMP JUMPDEST PUSH1 0x1 DUP2 ADD SWAP1 POP PUSH2 0xE50 JUMP JUMPDEST POP POP JUMP JUMPDEST PUSH1 0x1F DUP3 GT ISZERO PUSH2 0xEB2 JUMPI PUSH2 0xE83 DUP2 PUSH2 0xD66 JUMP JUMPDEST PUSH2 0xE8C DUP5 PUSH2 0xD78 JUMP JUMPDEST DUP2 ADD PUSH1 0x20 DUP6 LT ISZERO PUSH2 0xE9B JUMPI DUP2 SWAP1 POP JUMPDEST PUSH2 0xEAF PUSH2 0xEA7 DUP6 PUSH2 0xD78 JUMP JUMPDEST DUP4 ADD DUP3 PUSH2 0xE4F JUMP JUMPDEST POP POP JUMPDEST POP POP POP JUMP JUMPDEST PUSH0 DUP3 DUP3 SHR SWAP1 POP SWAP3 SWAP2 POP POP JUMP JUMPDEST PUSH0 PUSH2 0xED2 PUSH0 NOT DUP5 PUSH1 0x8 MUL PUSH2 0xEB7 JUMP JUMPDEST NOT DUP1 DUP4 AND SWAP2 POP POP SWAP3 SWAP2 POP POP JUMP JUMPDEST PUSH0 PUSH2 0xEEA DUP4 DUP4 PUSH2 0xEC3 JUMP JUMPDEST SWAP2 POP DUP3 PUSH1 0x2 MUL DUP3 OR SWAP1 POP SWAP3 SWAP2 POP POP JUMP JUMPDEST PUSH2 0xF03 DUP3 PUSH2 0xAF9 JUMP JUMPDEST PUSH8 0xFFFFFFFFFFFFFFFF DUP2 GT ISZERO PUSH2 0xF1C JUMPI PUSH2 0xF1B PUSH2 0x875 JUMP JUMPDEST JUMPDEST PUSH2 0xF26 DUP3 SLOAD PUSH2 0xD36 JUMP JUMPDEST PUSH2 0xF31 DUP3 DUP3 DUP6 PUSH2 0xE71 JUMP JUMPDEST PUSH0 PUSH1 0x20 SWAP1 POP PUSH1 0x1F DUP4 GT PUSH1 0x1 DUP2 EQ PUSH2 0xF62 JUMPI PUSH0 DUP5 ISZERO PUSH2 0xF50 JUMPI DUP3 DUP8 ADD MLOAD SWAP1 POP JUMPDEST PUSH2 0xF5A DUP6 DUP3 PUSH2 0xEDF JUMP JUMPDEST DUP7 SSTORE POP PUSH2 0xFC1 JUMP JUMPDEST PUSH1 0x1F NOT DUP5 AND PUSH2 0xF70 DUP7 PUSH2 0xD66 JUMP JUMPDEST PUSH0 JUMPDEST DUP3 DUP2 LT ISZERO PUSH2 0xF97 JUMPI DUP5 DUP10 ADD MLOAD DUP3 SSTORE PUSH1 0x1 DUP3 ADD SWAP2 POP PUSH1 0x20 DUP6 ADD SWAP5 POP PUSH1 0x20 DUP2 ADD SWAP1 POP PUSH2 0xF72 JUMP JUMPDEST DUP7 DUP4 LT ISZERO PUSH2 0xFB4 JUMPI DUP5 DUP10 ADD MLOAD PUSH2 0xFB0 PUSH1 0x1F DUP10 AND DUP3 PUSH2 0xEC3 JUMP JUMPDEST DUP4 SSTORE POP JUMPDEST PUSH1 0x1 PUSH1 0x2 DUP9 MUL ADD DUP9 SSTORE POP POP POP JUMPDEST POP POP POP POP POP POP JUMP JUMPDEST PUSH32 0x496E73756666696369656E7420676F6F6473207175616E746974790000000000 PUSH0 DUP3 ADD MSTORE POP JUMP JUMPDEST PUSH0 PUSH2 0xFFD PUSH1 0x1B DUP4 PUSH2 0xB03 JUMP JUMPDEST SWAP2 POP PUSH2 0x1008 DUP3 PUSH2 0xFC9 JUMP JUMPDEST PUSH1 0x20 DUP3 ADD SWAP1 POP SWAP2 SWAP1 POP JUMP JUMPDEST PUSH0 PUSH1 0x20 DUP3 ADD SWAP1 POP DUP2 DUP2 SUB PUSH0 DUP4 ADD MSTORE PUSH2 0x102A DUP2 PUSH2 0xFF1 JUMP JUMPDEST SWAP1 POP SWAP2 SWAP1 POP JUMP JUMPDEST PUSH0 PUSH2 0x103B DUP3 PUSH2 0x999 JUMP JUMPDEST SWAP2 POP PUSH2 0x1046 DUP4 PUSH2 0x999 JUMP JUMPDEST SWAP3 POP DUP3 DUP3 MUL PUSH2 0x1054 DUP2 PUSH2 0x999 JUMP JUMPDEST SWAP2 POP DUP3 DUP3 DIV DUP5 EQ DUP4 ISZERO OR PUSH2 0x106B JUMPI PUSH2 0x106A PUSH2 0xC95 JUMP JUMPDEST JUMPDEST POP SWAP3 SWAP2 POP POP JUMP JUMPDEST PUSH0 DUP2 MLOAD SWAP1 POP PUSH2 0x1080 DUP2 PUSH2 0x9A2 JUMP JUMPDEST SWAP3 SWAP2 POP POP JUMP JUMPDEST PUSH0 PUSH1 0x20 DUP3 DUP5 SUB SLT ISZERO PUSH2 0x109B JUMPI PUSH2 0x109A PUSH2 0x855 JUMP JUMPDEST JUMPDEST PUSH0 PUSH2 0x10A8 DUP5 DUP3 DUP6 ADD PUSH2 0x1072 JUMP JUMPDEST SWAP2 POP POP SWAP3 SWAP2 POP POP JUMP JUMPDEST PUSH32 0x496E73756666696369656E742066756E64730000000000000000000000000000 PUSH0 DUP3 ADD MSTORE POP JUMP JUMPDEST PUSH0 PUSH2 0x10E5 PUSH1 0x12 DUP4 PUSH2 0xB03 JUMP JUMPDEST SWAP2 POP PUSH2 0x10F0 DUP3 PUSH2 0x10B1 JUMP JUMPDEST PUSH1 0x20 DUP3 ADD SWAP1 POP SWAP2 SWAP1 POP JUMP JUMPDEST PUSH0 PUSH1 0x20 DUP3 ADD SWAP1 POP DUP2 DUP2 SUB PUSH0 DUP4 ADD MSTORE PUSH2 0x1112 DUP2 PUSH2 0x10D9 JUMP JUMPDEST SWAP1 POP SWAP2 SWAP1 POP JUMP JUMPDEST PUSH32 0x496E636F7272656374206F776E65720000000000000000000000000000000000 PUSH0 DUP3 ADD MSTORE POP JUMP JUMPDEST PUSH0 PUSH2 0x114D PUSH1 0xF DUP4 PUSH2 0xB03 JUMP JUMPDEST SWAP2 POP PUSH2 0x1158 DUP3 PUSH2 0x1119 JUMP JUMPDEST PUSH1 0x20 DUP3 ADD SWAP1 POP SWAP2 SWAP1 POP JUMP JUMPDEST PUSH0 PUSH1 0x20 DUP3 ADD SWAP1 POP DUP2 DUP2 SUB PUSH0 DUP4 ADD MSTORE PUSH2 0x117A DUP2 PUSH2 0x1141 JUMP JUMPDEST SWAP1 POP SWAP2 SWAP1 POP JUMP JUMPDEST PUSH0 PUSH1 0x60 DUP3 ADD SWAP1 POP PUSH2 0x1194 PUSH0 DUP4 ADD DUP7 PUSH2 0xAA6 JUMP JUMPDEST PUSH2 0x11A1 PUSH1 0x20 DUP4 ADD DUP6 PUSH2 0xAA6 JUMP JUMPDEST PUSH2 0x11AE PUSH1 0x40 DUP4 ADD DUP5 PUSH2 0xB73 JUMP JUMPDEST SWAP5 SWAP4 POP POP POP POP JUMP JUMPDEST PUSH0 DUP2 ISZERO ISZERO SWAP1 POP SWAP2 SWAP1 POP JUMP JUMPDEST PUSH2 0x11CA DUP2 PUSH2 0x11B6 JUMP JUMPDEST DUP2 EQ PUSH2 0x11D4 JUMPI PUSH0 DUP1 REVERT JUMPDEST POP JUMP JUMPDEST PUSH0 DUP2 MLOAD SWAP1 POP PUSH2 0x11E5 DUP2 PUSH2 0x11C1 JUMP JUMPDEST SWAP3 SWAP2 POP POP JUMP JUMPDEST PUSH0 PUSH1 0x20 DUP3 DUP5 SUB SLT ISZERO PUSH2 0x1200 JUMPI PUSH2 0x11FF PUSH2 0x855 JUMP JUMPDEST JUMPDEST PUSH0 PUSH2 0x120D DUP5 DUP3 DUP6 ADD PUSH2 0x11D7 JUMP JUMPDEST SWAP2 POP POP SWAP3 SWAP2 POP POP JUMP JUMPDEST PUSH0 PUSH2 0x1220 DUP3 PUSH2 0x999 JUMP JUMPDEST SWAP2 POP PUSH2 0x122B DUP4 PUSH2 0x999 JUMP JUMPDEST SWAP3 POP DUP3 DUP3 SUB SWAP1 POP DUP2 DUP2 GT ISZERO PUSH2 0x1243 JUMPI PUSH2 0x1242 PUSH2 0xC95 JUMP JUMPDEST JUMPDEST SWAP3 SWAP2 POP POP JUMP JUMPDEST PUSH0 PUSH1 0x40 DUP3 ADD SWAP1 POP PUSH2 0x125C PUSH0 DUP4 ADD DUP6 PUSH2 0xB73 JUMP JUMPDEST PUSH2 0x1269 PUSH1 0x20 DUP4 ADD DUP5 PUSH2 0xB73 JUMP JUMPDEST SWAP4 SWAP3 POP POP POP JUMP INVALID LOG2 PUSH5 0x6970667358 0x22 SLT KECCAK256 MOD PUSH27 0x4AE82AE7C414389BE9CADED8271A656209BBAFC3B0AE9B814A875F 0xAD DUP13 0xDD PUSH5 0x736F6C6343 STOP ADDMOD XOR STOP CALLER "
				},
				"gasEstimates": {
					"creation": {
						"codeDepositCost": "954800",
						"executionCost": "infinite",
						"totalCost": "infinite"
					},
					"external": {
						"items(uint256)": "infinite",
						"owner()": "2515",
						"purchaseGoods(uint256,uint256)": "infinite",
						"registerGoods(string,uint256,uint256)": "infinite",
						"renounceOwnership()": "infinite",
						"token()": "infinite",
						"transferOwnership(address)": "infinite"
					}
				},
				"methodIdentifiers": {
					"items(uint256)": "bfb231d2",
					"owner()": "8da5cb5b",
					"purchaseGoods(uint256,uint256)": "80846b2e",
					"registerGoods(string,uint256,uint256)": "2aebbb26",
					"renounceOwnership()": "715018a6",
					"token()": "fc0c546a",
					"transferOwnership(address)": "f2fde38b"
				}
			},
			"storageLayout": {
				"storage": [
					{
						"astId": 8,
						"contract": "contracts/Market.sol:Market",
						"label": "_owner",
						"offset": 0,
						"slot": "0",
						"type": "t_address"
					},
					{
						"astId": 264,
						"contract": "contracts/Market.sol:Market",
						"label": "token",
						"offset": 0,
						"slot": "1",
						"type": "t_contract(IERC20)225"
					},
					{
						"astId": 280,
						"contract": "contracts/Market.sol:Market",
						"label": "id",
						"offset": 0,
						"slot": "2",
						"type": "t_uint256"
					},
					{
						"astId": 294,
						"contract": "contracts/Market.sol:Market",
						"label": "items",
						"offset": 0,
						"slot": "3",
						"type": "t_mapping(t_uint256,t_struct(Item)289_storage)"
					}
				],
				"types": {
					"t_address": {
						"encoding": "inplace",
						"label": "address",
						"numberOfBytes": "20"
					},
					"t_contract(IERC20)225": {
						"encoding": "inplace",
						"label": "contract IERC20",
						"numberOfBytes": "20"
					},
					"t_mapping(t_uint256,t_struct(Item)289_storage)": {
						"encoding": "mapping",
						"key": "t_uint256",
						"label": "mapping(uint256 => struct Market.Item)",
						"numberOfBytes": "32",
						"value": "t_struct(Item)289_storage"
					},
					"t_string_storage": {
						"encoding": "bytes",
						"label": "string",
						"numberOfBytes": "32"
					},
					"t_struct(Item)289_storage": {
						"encoding": "inplace",
						"label": "struct Market.Item",
						"members": [
							{
								"astId": 282,
								"contract": "contracts/Market.sol:Market",
								"label": "name",
								"offset": 0,
								"slot": "0",
								"type": "t_string_storage"
							},
							{
								"astId": 284,
								"contract": "contracts/Market.sol:Market",
								"label": "price",
								"offset": 0,
								"slot": "1",
								"type": "t_uint256"
							},
							{
								"astId": 286,
								"contract": "contracts/Market.sol:Market",
								"label": "quantity",
								"offset": 0,
								"slot": "2",
								"type": "t_uint256"
							},
							{
								"astId": 288,
								"contract": "contracts/Market.sol:Market",
								"label": "owner",
								"offset": 0,
								"slot": "3",
								"type": "t_address"
							}
						],
						"numberOfBytes": "128"
					},
					"t_uint256": {
						"encoding": "inplace",
						"label": "uint256",
						"numberOfBytes": "32"
					}
				}
			},
			"userdoc": {
				"kind": "user",
				"methods": {},
				"version": 1
			}
		}
	}
}