{
	".learneth/Solidity Beginner Course/7.2 Control Flow - Loops/loops.sol": {
		"Loop": {
			"abi": [
				{
					"inputs": [],
					"name": "count",
					"outputs": [
						{
							"internalType": "uint256",
							"name": "",
							"type": "uint256"
						}
					],
					"stateMutability": "view",
					"type": "function"
				},
				{
					"inputs": [],
					"name": "loop",
					"outputs": [],
					"stateMutability": "nonpayable",
					"type": "function"
				}
			],
			"devdoc": {
				"kind": "dev",
				"methods": {},
				"version": 1
			},
			"evm": {
				"assembly": "    /* \".learneth/Solidity Beginner Course/7.2 Control Flow - Loops/loops.sol\":57:543  contract Loop {... */\n  mstore(0x40, 0x80)\n  callvalue\n  dup1\n  iszero\n  tag_1\n  jumpi\n  0x00\n  dup1\n  revert\ntag_1:\n  pop\n  dataSize(sub_0)\n  dup1\n  dataOffset(sub_0)\n  0x00\n  codecopy\n  0x00\n  return\nstop\n\nsub_0: assembly {\n        /* \".learneth/Solidity Beginner Course/7.2 Control Flow - Loops/loops.sol\":57:543  contract Loop {... */\n      mstore(0x40, 0x80)\n      callvalue\n      dup1\n      iszero\n      tag_1\n      jumpi\n      0x00\n      dup1\n      revert\n    tag_1:\n      pop\n      jumpi(tag_2, lt(calldatasize, 0x04))\n      shr(0xe0, calldataload(0x00))\n      dup1\n      0x06661abd\n      eq\n      tag_3\n      jumpi\n      dup1\n      0xa92100cb\n      eq\n      tag_4\n      jumpi\n    tag_2:\n      0x00\n      dup1\n      revert\n        /* \".learneth/Solidity Beginner Course/7.2 Control Flow - Loops/loops.sol\":77:94  uint public count */\n    tag_3:\n      tag_5\n      tag_6\n      jump\t// in\n    tag_5:\n      mload(0x40)\n      tag_7\n      swap2\n      swap1\n      tag_8\n      jump\t// in\n    tag_7:\n      mload(0x40)\n      dup1\n      swap2\n      sub\n      swap1\n      return\n        /* \".learneth/Solidity Beginner Course/7.2 Control Flow - Loops/loops.sol\":101:541  function loop() public {... */\n    tag_4:\n      tag_9\n      tag_10\n      jump\t// in\n    tag_9:\n      stop\n        /* \".learneth/Solidity Beginner Course/7.2 Control Flow - Loops/loops.sol\":77:94  uint public count */\n    tag_6:\n      sload(0x00)\n      dup2\n      jump\t// out\n        /* \".learneth/Solidity Beginner Course/7.2 Control Flow - Loops/loops.sol\":101:541  function loop() public {... */\n    tag_10:\n        /* \".learneth/Solidity Beginner Course/7.2 Control Flow - Loops/loops.sol\":159:165  uint i */\n      0x00\n        /* \".learneth/Solidity Beginner Course/7.2 Control Flow - Loops/loops.sol\":154:444  for (uint i = 0; i < 18; i += 2) {... */\n    tag_12:\n        /* \".learneth/Solidity Beginner Course/7.2 Control Flow - Loops/loops.sol\":175:177  18 */\n      0x12\n        /* \".learneth/Solidity Beginner Course/7.2 Control Flow - Loops/loops.sol\":171:172  i */\n      dup2\n        /* \".learneth/Solidity Beginner Course/7.2 Control Flow - Loops/loops.sol\":171:177  i < 18 */\n      lt\n        /* \".learneth/Solidity Beginner Course/7.2 Control Flow - Loops/loops.sol\":154:444  for (uint i = 0; i < 18; i += 2) {... */\n      iszero\n      tag_13\n      jumpi\n        /* \".learneth/Solidity Beginner Course/7.2 Control Flow - Loops/loops.sol\":210:211  5 */\n      0x05\n        /* \".learneth/Solidity Beginner Course/7.2 Control Flow - Loops/loops.sol\":205:206  i */\n      dup2\n        /* \".learneth/Solidity Beginner Course/7.2 Control Flow - Loops/loops.sol\":205:211  i == 5 */\n      sub\n        /* \".learneth/Solidity Beginner Course/7.2 Control Flow - Loops/loops.sol\":201:310  if (i == 5) {... */\n      iszero\n        /* \".learneth/Solidity Beginner Course/7.2 Control Flow - Loops/loops.sol\":287:295  continue */\n      tag_14\n        /* \".learneth/Solidity Beginner Course/7.2 Control Flow - Loops/loops.sol\":201:310  if (i == 5) {... */\n      jumpi\n        /* \".learneth/Solidity Beginner Course/7.2 Control Flow - Loops/loops.sol\":332:333  5 */\n      0x05\n        /* \".learneth/Solidity Beginner Course/7.2 Control Flow - Loops/loops.sol\":327:328  i */\n      dup2\n        /* \".learneth/Solidity Beginner Course/7.2 Control Flow - Loops/loops.sol\":327:333  i == 5 */\n      sub\n        /* \".learneth/Solidity Beginner Course/7.2 Control Flow - Loops/loops.sol\":323:413  if (i == 5) {... */\n      iszero\n        /* \".learneth/Solidity Beginner Course/7.2 Control Flow - Loops/loops.sol\":393:398  break */\n      tag_13\n        /* \".learneth/Solidity Beginner Course/7.2 Control Flow - Loops/loops.sol\":323:413  if (i == 5) {... */\n      jumpi\n        /* \".learneth/Solidity Beginner Course/7.2 Control Flow - Loops/loops.sol\":426:431  count */\n      0x00\n      dup1\n        /* \".learneth/Solidity Beginner Course/7.2 Control Flow - Loops/loops.sol\":426:433  count++ */\n      dup2\n      sload\n      dup1\n      swap3\n      swap2\n      swap1\n      tag_17\n      swap1\n      tag_18\n      jump\t// in\n    tag_17:\n      swap2\n      swap1\n      pop\n      sstore\n      pop\n        /* \".learneth/Solidity Beginner Course/7.2 Control Flow - Loops/loops.sol\":154:444  for (uint i = 0; i < 18; i += 2) {... */\n    tag_14:\n        /* \".learneth/Solidity Beginner Course/7.2 Control Flow - Loops/loops.sol\":184:185  2 */\n      0x02\n        /* \".learneth/Solidity Beginner Course/7.2 Control Flow - Loops/loops.sol\":179:185  i += 2 */\n      dup2\n      tag_19\n      swap2\n      swap1\n      tag_20\n      jump\t// in\n    tag_19:\n      swap1\n      pop\n        /* \".learneth/Solidity Beginner Course/7.2 Control Flow - Loops/loops.sol\":154:444  for (uint i = 0; i < 18; i += 2) {... */\n      jump(tag_12)\n    tag_13:\n      pop\n        /* \".learneth/Solidity Beginner Course/7.2 Control Flow - Loops/loops.sol\":476:482  uint j */\n      0x00\n        /* \".learneth/Solidity Beginner Course/7.2 Control Flow - Loops/loops.sol\":492:535  while (j < 10) {... */\n    tag_21:\n        /* \".learneth/Solidity Beginner Course/7.2 Control Flow - Loops/loops.sol\":503:505  10 */\n      0x0a\n        /* \".learneth/Solidity Beginner Course/7.2 Control Flow - Loops/loops.sol\":499:500  j */\n      dup2\n        /* \".learneth/Solidity Beginner Course/7.2 Control Flow - Loops/loops.sol\":499:505  j < 10 */\n      lt\n        /* \".learneth/Solidity Beginner Course/7.2 Control Flow - Loops/loops.sol\":492:535  while (j < 10) {... */\n      iszero\n      tag_22\n      jumpi\n        /* \".learneth/Solidity Beginner Course/7.2 Control Flow - Loops/loops.sol\":521:524  j++ */\n      dup1\n      dup1\n      tag_23\n      swap1\n      tag_18\n      jump\t// in\n    tag_23:\n      swap2\n      pop\n      pop\n        /* \".learneth/Solidity Beginner Course/7.2 Control Flow - Loops/loops.sol\":492:535  while (j < 10) {... */\n      jump(tag_21)\n    tag_22:\n        /* \".learneth/Solidity Beginner Course/7.2 Control Flow - Loops/loops.sol\":124:541  {... */\n      pop\n        /* \".learneth/Solidity Beginner Course/7.2 Control Flow - Loops/loops.sol\":101:541  function loop() public {... */\n      jump\t// out\n        /* \"#utility.yul\":7:84   */\n    tag_24:\n        /* \"#utility.yul\":44:51   */\n      0x00\n        /* \"#utility.yul\":73:78   */\n      dup2\n        /* \"#utility.yul\":62:78   */\n      swap1\n      pop\n        /* \"#utility.yul\":7:84   */\n      swap2\n      swap1\n      pop\n      jump\t// out\n        /* \"#utility.yul\":90:208   */\n    tag_25:\n        /* \"#utility.yul\":177:201   */\n      tag_30\n        /* \"#utility.yul\":195:200   */\n      dup2\n        /* \"#utility.yul\":177:201   */\n      tag_24\n      jump\t// in\n    tag_30:\n        /* \"#utility.yul\":172:175   */\n      dup3\n        /* \"#utility.yul\":165:202   */\n      mstore\n        /* \"#utility.yul\":90:208   */\n      pop\n      pop\n      jump\t// out\n        /* \"#utility.yul\":214:436   */\n    tag_8:\n        /* \"#utility.yul\":307:311   */\n      0x00\n        /* \"#utility.yul\":345:347   */\n      0x20\n        /* \"#utility.yul\":334:343   */\n      dup3\n        /* \"#utility.yul\":330:348   */\n      add\n        /* \"#utility.yul\":322:348   */\n      swap1\n      pop\n        /* \"#utility.yul\":358:429   */\n      tag_32\n        /* \"#utility.yul\":426:427   */\n      0x00\n        /* \"#utility.yul\":415:424   */\n      dup4\n        /* \"#utility.yul\":411:428   */\n      add\n        /* \"#utility.yul\":402:408   */\n      dup5\n        /* \"#utility.yul\":358:429   */\n      tag_25\n      jump\t// in\n    tag_32:\n        /* \"#utility.yul\":214:436   */\n      swap3\n      swap2\n      pop\n      pop\n      jump\t// out\n        /* \"#utility.yul\":442:622   */\n    tag_26:\n        /* \"#utility.yul\":490:567   */\n      0x4e487b7100000000000000000000000000000000000000000000000000000000\n        /* \"#utility.yul\":487:488   */\n      0x00\n        /* \"#utility.yul\":480:568   */\n      mstore\n        /* \"#utility.yul\":587:591   */\n      0x11\n        /* \"#utility.yul\":584:585   */\n      0x04\n        /* \"#utility.yul\":577:592   */\n      mstore\n        /* \"#utility.yul\":611:615   */\n      0x24\n        /* \"#utility.yul\":608:609   */\n      0x00\n        /* \"#utility.yul\":601:616   */\n      revert\n        /* \"#utility.yul\":628:861   */\n    tag_18:\n        /* \"#utility.yul\":667:670   */\n      0x00\n        /* \"#utility.yul\":690:714   */\n      tag_35\n        /* \"#utility.yul\":708:713   */\n      dup3\n        /* \"#utility.yul\":690:714   */\n      tag_24\n      jump\t// in\n    tag_35:\n        /* \"#utility.yul\":681:714   */\n      swap2\n      pop\n        /* \"#utility.yul\":736:802   */\n      0xffffffffffffffffffffffffffffffffffffffffffffffffffffffffffffffff\n        /* \"#utility.yul\":729:734   */\n      dup3\n        /* \"#utility.yul\":726:803   */\n      sub\n        /* \"#utility.yul\":723:826   */\n      tag_36\n      jumpi\n        /* \"#utility.yul\":806:824   */\n      tag_37\n      tag_26\n      jump\t// in\n    tag_37:\n        /* \"#utility.yul\":723:826   */\n    tag_36:\n        /* \"#utility.yul\":853:854   */\n      0x01\n        /* \"#utility.yul\":846:851   */\n      dup3\n        /* \"#utility.yul\":842:855   */\n      add\n        /* \"#utility.yul\":835:855   */\n      swap1\n      pop\n        /* \"#utility.yul\":628:861   */\n      swap2\n      swap1\n      pop\n      jump\t// out\n        /* \"#utility.yul\":867:1058   */\n    tag_20:\n        /* \"#utility.yul\":907:910   */\n      0x00\n        /* \"#utility.yul\":926:946   */\n      tag_39\n        /* \"#utility.yul\":944:945   */\n      dup3\n        /* \"#utility.yul\":926:946   */\n      tag_24\n      jump\t// in\n    tag_39:\n        /* \"#utility.yul\":921:946   */\n      swap2\n      pop\n        /* \"#utility.yul\":960:980   */\n      tag_40\n        /* \"#utility.yul\":978:979   */\n      dup4\n        /* \"#utility.yul\":960:980   */\n      tag_24\n      jump\t// in\n    tag_40:\n        /* \"#utility.yul\":955:980   */\n      swap3\n      pop\n        /* \"#utility.yul\":1003:1004   */\n      dup3\n        /* \"#utility.yul\":1000:1001   */\n      dup3\n        /* \"#utility.yul\":996:1005   */\n      add\n        /* \"#utility.yul\":989:1005   */\n      swap1\n      pop\n        /* \"#utility.yul\":1024:1027   */\n      dup1\n        /* \"#utility.yul\":1021:1022   */\n      dup3\n        /* \"#utility.yul\":1018:1028   */\n      gt\n        /* \"#utility.yul\":1015:1051   */\n      iszero\n      tag_41\n      jumpi\n        /* \"#utility.yul\":1031:1049   */\n      tag_42\n      tag_26\n      jump\t// in\n    tag_42:\n        /* \"#utility.yul\":1015:1051   */\n    tag_41:\n        /* \"#utility.yul\":867:1058   */\n      swap3\n      swap2\n      pop\n      pop\n      jump\t// out\n\n    auxdata: 0xa2646970667358221220495a992e2f6641e714e5b41ffa1ee7294861310e528c81db933cde2a744ca2ba64736f6c63430008160033\n}\n",
				"bytecode": {
					"linkReferences": {},
					"object": "608060405234801561000f575f80fd5b506101dd8061001d5f395ff3fe608060405234801561000f575f80fd5b5060043610610034575f3560e01c806306661abd14610038578063a92100cb14610056575b5f80fd5b610040610060565b60405161004d91906100e7565b60405180910390f35b61005e610065565b005b5f5481565b5f5b60128110156100ad5760058103156100995760058103156100ad575f808154809291906100939061012d565b91905055505b6002816100a69190610174565b9050610067565b505f5b600a8110156100cc5780806100c49061012d565b9150506100b0565b50565b5f819050919050565b6100e1816100cf565b82525050565b5f6020820190506100fa5f8301846100d8565b92915050565b7f4e487b71000000000000000000000000000000000000000000000000000000005f52601160045260245ffd5b5f610137826100cf565b91507fffffffffffffffffffffffffffffffffffffffffffffffffffffffffffffffff820361016957610168610100565b5b600182019050919050565b5f61017e826100cf565b9150610189836100cf565b92508282019050808211156101a1576101a0610100565b5b9291505056fea2646970667358221220495a992e2f6641e714e5b41ffa1ee7294861310e528c81db933cde2a744ca2ba64736f6c63430008160033",
					"opcodes": "PUSH1 0x80 PUSH1 0x40 MSTORE CALLVALUE DUP1 ISZERO PUSH2 0xF JUMPI PUSH0 DUP1 REVERT JUMPDEST POP PUSH2 0x1DD DUP1 PUSH2 0x1D PUSH0 CODECOPY PUSH0 RETURN INVALID PUSH1 0x80 PUSH1 0x40 MSTORE CALLVALUE DUP1 ISZERO PUSH2 0xF JUMPI PUSH0 DUP1 REVERT JUMPDEST POP PUSH1 0x4 CALLDATASIZE LT PUSH2 0x34 JUMPI PUSH0 CALLDATALOAD PUSH1 0xE0 SHR DUP1 PUSH4 0x6661ABD EQ PUSH2 0x38 JUMPI DUP1 PUSH4 0xA92100CB EQ PUSH2 0x56 JUMPI JUMPDEST PUSH0 DUP1 REVERT JUMPDEST PUSH2 0x40 PUSH2 0x60 JUMP JUMPDEST PUSH1 0x40 MLOAD PUSH2 0x4D SWAP2 SWAP1 PUSH2 0xE7 JUMP JUMPDEST PUSH1 0x40 MLOAD DUP1 SWAP2 SUB SWAP1 RETURN JUMPDEST PUSH2 0x5E PUSH2 0x65 JUMP JUMPDEST STOP JUMPDEST PUSH0 SLOAD DUP2 JUMP JUMPDEST PUSH0 JUMPDEST PUSH1 0x12 DUP2 LT ISZERO PUSH2 0xAD JUMPI PUSH1 0x5 DUP2 SUB ISZERO PUSH2 0x99 JUMPI PUSH1 0x5 DUP2 SUB ISZERO PUSH2 0xAD JUMPI PUSH0 DUP1 DUP2 SLOAD DUP1 SWAP3 SWAP2 SWAP1 PUSH2 0x93 SWAP1 PUSH2 0x12D JUMP JUMPDEST SWAP2 SWAP1 POP SSTORE POP JUMPDEST PUSH1 0x2 DUP2 PUSH2 0xA6 SWAP2 SWAP1 PUSH2 0x174 JUMP JUMPDEST SWAP1 POP PUSH2 0x67 JUMP JUMPDEST POP PUSH0 JUMPDEST PUSH1 0xA DUP2 LT ISZERO PUSH2 0xCC JUMPI DUP1 DUP1 PUSH2 0xC4 SWAP1 PUSH2 0x12D JUMP JUMPDEST SWAP2 POP POP PUSH2 0xB0 JUMP JUMPDEST POP JUMP JUMPDEST PUSH0 DUP2 SWAP1 POP SWAP2 SWAP1 POP JUMP JUMPDEST PUSH2 0xE1 DUP2 PUSH2 0xCF JUMP JUMPDEST DUP3 MSTORE POP POP JUMP JUMPDEST PUSH0 PUSH1 0x20 DUP3 ADD SWAP1 POP PUSH2 0xFA PUSH0 DUP4 ADD DUP5 PUSH2 0xD8 JUMP JUMPDEST SWAP3 SWAP2 POP POP JUMP JUMPDEST PUSH32 0x4E487B7100000000000000000000000000000000000000000000000000000000 PUSH0 MSTORE PUSH1 0x11 PUSH1 0x4 MSTORE PUSH1 0x24 PUSH0 REVERT JUMPDEST PUSH0 PUSH2 0x137 DUP3 PUSH2 0xCF JUMP JUMPDEST SWAP2 POP PUSH32 0xFFFFFFFFFFFFFFFFFFFFFFFFFFFFFFFFFFFFFFFFFFFFFFFFFFFFFFFFFFFFFFFF DUP3 SUB PUSH2 0x169 JUMPI PUSH2 0x168 PUSH2 0x100 JUMP JUMPDEST JUMPDEST PUSH1 0x1 DUP3 ADD SWAP1 POP SWAP2 SWAP1 POP JUMP JUMPDEST PUSH0 PUSH2 0x17E DUP3 PUSH2 0xCF JUMP JUMPDEST SWAP2 POP PUSH2 0x189 DUP4 PUSH2 0xCF JUMP JUMPDEST SWAP3 POP DUP3 DUP3 ADD SWAP1 POP DUP1 DUP3 GT ISZERO PUSH2 0x1A1 JUMPI PUSH2 0x1A0 PUSH2 0x100 JUMP JUMPDEST JUMPDEST SWAP3 SWAP2 POP POP JUMP INVALID LOG2 PUSH5 0x6970667358 0x22 SLT KECCAK256 0x49 GAS SWAP10 0x2E 0x2F PUSH7 0x41E714E5B41FFA 0x1E 0xE7 0x29 BASEFEE PUSH2 0x310E MSTORE DUP13 DUP2 0xDB SWAP4 EXTCODECOPY 0xDE 0x2A PUSH21 0x4CA2BA64736F6C6343000816003300000000000000 "
				},
				"gasEstimates": {
					"creation": {
						"codeDepositCost": "95400",
						"executionCost": "139",
						"totalCost": "95539"
					},
					"external": {
						"count()": "2402",
						"loop()": "infinite"
					}
				},
				"methodIdentifiers": {
					"count()": "06661abd",
					"loop()": "a92100cb"
				}
			},
			"storageLayout": {
				"storage": [
					{
						"astId": 3,
						"contract": ".learneth/Solidity Beginner Course/7.2 Control Flow - Loops/loops.sol:Loop",
						"label": "count",
						"offset": 0,
						"slot": "0",
						"type": "t_uint256"
					}
				],
				"types": {
					"t_uint256": {
						"encoding": "inplace",
						"label": "uint256",
						"numberOfBytes": "32"
					}
				}
			},
			"userdoc": {
				"kind": "user",
				"methods": {},
				"version": 1
			}
		}
	}
}